:020000022000DC
:1060000000000120756302005D6302005F6302000F
:106010006163020063630200656302000000000028
:1060200000000000000000000000000067630200A4
:1060300069630200000000006B6302006D630200F0
:10604000EDEA02006F630200F1CF020091E9020065
:106050006F6302006F630200EDCE02006F63020007
:106060006F6302006F6302006F6302006F630200E0
:106070006F6302006F6302006F6302006F630200D0
:106080006F6302006F6302006F6302006F630200C0
:106090006F6302006F630200514C04006F630200E3
:1060A0006F6302006F6302006F6302006F630200A0
:1060B0006F6302006F630200000000000000000038
:1060C0006F6302006F6302006F630200E9F5020074
:1060D00015D902006F6302006F6302000000000028
:1060E00000000000000000000000000000000000B0
:1060F00000000000000000000000000000000000A0
:10610000000000000000000000000000000000008F
:10611000000000000000000000000000000000007F
:10612000000000000000000000000000000000006F
:10613000000000000000000000000000000000005F
:10614000000000000000000000000000000000004F
:10615000000000000000000000000000000000003F
:10616000000000000000000000000000000000002F
:10617000000000000000000000000000000000001F
:10618000000000000000000000000000000000000F
:1061900000000000000000000000000000000000FF
:1061A00000000000000000000000000000000000EF
:1061B00000000000000000000000000000000000DF
:1061C00000000000000000000000000000000000CF
:1061D00000000000000000000000000000000000BF
:1061E00000000000000000000000000000000000AF
:1061F000000000000000000000000000000000009F
:10620000354936480A1A02D0072291438D4634494F
:1062100034480A1A06D00722914381F309880222E2
:1062200082F3148830483149314A00F044F831484B
:106230003149324A00F03FF831483249324A00F0E1
:106240003AF832483249334A00F035F83248334997
:10625000334A00F030F833483349344A00F02BF821
:1062600033483449344A00F026F83448344900228F
:1062700000F02CF833483449002200F027F8334866
:106280003349091A082902DB002202604160314AC1
:1062900090471F481F49884205D00268043003B464
:1062A000904703BCF7E700208646EC46002000211B
:1062B000294A9047FEE7884207D0521A05D0037852
:1062C00001300B700131013AF9D17047884202D098
:1062D00002700130FAE770470000012000E0002062
:1062E0000000012000000120E8EE04001C2B00202B
:1062F0008C2B0020D0630200D06302009053040076
:10630000E8EE04001C2B00201C2B00201455040078
:1063100014550400145504001455040014550400C9
:10632000145504001455040014550400E6EE04004E
:1063300058EF04008C2B00208C2B00208C2B00208D
:1063400004450020044500200445002004450020A9
:10635000046500209D63020029F60200FEE7FEE7C7
:10636000FEE7FEE7FEE7FEE7FEE7FEE7FEE7FEE705
:1063700000F002B8FFF7FCBF0F484FF00701884359
:1063800085460E4880470E48016841F4700101605F
:10639000BFF34F8FBFF36F8FFFF732BF09480A4932
:1063A0000A4A884207D0521A05D0037801300B7090
:1063B0000131013AF9D17047000001205DBD0200B2
:1063C00088ED00E000550400082B00201C2B002065
:1063D00000B585B00190019B002B0AD0074B43F01C
:1063E00001030393019B9B010293039B029898472F
:1063F00000E000BF05B05DF804FB00BF20550400BD
:1064000000B583B00190019B002B0AD04FF47A7045
:10641000FFF7DEFF019B013B0193019B002BF5D1B0
:1064200000E000BF03B05DF804FB08B515F01AFFEB
:1064300000BF08BD00B589B0039002910192019B95
:10644000002B33D00023079303230693029A079B64
:106450001344019A1946002015F0B4FE0590079ADE
:10646000059B13440793019A059BD31A0193059B3F
:10647000002B13D10F4B1B7883F00103DBB2002BF1
:1064800013D10120FFF7BCFF069B013B0693069B3F
:10649000002B03D1074B00221A7007E0054B0122A5
:1064A0001A70019B002BD1D100E000BF00BF09B0E2
:1064B0005DF804FB8C2B002000B585B003900291A1
:1064C000054B00934023054A0299039800F012F807
:1064D00000BF05B05DF804FB35640200902B00207E
:1064E00082B0019000BF02B0704782B0019000BF3F
:1064F00002B0704700B5A1B00590049103920293D9
:10650000049804F063FE039B1593029B16930023EB
:10651000179300238DF8603000231993229B1A9360
:1065200000231F930FA91F9B0822049804F028FF43
:1065300008231F93119B1293BDF84030ADF84C30E7
:10654000BDF84230ADF84E3000238DF851309DF843
:106550003C3003F00303DBB2012B26D10F9BC3F3C6
:1065600095231C939DF83C30C3F3C203DBB28DF836
:106570005030BDF83C30C3F38313DBB21B931B9B3D
:106580009A0009A91F9B049804F0FAFE1B9B9B002C
:106590001F9A13441F9312AA09A915AB009313461F
:1065A0001B9A1C9800F09CFF2FE09DF83C3003F0F4
:1065B0000303DBB2022B28D1BDF83E30C3F38913AD
:1065C0009BB21E939DF83C30C3F3C203DBB28DF83F
:1065D00050301E9B082B28BF08231D9307A91F9B23
:1065E0001D9A049804F0CCFE1F9A1D9B13441F9320
:1065F0001E9A1D9BD31A1E9315AB12AA07A81D99AC
:1066000001F010F81E9B002BE3D1049804F0EDFD7F
:1066100000BF21B05DF804FB82B00190019BDB68F4
:1066200001225A7100BF02B07047000000B583B06C
:106630004FF0FF330193FFF7F8FE0421084800F004
:106640006BFE0190019B002B03DA0649412008F004
:10665000D7FF0348FFF7E0FF00BF03B05DF804FB7E
:10666000F05404003855040000B583B00190009147
:10667000019B1B681B6800990198984700BF03B0F5
:106680005DF804FB00B583B00190019B1B685B685B
:106690000198984700BF03B05DF804FB00B583B0D4
:1066A0000190019B1B689B680198984700BF03B04D
:1066B0005DF804FB82B001900B468DF80330019B1E
:1066C000DB689DF803201A7100BF02B0704782B0EA
:1066D0000190019BDB681B79184602B0704782B0BD
:1066E0000190019BDB6801225A7100BF02B0704724
:1066F00082B00190019BDB685B79184602B070475D
:1067000000B585B0019000910C4B01221A700C4825
:1067100004F0C0FC0390039B002B01D0039B08E016
:10672000084804F0E5FF084A084BD31ADB08029337
:106730000023184605B05DF804FB00BF382D00208B
:1067400024540400B0550400F054040038540400EC
:10675000024A034BD31ADB0818467047F054040072
:106760003854040000B587B001900B468DF8033013
:106770009DF80330002B1FD0FFF7EAFF04900023A1
:10678000059313E0059B9B000E4A13440393039B60
:106790001B881A46019B1B689A4204D1019B059AEB
:1067A0001A60002309E0059B01330593059A049BB9
:1067B0009A42E7D3052300E00023184607B05DF8AE
:1067C00004FB00BF1C2B002000B585B001900B46D8
:1067D0008DF803309DF8032001AB11461846FFF7F2
:1067E000C1FF0346002B07D1019BDB00054A134480
:1067F0000393039B1B6800E00023184605B05DF877
:1068000004FB00BF3854040084B001900B468DF89F
:106810000330019BDB00174A134402939DF80330B9
:10682000013B032B1CD801A252F823F03D68020063
:10683000456802004D6802005768020002238DF887
:106840000F3011E004238DF80F300DE0029B1B790F
:106850008DF80F3008E0029B5B798DF80F3003E074
:1068600000238DF80F3000BF9DF80F30184604B09C
:10687000704700BF3854040084B001900091002399
:106880008DF80F30019B1B7803F00403DBB2002B63
:1068900024D0019B1B78C3F30103DBB2012B02D090
:1068A000022B0CD017E0009B1B68019A1288C2F3E0
:1068B0008312D2B213449A1C009B1A600BE0009B17
:1068C0001B68019A5288C2F3891292B213449A1C2F
:1068D000009B1A6000BF01238DF80F309DF80F3028
:1068E000184604B07047000000B58BB00023ADF827
:1068F00026303E4803F007FA3D4803F004FA3D4BCA
:106900009B6804933C4B1B680693049A069B1340B8
:1069100002339B00374A13440433089304AB1946EF
:106920000898FFF7A9FF0346002B09D0049A069B9D
:10693000134002339B002F4A134404330893EDE7BE
:1069400000BF0023079311E0049B5A1C0492069A8F
:106950001340079A920001A90A44264902339B007A
:106960000B445B681360079B01330793079B012B64
:10697000EAD99DF80430C3F30103DBB2012B10D038
:10698000022B1CD1BDF80A30ADF82630BDF8063018
:10699000C3F389139BB203339A08049B13440493F3
:1069A00013E0BDF80A30ADF82630BDF80430C3F36B
:1069B0008313DBB21A46049B1344049305E00F498A
:1069C0004FF4C27008F01CFE00BF094803F0A7F99D
:1069D0000590059B002B02D0049B064A9360BDF8EE
:1069E000263018460BB05DF804FB00BF5031002084
:1069F0004C310020382D0020242B0020C0550400ED
:106A000000B585B00021074803F0B2F80390039B5E
:106A10000293029B83F310030193019B184605B078
:106A20005DF804FB5431002000B589B00390029159
:106A300001920093039B1B0C0793FFF7E1FF069065
:106A4000FFF786FE0246079B934204D3214940F29A
:106A5000A91008F0D5FD069B1904009B5A1C0A9B3F
:106A60001340079A0A431C4902339B000B445A60A7
:106A7000009A0A9B134002339B00174A13440433C5
:106A80000593039B03F00703D9B2059A137861F3CA
:106A9000C5031370019B03F00F03D9B2059A138845
:106AA00061F389131380029BC3F31501059A1368E0
:106AB00061F39F231360059A1378012161F30103A9
:106AC0001370059A13786FF38203137000BF09B037
:106AD0005DF804FBC0550400382D002000B58DB0D2
:106AE0000390029113468DF80730039B02330A93FB
:106AF00001238DF8273000238DF81B300DF11B0387
:106B0000184600F087FF404B5A68029B1A603F4BC3
:106B10001A683D4B99683C4B5B68CB1A13440133B0
:106B20000B9314E001213A4803F0B1F8FFF7DCFEC3
:106B300007900799364803F0AAF8344B1A68324B8D
:106B40009968314B5B68CB1A134401330B930A9A53
:106B50000B9B9A42E6D89DF82730002B48D00023A3
:106B600005939DF80730002B17D09DF814300122B3
:106B700062F301038DF814309DF8143043F00403E0
:106B80008DF81430039B03F00F03DAB2BDF8143014
:106B900062F38913ADF8143016E09DF81430022228
:106BA00062F301038DF814309DF8143043F00403B0
:106BB0008DF81430039BC3F309039AB2BDF8163065
:106BC00062F38F13ADF816300F4B5A680F4B1B68EA
:106BD000134002339B000C4A134404330893059A74
:106BE000089B1A60084B5A680A9B1344064A536074
:106BF0009DF81B30184600F023FF9DF827301846FB
:106C00000DB05DF804FB00BF382D0020242B0020C0
:106C10005431002000B58BB005900491039202938B
:106C20001F4B1B68079306AB012219460298FFF71A
:106C300055FF0346002B24D0069B02330993002303
:106C4000089311E0089B9B00039A1A44099B591C66
:106C5000099107990B401268124902339B000B44BB
:106C60005A60089B01330893089A029B9A42E9D321
:106C7000069A079B00931346029A04990598FFF71A
:106C8000D3FE084B1B78002B05D000BF00F03AF96B
:106C90000346002BFAD100BF0BB05DF804FB00BF28
:106CA000242B0020382D002000B583B001900091E6
:106CB0000023002200990198FFF7ACFF00BF03B04A
:106CC0005DF804FB00B587B0039002910192019B2F
:106CD000059305AA012302990398FFF79BFF00BFC4
:106CE00007B05DF804FB00B587B0039002910192F4
:106CF0000093019B0493009B059304AA022302992D
:106D00000398FFF787FF00BF07B05DF804FB00B5ED
:106D100089B00390029101920093019B0593009B1F
:106D200006930A9B079305AA032302990398FFF78A
:106D300071FF00BF09B05DF804FB00B589B0039096
:106D4000029101920093019B0493009B05930A9B7F
:106D500006930B9B079304AA042302990398FFF759
:106D600059FF00BF09B05DF804FB00B58BB003907C
:106D7000029101920093019B0593009B06930C9B4B
:106D800007930D9B08930E9B099305AA052302996F
:106D90000398FFF73FFF00BF0BB05DF804FB000056
:106DA00000B58DB0039002911346ADF806304B4B01
:106DB0001B680B93BDF8063003339B0805A900221E
:106DC0001846FFF78BFE0346002B78D0059B0A93ED
:106DD000059B02330593414B1A6805990B9B0B40A9
:106DE000D31A01339B000993BDF80630099A9A42E1
:106DF0000ED3059A0B9B134002339B00384A134471
:106E00000433BDF80620029918461EF013FA17E065
:106E1000059A0B9B134002339B00314A1344043301
:106E2000099A029918461EF005FA029A099BD11890
:106E3000BDF80620099BD31A1A462A481EF0FAF913
:106E4000039B1B0C0893FFF7DBFD0790079B1904BE
:106E50000A9B5A1C0B9B1340089A0A432049023391
:106E60009B000B445A600A9A0B9B134002339B0011
:106E70001B4A134404330693039B03F00703D9B260
:106E8000069A137861F3C5031370069A13886FF39B
:106E90008F131380BDF80630C3F3090399B2069A25
:106EA000538861F38F135380069A1378022161F39C
:106EB00001031370069A13786FF382031370084B63
:106EC0001B78002B05D000BF00F01CF80346002BF8
:106ED000FAD100BF0DB05DF804FB00BF242B0020E9
:106EE000382D0020442D0020054B9A68044B5B6828
:106EF0009A420CBF01230023DBB21846704700BF43
:106F0000382D002000B599B0FFF7EEFF0346002BA7
:106F100001D00023C0E19B4B0022C3F81824BFF32B
:106F20004F8F00BF974B9B680493974B1B68109340
:106F3000049A109B134002339B00924A134404337B
:106F40001193002317930023169300230F9304AB90
:106F500019461198FFF790FC0346002B19D0894B76
:106F6000D3F81834002B14D1864B5A68049B9A42EC
:106F700005D8844B5B68834A936000238CE1049AB4
:106F8000109B134002339B007E4A13440433119339
:106F9000DDE70023159311E0049B5A1C0492109A1C
:106FA0001340159A920001A90A44764902339B00C6
:106FB0000B445B681360159B01331593159B012BE4
:106FC000EAD99DF8043003F00303DBB2022B40F052
:106FD0009C80BDF80630C3F389139BB20D93BDF8B6
:106FE0000630C3F389139BB2502B28BF50239BB2AA
:106FF0000C930C9BC3F309039AB2BDF8063062F3FD
:107000008F13ADF806300C9B08330B939DF80430BA
:10701000C3F3C203DBB20F930B995C4804F045F84D
:107020001790179B002B00F0D380179804F0CEF830
:1070300001A9169B0822179804F084F9169B0833BF
:107040001693049BDA43109B134001339B000A9371
:107050000C9A0A9B9A4242D90A9B002B08D0049AA8
:10706000109B134002339B00464A1344043300E054
:10707000474B08930A9B002B02D00A9BDBB201E02E
:107080000C9BDBB28DF81F300A9B002B01D0404BCC
:1070900000E0002306930A9B002B06D00C9BDAB27B
:1070A0000A9BDBB2D31ADBB200E000238DF8173065
:1070B0009DF81F20169B0899179804F043F99DF836
:1070C0001F30169A13441693069B002B16D09DF87A
:1070D0001720169B0699179804F034F90EE0049ACD
:1070E000109B134002339B00264A13440433099338
:1070F000169B0C9A0999179804F024F90D9B0333F9
:107100009A08049B1344049362E09DF8043003F052
:107110000303DBB2012B5BD1BDF80430C3F383134F
:10712000DBB2062B28BF0623DAB2BDF8043062F3C7
:107130008913ADF80430BDF80430C3F38313DBB218
:1071400002330E939DF80430C3F3C203DBB20F93F6
:107150000E9B9B0019460D4803F0A7FF1790179B45
:10716000002B35D0179804F031F801A9169B08229E
:10717000179804F0E7F8169B08331693002315932D
:107180001DE000BF382D0020242B002024540400D3
:10719000442D0020049B5A1C0492109A1340023381
:1071A0009B003F4A1344191D169B0422179804F0B4
:1071B000C9F8169B04331693159B01331593BDF83C
:1071C0000430C3F38313DBB21A46159B9342E1D319
:1071D000179B002B40D0324BD3F810341493304B14
:1071E000D3F81834002B1BD0179803F0FEFF4DE0A6
:1071F00000238DF84F301498FFF77AFA0346002BDE
:1072000002D001238DF84F309DF84F30002B03D072
:1072100017991498FFF728FA149BDB681B681493DE
:10722000149B002BE4D1179803F0DFFF00238DF8A7
:1072300003300DF10303184600F0ECFB184BD3F8B4
:107240001834002B02D1049B154A93609DF803303B
:10725000184600F0F5FB19E0114BD3F810341293E7
:1072600006E01298FFF71AFA129BDB681B6812936C
:10727000129B002BF5D10B4A0B4BD31ADB081B04D6
:1072800043F0020309491846FFF70EFDFFF72CFEF5
:10729000034683F00103DBB2184619B05DF804FB26
:1072A000382D00206854040038540400305604007F
:1072B00000B585B00023039323E0164BD3F81034B8
:1072C000029301238DF807300FE00298FFF7FFF9D2
:1072D00003461A46039B934203D100238DF80730DF
:1072E00006E0029BDB681B680293029B002BECD13B
:1072F0009DF80730002B01D0039B07E0039B01336F
:107300000393039B092BD8DD4FF0FF33184605B0DC
:107310005DF804FB382D002000B585B001900B46C8
:107320008DF80330FFF7C4FF0390039BB3F1FF3FD9
:1073300001D1039B22E0039BDBB219460198FFF7C2
:10734000B9F9104BD3F81034002B08D10D4A019B2A
:10735000C2F81034019BDB6800221A600DE0094B73
:10736000D3F81034DA68019BDB6812681A60054BA9
:10737000D3F81034DB68019A1A60039B184605B0F5
:107380005DF804FB382D002000B583B00C4BD3F81A
:10739000103401930A4B01221A7009E00198FFF79B
:1073A0009EF90198FFF76EF9019BDB681B6801935A
:1073B000019B002BF2D100BF00BF03B05DF804FBBE
:1073C000382D002082B00190009100BF02B07047BC
:1073D00010B584B003900291039BDB88002B0AD088
:1073E000039BDB881A461F4B009313461E4A1F4916
:1073F000029802F0D1FD039B1B7A052B2ED0039B34
:107400005B7A002B12D0039B9B881A46039B1B7A46
:1074100019461046FFF7F8F903461A46144B53F87D
:1074200022301A461349029802F0B6FD039B1B68EE
:1074300019460298FFF7C6FF039B1B7A1A460E4BAC
:1074400053F82240039B9B8800211846FFF7BCF9A4
:10745000034622460949029802F09EFD00BF04B08F
:1074600010BD00BF6456040074560400AC560400FE
:107470003C2B0020C4560400282B0020C8560400D2
:1074800000B585B00390029113468DF80730039B39
:107490001B7A052B0FD0039B5B7A002B06D00D4B7C
:1074A0001B681A460C49029802F076FD0B490298B7
:1074B00002F072FD07E09DF80730002B03D007496A
:1074C000029802F069FD029802F044FD00BF05B089
:1074D0005DF804FB3C2B0020C4560400D456040085
:1074E00030B58BB007900691059204930E9B1B7BE1
:1074F0008DF827300E9B00221A730E990498FFF71F
:1075000067FF059B062B7FD801A252F823F000BF2E
:107510002D75020037750200477502005B75020089
:1075200079750200A1750200D175020007990E98C5
:1075300002F032FD69E0069B1B681A4607990E9817
:1075400002F02AFD61E0069B1A68069B04331B6863
:1075500007990E9802F020FD57E0069B1A68069BDB
:1075600004331968069B08331B6800930B46079980
:107570000E9802F011FD48E0069B1968069B043343
:107580001868069B08331B68069A0C321268019231
:10759000009303460A4607990E9802F0FDFC34E07A
:1075A000069B1868069B04331C68069B08331B68FF
:1075B000069A0C32126806991031096802910192FC
:1075C00000932346024607990E9802F0E5FC1CE062
:1075D000069B1C68069B04331D68069B08331B68CA
:1075E000069A0C3212680699103109680698143010
:1075F000006803900291019200932B46224607995E
:107600000E9802F0C9FC00E000BF00220E99049819
:10761000FFF736FF0E9B9DF827201A7300BF0BB0B3
:1076200030BD00BF00B587B0039002910192009376
:10763000029B082B60D8009B1B7B8DF81330009BAE
:1076400000221A7300990198FFF7C2FE00230593E8
:1076500014E0059A029B9A4209D2039A059B1344AF
:107660001B781A462649009802F096FC03E025494B
:10767000009802F091FC059B01330593059B072BB5
:10768000E7D92149009802F087FC0023059326E002
:10769000059A029B9A421BD2039A059B13441B78BE
:1076A0008DF812309DF812307E2B0AD89DF81230DA
:1076B00018461DF083FD0346002B02D09DF81230C2
:1076C00000E02E231A461149009802F065FC03E001
:1076D0000F49009802F060FC059B01330593059B60
:1076E000072BD5D9012200990198FFF7C9FE009B0D
:1076F0009DF813201A7300E000BF07B05DF804FB8B
:10770000D8560400E0560400E4560400E85604008D
:10771000EC56040086B003900291019201238DF88B
:1077200017309DF81730204A039B13601E4A029BB6
:1077300053601D4A019B9360039B44F201029342F4
:1077400012D0039B44F20202934220D1019B164ABD
:10775000D360154BDB681B68134A9361124BDB68DF
:107760005B68114AD36112E0019B0F4A13610E4B13
:107770001B699B680C4A53610B4B1B691B680A4AC7
:107780009361094B1B695B68074AD36100BF72B6FE
:1077900000BF00BF9DF81730DBB2002BFAD162B6F4
:1077A00000BF00BF06B070475831002000B583B05D
:1077B00002900091019244F2010071466A4600F085
:1077C00003F803B000BD00BF30B58BB00790069141
:1077D000059272B600BFFFF7D7FD00BFFFF792FB1F
:1077E0000346002BFAD1079B44F2020293422FD0AA
:1077F000079B44F20202934269D8079B44F20102BC
:10780000934237D0079B44F2010293425FD8079B13
:10781000012B05D0079B41F2010293420CD056E0A8
:10782000394A3A4BD31ADB081B0443F001033849A9
:107830001846FFF739FA57E0334A344BD31ADB08BE
:107840001B0443F0010333491846FFF72DFA4BE0C0
:10785000059B09932C4A2D4BD31ADB081B0443F0DC
:107860000100099B5B681A46099B1B682A49FFF7C0
:107870003AFA39E0059B0893234A244BD31ADB08D4
:107880001B0443F00104089B9D68089B9B681846F5
:1078900003F0A8FF03461846089B5B681946089B3F
:1078A0001B68069A02920193009103462A461B49DF
:1078B0002046FFF75AFA144A144BD31ADB081B046C
:1078C00043F0010316491846FFF7EEF90CE00E4AA3
:1078D0000E4BD31ADB081B0443F00103069A11492F
:1078E0001846FFF7EFF900BF0F4B1B6803F00103C9
:1078F000002B00D000BE059A06990798FFF70AFFF3
:1079000000BF0BB030BD00BF685404003854040001
:10791000F056040010570400345704005057040078
:10792000785704008C570400F0ED00E082B0EFF3CC
:1079300010830093009B019372B600BF019B184611
:1079400002B0704762B600BF00BF704700B585B097
:107950000190FFF7EBFF0390164B9B68002B1BD1A8
:10796000144B01229A60144BD3F88020134B134020
:10797000104A1360104B114AC3F880200E4BD3F805
:1079800084300C4A53600C4B4FF0FF32C3F8842014
:10799000019B00221A7002E0019B01221A70039BD6
:1079A000002B01D1FFF7CEFF0023184605B05DF88C
:1079B00004FB00BF7831002000E100E0FC06FFBDC1
:1079C00000B585B003468DF80730104B9B68002B3F
:1079D00016D09DF80730002B12D1FFF7A7FF0390B8
:1079E0000B4A0A4B1B681360094A084B5B685360DB
:1079F000064B00229A60039B002B01D1FFF7A2FFE8
:107A00000023184605B05DF804FB00BF7831002064
:107A100000E100E000B583B0019000F02BF80346D0
:107A2000012B03D00549432007F0EAFD0198FFF739
:107A30008DFF00BF03B05DF804FB00BFA457040036
:107A400000B583B003468DF8073000F013F8034605
:107A5000012B03D00649512007F0D2FD9DF80730D5
:107A60001846FFF7ADFF00BF03B05DF804FB00BF91
:107A7000A457040084B0EFF305830193019BC3F383
:107A800008030393039B002B0DD1EFF314830093A2
:107A9000009B0293029B03F00103002B0CBF012308
:107AA0000023DBB200E00123184604B0704782B027
:107AB0000190019B03F00303002B0CBF0123002363
:107AC000DBB2184602B0704700B585B001900023C4
:107AD00003930EE00B4A039B52F82330002B05D092
:107AE000084A039B52F8233001989847039B0133BF
:107AF0000393039B032BEDD900BF00BF05B05DF8D6
:107B000004FB00BF9431002082B001900091019BE2
:107B10001B78013B052B61D801A252F823F000BF6E
:107B2000397B0200417B0200677B0200997B0200E7
:107B3000B97B0200D57B0200009B00221A704EE048
:107B4000009B01221A70019B1A89009B9A81019B5C
:107B50009A88009BDA81019BDA68009B9A60009BFF
:107B600000221A743BE0009B02221A70019B1A89C2
:107B7000009B9A81019B9A88009BDA81019BDA68BD
:107B8000009B9A60019B9B7D062B0CBF0123002369
:107B9000DAB2009B1A7422E0009B03221A70019B48
:107BA000DA88009B9A81019B1A89009BDA81019BEC
:107BB000DA68009B9A6012E0009B04221A70019B15
:107BC000DA88009B9A81009B0022DA81009B0022C8
:107BD0009A6004E0009B05221A7000E000BF00BF1D
:107BE00002B0704784B001900091019B0393039A07
:107BF000009B9A4206D2039B1B68B3F1FF3F01D062
:107C0000012300E0002303F00103DBB2184604B0B7
:107C1000704782B00190019B5B8803339B00019AFF
:107C20001344184602B0704700B583B0019000912C
:107C30000198FFF7EEFF0246009B934201D2022318
:107C400011E0019B9B884FF6FF72934208D0019B85
:107C50001B88002B04D0019B9B68B3F1FF3F01D12F
:107C6000012300E00023184603B05DF804FB000088
:107C700000B583B00190019B002B13D00D4BDB6846
:107C80001A46019B93420DD30A4B1B691A46019B6E
:107C9000934207D80198FFF70AFF0346002B01D053
:107CA000012300E0002303F00103DBB2184603B018
:107CB0005DF804FB082B002082B00190019B002B93
:107CC00004D0019B1B680B4A934201D003230DE0B3
:107CD000019B04331B68084A934204D0074A93422D
:107CE00003D1012302E0002300E00323184602B081
:107CF000704700BFDEC0ADDEFE011EF1FF011EF1C8
:107D000084B00190019B1B68B3F1FF3F06D0019B3B
:107D10001B680E4A934201D0002314E00123039311
:107D20000CE0039B9B00019A13441B68B3F1FF3FD7
:107D300001D0002307E0039B01330393039BB3F5BA
:107D4000806FEED30123184604B07047DEC0ADDE6D
:107D500082B003460A46ADF806301346ADF804304B
:107D6000BDF80620134913469B0013449B000B44A7
:107D700008331A88BDF804301344ADF80430BDF858
:107D800006200C4913469B0013449B000B440A3306
:107D90001A88BDF804301344ADF80430BDF804303F
:107DA000B3F5806F94BF01230023DBB2184602B005
:107DB000704700BF4432002084B00190009148F227
:107DC000096303930023ADF80A3027E0BDF80A20C9
:107DD000164913469B0013449B000B4404331B6855
:107DE000009A9A4215D9BDF80A20104913469B0003
:107DF00013449B000B4404331B6803F58053009A23
:107E00009A4206D200230393019BBDF80A201A80F0
:107E100008E0BDF80A300133ADF80A30BDF80A3089
:107E2000012BD3D9039B184604B07047443200207D
:107E300000B589B0039002910192039B03F5805332
:107E40000693039B08330393029B02221A80039B31
:107E5000079332E006990798FFF7E6FE03468DF890
:107E600017309DF81730002B0AD1079B9A68184BE2
:107E70001B689A4213D9079B9B68154A13600EE052
:107E8000019B002B02D0019B01221A709DF8173034
:107E9000022B04D1029B4FF480621A8014E0029BF3
:107EA0001A88079B5B8813449BB203339AB2029BE8
:107EB0001A800798FFF7ADFE079006990798FFF71D
:107EC00091FE0346002BC5D109B05DF804FB00BF4D
:107ED000A431002082B001900091009B9B7D022B79
:107EE00009D9019B1A89009BDB8813449BB2033399
:107EF0009AB2019B1A81019B5A89009BDB88D31A95
:107F00009BB2033B9AB2019B5A8100BF02B07047FB
:107F100000B583B0074B1B68194600230093082364
:107F2000054A064802F024FC0346184603B05DF8F3
:107F300004FB00BF6C32002074580400082B0020A2
:107F400000B585B003900399002300930823044AE9
:107F5000044802F00DFC0346184605B05DF804FB2A
:107F60007C580400082B002000B585B00346009122
:107F7000ADF8063000238DF80F30BDF8063003331E
:107F8000ADF80A30BDF80A3040F2FE32934202D911
:107F900048F208634BE00023ADF80C303BE0BDF83D
:107FA0000C20254913469B0013449B000B441B786F
:107FB000002B2BD1BDF80A20BDF80C301146184615
:107FC000FFF7C6FE0346002B20D001238DF80F30AB
:107FD000009BBDF80C201A80BDF80C2016491346F2
:107FE0009B0013449B000B440A331988BDF80C20F6
:107FF000BDF80A300B4498B20F4913469B00134456
:108000009B000B440A3302461A8008E0BDF80C308E
:108010000133ADF80C30BDF80C30012BBFD99DF801
:108020000F30002B01D0002301E048F20663184610
:1080300005B05DF804FB00BF4432002082B0034667
:108040000A46ADF806301346ADF80430BDF80420FA
:108050000D4913469B0013449B000B440A331A88B6
:10806000BDF80630D31A9BB2BDF80420033B98B28A
:10807000054913469B0013449B000B440A330246F8
:108080001A8000BF02B070474432002008B50121B9
:10809000024801F0FCFD0346184608BDA43100204B
:1080A00000B585B003460091ADF80630BDF8062056
:1080B000244913469B0013449B000B4404331B6864
:1080C00003F580530293009B1B680393039B002BD3
:1080D00004D00398FFF79DFD039026E0BDF806202D
:1080E000184913469B0013449B000B4404331B6840
:1080F0000833039319E002990398FFF795FD0346AF
:10810000022B10D0022B10DC002B02D0012B05D04B
:108110000BE0009B039A1A6001230EE00398FFF71F
:1081200078FD039001E0002307E002990398FFF730
:1081300059FD0346002BDED10023184605B05DF83B
:1081400004FB00BF4432002000B585B001900091CF
:10815000019B5B681846FFF78BFD0346002B19D087
:10816000019B1A89244B1B899A4213D1019B1A68DF
:10817000019B5B689B689A420CD1019B5B68194626
:108180000098FFF719FE0346002B0CBF01230023C4
:10819000DBB22CE0009B00221A8023E00023029334
:1081A00010E0029B0393039B9A68019B1B689A4211
:1081B00008D1029A019B5A600F4B1A89019B1A81C0
:1081C000012314E0009B1B8802AA11461846FFF702
:1081D00067FF0346002BE4D1009B1B8801339AB252
:1081E000009B1A80009B1B88012BD7D900231846BF
:1081F00005B05DF804FB00BF7432002000B587B005
:108200000390029101920093324B1B78DBB283F012
:108210000103DBB2002B02D048F2016355E0019B61
:10822000002B02D0009B002B49D148F204634CE0A4
:10823000009B9B881946284A0B469B000B449B00D9
:1082400013441B78002B33D124E0009B1B6805935B
:10825000039B002B06D0059B9A88039B1B889A42A0
:1082600000D017E0029B002B06D0059B1A88029BCA
:108270001B889A4200D00DE0059B9A68019B1A600A
:10828000009B1A68019B5A60144B1A89019B1A8142
:1082900000231AE0009B9B88009A11461846FFF7BE
:1082A000FFFE0346002BD0D1009B00221A6000E0A5
:1082B00000BF009B9B8801339AB2009B9A80009B71
:1082C0009B88012BB4D948F20963184607B05DF8C2
:1082D00004FB00BF843100204432002074320020AF
:1082E00000B585B00190084B0199184601F01AFBC2
:1082F00003901C22002103981CF0C5FF039B184625
:1083000005B05DF804FB00BF3432002000B583B037
:108310000190044B0199184601F01DFB00BF03B00A
:108320005DF804FB3432002000B583B00190054BAA
:108330000199184601F023FB0346184603B05DF887
:1083400004FB00BF3432002000B583B00190044B21
:108350000199184601F02CFB00BF03B05DF804FB47
:108360003432002008B50A4B1B68002B04D10949A0
:108370004FF4247007F044F90121054801F09FFCF7
:108380000346002B14BF01230023DBB2184608BDAF
:108390008C3100201458040000B587B000230593E9
:1083A0000023ADF812300323ADF8103000238DF810
:1083B0000F300023ADF80C30F7E0BDF80C301A0395
:1083C000824BDB68134402930298FFF775FC034667
:1083D0008DF807309DF80730032B08D0032B00F3EE
:1083E000DE80002B65D0012B00F09880D7E002984A
:1083F000FFF786FC0346002B3BD0754B1B68002B18
:1084000029D0BDF81220734913469B0013449B00EA
:108410000B4402221A70BDF812206E4913469B00CD
:1084200013449B000B440433029A1A60BDF81220D7
:10843000684913469B0013449B000B4408330222F7
:108440001A80654ABDF812305380BDF812300133EE
:10845000ADF8123008E05E4A029B13605C4B0222CA
:108460009A8001238DF80F30059B43F0010305939B
:1084700096E0BDF81030013BADF81030BDF8122089
:10848000544913469B0013449B000B440433029A47
:108490001A60BDF812204F4913469B0013449B00FD
:1084A0000B4403221A70BDF812300133ADF81230BC
:1084B00076E0BDF81220474913469B0013449B0009
:1084C0000B4400221A70BDF81220424913469B004B
:1084D00013449B000B440433029A1A60BDF8122027
:1084E00013469B0013449B0008333A4A9918BDF881
:1084F000122013469B0013449B001033354A13444B
:108500001A460298FFF794FC059B43F0020305937B
:10851000BDF812300133ADF8123041E09DF80F3054
:10852000002B29D0BDF812202A4913469B00134482
:108530009B000B4402221A70BDF81220244B1968CC
:10854000244813469B0013449B00034404331960E2
:10855000BDF812201F4913469B0013449B000B4497
:10856000083302221A801C4ABDF812305380BDF82D
:1085700012300133ADF81230154A029B136000220D
:1085800016490298FFF754FC114B9B88022B01D12E
:10859000042300E00823059A1343059300E000BF7D
:1085A000BDF80C300133ADF80C30BDF80C30022BA7
:1085B0007FF603AFBDF81030012B01D800230593DF
:1085C000059BDBB2184607B05DF804FB082B0020C2
:1085D0006C320020443200207432002070320020BF
:1085E00000B587B003900291039B02229A7502990D
:1085F000039B1A1D002300930423074802F0B8F8D8
:108600000590059B002B01D1002301E048F20D638A
:10861000184607B05DF804FB082B002000B587B0B2
:1086200003900291039B1B69002B01D0032200E001
:108630000122039B9A75029B08331946039B03F1A1
:108640000C02002300930423074802F091F80590E0
:10865000059B002B01D1002301E048F20D63184671
:1086600007B05DF804FB00BF082B002000B587B001
:1086700003900291039B1B78032B01D1052200E09C
:108680000622039B9A75029B04331946039B03F150
:108690000802002300930423074802F069F80590BC
:1086A000059B002B01D1002301E048F20D63184621
:1086B00007B05DF804FB00BF082B002000B587B0B1
:1086C00003900B46ADF80A3003990023009304236E
:1086D0000D4A0E4802F04CF80590059B002B02D085
:1086E00048F20D630BE0BDF80A20094913469B00D0
:1086F00013449B000B44103301221A7000231846C8
:1087000007B05DF804FB00BF84580400082B00206C
:108710004432002000B589B0019002AB00221A60FB
:108720005A609A60019BDB6802930DF1160202AB5E
:1087300011461846FFF708FD0346002B12D0039B95
:108740000693069B9A88019BDA80069B1A88019BF8
:108750001A81039BBDF8162011461846FFF7AEFF9D
:10876000079002E048F209630793079B184609B097
:108770005DF804FB00B587B00190019B981D02AA2B
:108780000D4B0021FFF73AFD0590059B002B08D10A
:10879000039B094A928811461846FFF78FFF059000
:1087A00004E00822002104481CF06DFD059B1846DA
:1087B00007B05DF804FB00BF8432002000B587B02D
:1087C00003900291039B01229A75029B0C33184679
:1087D000039B1A69039BDB889B00002100910146E3
:1087E000074801F0C5FF0590059B002B01D1002330
:1087F00001E048F20D63184607B05DF804FB00BFC6
:10880000082B002082B0184B1B8901339AB2164BFB
:108810001A81154B00225A80134B00221A73002331
:10882000ADF8063018E0BDF80620104913469B004D
:1088300013449B000B441A78BDF80630002A0CBF85
:1088400001220022D1B2084A13440A469A72BDF8A6
:1088500006300133ADF80630BDF80630012BE2D901
:1088600000BF00BF02B070477432002044320020C5
:1088700084B0019000238DF80F300023ADF80C3048
:1088800031E0BDF80C301C4A13449B7A002B25D0F4
:10889000BDF80C30184A134400229A72BDF80C201F
:1088A000164913469B0013449B000B440C331B6872
:1088B000002B13D1BDF80C20104913469B00134424
:1088C0009B000B4410331B78002B07D0019BBDF895
:1088D0000C201A8001238DF80F3008E0BDF80C3011
:1088E0000133ADF80C30BDF80C30012BC9D99DF81F
:1088F0000F30184604B07047743200204432002014
:1089000008B5084B05221A70074B02229A80064BC5
:108910001B68194600230122044802F00BF80346A5
:10892000184608BD743200206C320020082B00204D
:1089300000B583B0164B5B88ADF80230BDF802205D
:10894000144913469B0013449B000B440C331B68D3
:10895000002B14D10E4B04221A70BDF802200D49D1
:1089600013469B0013449B000B4404331B681946B9
:1089700000230122084801F0DDFF019002E0FFF72B
:10898000BFFF0190019B184603B05DF804FB00BFD8
:108990007432002044320020082B002000B587B03C
:1089A000104B5B680593104B1A680F4B9B889B001C
:1089B00013440493059B5B880333ADF80E30094BD9
:1089C00003221A700499074B5A68BDF80E309B00B9
:1089D00000200090054801F0CBFE0346184607B082
:1089E0005DF804FB743200206C320020082B00205C
:1089F00000B583B00A4B5B880A491846FFF750FB65
:108A00000346002B03D0FFF7C9FF019002E0FFF7F8
:108A10008FFF0190019B184603B05DF804FB00BF77
:108A2000743200207832002008B50A4B06221A70F2
:108A3000084B5B881946084A0B469B000B449B0079
:108A4000134404331B681846FFF77AFA03461846A6
:108A500008BD00BF743200204432002008B5054B29
:108A600007221A70034B00225A60FFF751FA03469F
:108A7000184608BD7432002008B50D48FFF7F8FE0F
:108A8000034683F00103DBB2002B0BD0094B00221D
:108A90001A70084B00225A80064B00225A6041F699
:108AA0001D5302E0FFF7A4FF0346184608BD00BFB0
:108AB000763200207432002082B0094B5B6801934B
:108AC000019B5B880333ADF80230064B9A88BDF8F2
:108AD000023013449AB2034B9A8000BF02B0704731
:108AE000743200206C32002082B01E4B1B68019350
:108AF0001D4B5B8819461D4A0B469B000B449B008F
:108B0000134404331B68174A1360174B5B881946DC
:108B1000164A0B469B000B449B0013440433019AF6
:108B20001A60114B5B8819460E4B98880F4A0B460A
:108B30009B000B449B001344083302461A80094BE8
:108B400002229A80084B5B881946084A0B469B0014
:108B50000B449B001344103300221A7000BF02B074
:108B6000704700BF6C320020743200204432002075
:108B700008B51A4B1B78072B2CD801A252F823F00A
:108B8000A18B0200D58B0200D58B0200AD8B0200B9
:108B9000B98B0200C58B0200C58B0200CD8B020091
:108BA000FFF730FE0D4B01221A7014E0FFF784FF2F
:108BB0000A4B02221A700EE0FFF796FF074B0622BF
:108BC0001A7008E0054B07221A7004E0034B0122DB
:108BD0001A7000E000BF00BF08BD00BF7432002063
:108BE00000B587B00190009148F20E630593019B98
:108BF000002B05D0634B00225A604FF40643BCE0C3
:108C0000009B1B79032B00F2AB8001A252F823F0EA
:108C1000218C02002F8C0200BD8C0200DD8C020032
:108C2000009B01221A71FFF773F905909BE0002366
:108C30008DF813300023ADF810302BE0BDF8102074
:108C4000514913469B0013449B000B441B78022B95
:108C50001BD1BDF810204C4913469B0013449B00C8
:108C60000B4400221A7001238DF81330BDF8102038
:108C7000454913469B0013449B000B4404331B6877
:108C80001846FFF75DF9059008E0BDF81030013394
:108C9000ADF81030BDF81030012BCFD99DF813304E
:108CA00083F00103DBB2002B5CD0364B01221A703B
:108CB000344B00225A6041F61D535EE0009B0022B7
:108CC0001A71324B02229A80304B1B6819460023DE
:108CD00001222F4801F02EFE059044E0009B002267
:108CE0001A712A4B1B681846FFF72AF90590294B81
:108CF0005B88ADF80E30254B1B680293BDF80E2043
:108D0000214913469B0013449B000B4404331B680A
:108D10001E4A1360BDF80E201B4913469B001344E6
:108D20009B000B440433029A1A60BDF80E20174BC7
:108D30009888154913469B0013449B000B44083345
:108D400002461A80114B02229A80BDF80E200E496D
:108D500013469B0013449B000B4400221A7002E050
:108D600000BF00E000BF059B002B05D0054B002293
:108D70005A6048F20D6300E00023184607B05DF822
:108D800004FB00BF84310020443200206C320020FC
:108D9000082B00207432002000B587B001900091AC
:108DA000009B9B8A1A4613469B0013449B003B4A38
:108DB00013440493019B002B06D000990498FFF7FD
:108DC00089F84FF4064364E0049B5A68049B1B89AE
:108DD0009B0013440393009B9B7D062B4DD801A25F
:108DE00052F823F0298E02004D8E0200358E0200CB
:108DF000418E0200018E0200598E0200738E020025
:108E0000274B00225A60009B9B69254A1360254925
:108E10002348FFF799F9034683F00103DBB2002BE7
:108E200002D048F2096334E003990098FFF7D8FBB9
:108E3000059026E003990098FFF7F0FB059020E0ED
:108E400003990098FFF7BAFC05901AE0039900987F
:108E5000FFF70CFC059014E0009B06229A75104B5E
:108E60005B68104A128811461846FFF727FC0590E8
:108E700007E041F61D53059303E048F20E630593A6
:108E800000BF059B002B03D000990498FFF722F840
:108E9000059B184607B05DF804FB00BF4432002074
:108EA0008C3200209832002000B585B001900091EE
:108EB000019B002B02D04FF4064329E0009B1B7955
:108EC000022B1BD0022B1DDC002B02D0012B08D063
:108ED00018E0009B02221A710098FFF71BFC039018
:108EE00015E00098FFF746FC0390039B48F20962E7
:108EF00093420BD141F61D53039307E041F61D53F6
:108F0000039304E048F20E63039300E000BF039B69
:108F1000184605B05DF804FB00B585B00190019BD3
:108F2000002B02D04FF406433DE0214B1B7B002B6E
:108F300003D01F4B00221A7301E0FFF719FE1C4BF0
:108F40001B78013B062B29D801A252F823F000BF61
:108F50006D8F0200758F02007D8F0200858F0200E9
:108F60009D8F02008D8F0200958F0200FFF784FD18
:108F7000039017E0FFF73CFD039013E0FFF70EFDB1
:108F800003900FE0FFF7D4FC03900BE0FFF74CFDDC
:108F9000039007E0FFF762FD039003E048F20E63E1
:108FA000039300BF039B184605B05DF804FB00BFA8
:108FB0007432002000B589B00190404B1B68002B33
:108FC00005D13F48FFF7B0F903463C4A13603B4BDD
:108FD0001B68002B04D13B4940F29E5006F010FB69
:108FE000364B1B681B78013B052B2CD801A252F88D
:108FF00023F000BF0D9002001D9002001D900200A2
:109000002D9002002D9002003D9002002B4B1B681A
:1090100019460198FFF7E4FD019018E0274B1B6803
:1090200019460198FFF7B8FE019010E0234B1B682A
:1090300019460198FFF738FF019008E00198FFF703
:109040006BFF019003E048F20E63019300BF019BA8
:10905000002B2BD003AB00221A605A609A60DA60B2
:109060001A61019B41F61D52934201D0019B00E021
:1090700000230493114B1B6803AA11461846FEF700
:1090800043FD03AB1846FEF71FFD0C4B00221A6090
:10909000002301930A48FFF757F9FFF763F90346E6
:1090A00083F00103DBB2002B02D186E700BF00E0B2
:1090B00000BF00BF09B05DF804FB00BF9C32002078
:1090C000A03200201458040008B50121054800F022
:1090D000C6FD0346002B02D10020FFF76BFF00BF47
:1090E00008BD00BF8C31002000B583B00190019B0A
:1090F0005B681846FFF75EFF00BF03B05DF804FB36
:1091000000B58BB00390029101928DF803300023DB
:10911000ADF824300023ADF82630534B1B78DBB27A
:1091200083F00103DBB2002B02D048F2016397E029
:10913000029B002B02D148F2046391E0029B1B8842
:109140004FF6FF72934203D0029B5B88002B02D143
:1091500048F2036384E0029B5B681846FEF7A7FCB5
:10916000034683F00103DBB2002B02D048F2026316
:1091700076E0019B002B11D1029B9B68ADF8263055
:109180000DF11A02BDF8263011461846FEF7ECFE26
:109190000890089B002B09D0089B61E0019B1B886D
:1091A000ADF81A30019B5B88ADF8263005AB184648
:1091B000FFF796F80790079B002B0AD1BDF81A20FD
:1091C000BDF8263011461846FEF738FF48F207630F
:1091D00046E0079B9DF803201A70079B00229A75B2
:1091E000BDF81A20079B9A82029B5A68079B1A6156
:1091F000FEF74CFF0246079BDA60029B1A88079B2A
:109200001A81029B5A88079B9A80079BBDF82620EB
:10921000DA809DF80330032B06D1079B04229A7550
:10922000039B1A68079B9A61079BBDF824205A810B
:1092300005AB1846FFF76AF8039B002B0DD0039B84
:1092400000225A60079BDA68039B1A60039B002286
:109250009A72064B1A89039B1A81FFF735FF002388
:1092600018460BB05DF804FB8431002074320020F6
:1092700000B585B001900C4B1B68042B03D148F25C
:109280000B6303930BE0084B1B680849019A41F8F4
:1092900023200121044800F0FAFC00230393039BE0
:1092A000184605B05DF804FB903100209431002091
:1092B00084B040F6F8731B68B3F1FF3F02D10F4B47
:1092C0001B6802E040F6F8731B6803934FF080536D
:1092D0001B6902934FF080535B690193039BB3F1C9
:1092E000FF3F04D1019B029A02FB03F300E0039BC2
:1092F0000093009B184604B0704700BF1410001084
:1093000000B583B04FF440530193FFF7D1FF0346FC
:10931000054A1361044B1A69019BD31A024AD360B0
:1093200000BF03B05DF804FB082B002008B5FFF771
:10933000E7FF00220349044801F0D2F9034618462A
:1093400008BD00BFC45B0400082B002008B504481A
:109350001C238C22034900F09EFA00BF08BD00BF09
:1093600034320020A831002000B58BB002AB0022BF
:109370001A605A609A60DA601A61424B1B78DBB25D
:10938000002B05D002AB1846FEF79EFB002375E0CC
:109390003D4800F0ACFC0346002B01D000236DE0FB
:1093A000FFF7C4FF0990099B002B01D0099B65E0E2
:1093B000FFF7CCFFFEF7F0FF03468DF823309DF852
:1093C0002330062B08D0062B12DC002B01D0022BF9
:1093D0000ED148F20A6351E02A4B01221A70294B40
:1093E00000225A6002AB1846FEF76EFB002345E0F0
:1093F00000BF01AB1846FEF773FF0790079B002BD9
:1094000002D148F2076339E0079B01221A709DF8E8
:109410002330013B0A2B29D801A252F823F000BFC8
:109420004D9402006D9402004D9402006D94020070
:10943000659402006D940200659402006D94020030
:10944000559402005D94020055940200079B00228F
:109450001A710CE0079B03221A7108E0079B022295
:109460001A7104E0079B01221A7100E000BF01ABF2
:109470001846FEF74BFFFFF727FE002318460BB0F8
:109480005DF804FB843100208831002000B585B0F0
:1094900001900091019B002B02D0009B002B02D178
:1094A00048F204632AE00DF10A0319460198FEF719
:1094B0004BFE0346002B1FD0019B5B680393BDF856
:1094C0000A301A4613469B0013449B0008330D4A8A
:1094D000134404330121184600F0D9FB009B039A82
:1094E0001A60019B5B6803F10C02009B5A60019BB0
:1094F00001229A72002301E048F20963184605B080
:109500005DF804FB4432002000B585B00190019B5A
:10951000002B02D148F204633BE00DF10A03194627
:109520000198FEF711FE0346002B2ED0BDF80A303D
:1095300019461A4A0B469B000B449B0013440C33FC
:109540001B68002B1DD0019B9B7A002B19D0BDF806
:109550000A301A46114913469B0013449B000B44E2
:109560000C331B68591E0D4813469B0013449B0087
:1095700003440C331960019B00229A720023039369
:1095800006E048F20563039302E048F2096303939F
:10959000039B184605B05DF804FB00BF4432002071
:1095A00000B583B001900091022300220099019838
:1095B000FFF7A6FD0346184603B05DF804FB00B5AF
:1095C00083B001900091019B002B02D148F204630B
:1095D00006E00323002200990198FFF791FD03465E
:1095E000184603B05DF804FB00B585B00346ADF83E
:1095F00006301A4B1B78DBB283F00103DBB2002B81
:1096000002D048F2016324E0BDF806304FF6FF7245
:10961000934202D148F203631BE002AB1846FEF707
:109620005FFE0390039B002B02D148F2076310E01A
:10963000039B05221A70039B01221A71039BBDF83C
:109640000620DA8002AB1846FEF760FEFFF73CFD0D
:109650000023184605B05DF804FB00BF84310020EC
:1096600000B583B0154B1B78DBB283F00103DBB28E
:10967000002B02D048F201631BE06B461846FEF750
:109680002FFE0190019B002B02D148F2076310E0EE
:10969000019B06221A706B461846FEF737FE084BF0
:1096A0001B78002B02D0064B01221A73FFF70CFD2A
:1096B0000023184603B05DF804FB00BF843100208E
:1096C0007432002000B585B0029201930346ADF8D4
:1096D0000E300B46ADF80C3003A90DF10E00019BC6
:1096E000029AFEF78BFD0346184605B05DF804FBB1
:1096F00000B585B0034602910192ADF80E300DF130
:109700000E01019B029A0020FEF778FD03461846E1
:1097100005B05DF804FB00B585B0034602910192E7
:10972000ADF80E300DF10E00019B029A0021FEF7FC
:1097300065FD0346184605B05DF804FB82B0019054
:109740000091019B002B02D0009B002B02D148F21C
:10975000046304E0019B1A68009B1A60002318460A
:1097600002B0704786B001900091019B53E8011F41
:109770008AB2D88902449889824228BF121A18896D
:10978000824202BFBFF32F8F002307E0C2EA01022B
:1097900043E801200028E9D14FF001038DF80F3094
:1097A000059002910492029A009B1A609DF80F3076
:1097B000DBB2184606B0704784B00190019951E8B9
:1097C000013FC3EA034341E80132002AF7D1039283
:1097D000029300BF04B0704786B001900091019BD6
:1097E00053E8021F1FFAA1F2D888824202BFBFF3DA
:1097F0002F8F00230DE0D88902449889824228BF28
:10980000121AC1EA024243E802200028E8D14FF0D0
:1098100001038DF80F30059002910492029A009B8B
:109820001A609DF80F30DBB2184606B0704784B05E
:109830000190019951E8023FC3EA234341E8023213
:10984000002AF7D10392029300BF04B0704786B09C
:109850000190019B53E8021FDA88B1EB314F4FF0C2
:10986000000017BF89B242EA024241EA024204E024
:109870005968B1EB314F08BF012043E802210029AC
:10988000E8D18DF80F00059104929DF80F30DBB2FE
:10989000184606B0704784B00390029111461A46EC
:1098A0000B46ADF806301346ADF80430029B002B92
:1098B00001D10E231FE0BDF80630BDF80420B3FB34
:1098C000F2F101FB02F29B1A9BB2002B01D009239B
:1098D00011E0039B029A1A60039B00225A60039BCB
:1098E00000229A60039BBDF806209A81039BBDF875
:1098F0000420DA810023184604B0704700B585B013
:1099000001900198FFF7A3FF03468DF80F309DF8F3
:109910000F30002B01D0002300E01123184605B0C2
:109920005DF804FB00B585B001900091009B1946DD
:109930000198FFF717FF0346002B07D0019B1B6818
:10994000009A128813440393039B00E000231846F7
:1099500005B05DF804FB00B583B001900091009B59
:109960001A88009B5B889A4204D10198FFF724FF74
:10997000012300E00023184603B05DF804FB00B5A6
:1099800085B001900091009B19460198FFF724FFD4
:109990000346002B07D0019B1B68009A5288134492
:1099A0000393039B00E00023184605B05DF804FB19
:1099B00000B583B001900091009B1A88009B5B88E2
:1099C0009A4204D10198FFF732FF012300E00023FF
:1099D000184603B05DF804FB00B585B00190009116
:1099E000009B5B099B00019A1A44009B03F01F0334
:1099F000012101FA03F31946104600F0E8F803903C
:109A000000BF05B05DF804FB00B583B00190009184
:109A1000009B5B099B00019A1A44009B03F01F0303
:109A2000012101FA03F31946104600F0B8F8024686
:109A3000009B03F01F0322FA03F303F00103002B42
:109A400014BF01230023DBB2184603B05DF804FB0A
:109A500000B585B001900091009B5B099B00019AC5
:109A60001A44009B03F01F03012101FA03F3DB43B7
:109A70001946104600F0DBF8039000BF05B05DF812
:109A800004FB82B001900091009B5B099B00019A4E
:109A900013441A68009B03F01F0322FA03F303F038
:109AA0000103002B14BF01230023DBB2184602B0D0
:109AB000704700B58DB00190009100230B934BE0EF
:109AC0000B9B9B00019A13441B68DB430793079B86
:109AD00093FAA3F30693069B0893089B002B01D1EE
:109AE000202303E0089BB3FA83F3DBB20A932BE055
:109AF0000B9B5B010A9A13440993099A009B9A42B3
:109B000026D209990198FFF77FFF034683F00103EE
:109B1000DBB2002B01D0099B26E00B9B9B00019A36
:109B200013441B68DB430493049B93FAA3F303934E
:109B3000039B0593059B002B01D1202303E0059B8C
:109B4000B3FA83F3DBB20A930A9B1F2BD0D900E050
:109B500000BF0B9B01330B93009B013B5B0901335F
:109B60000B9A9A42ACD3009B18460DB05DF804FBEB
:109B700010B487B001900091019B009A53E8004F08
:109B8000104643E8000191F0000FF7D105940490CE
:109B90000391059B184607B05DF8044B704710B45D
:109BA00087B001900091019B009A53E8004F44EA6E
:109BB000020043E8000191F0000FF6D105940490F3
:109BC0000391059B184607B05DF8044B704710B42D
:109BD00087B001900091019B009A53E8004F44EA3E
:109BE000020043E8000191F0000FF6D105940490C3
:109BF0000391049B184607B05DF8044B704710B4FE
:109C000087B001900091019B009A53E8004F04EA4D
:109C1000020043E8000191F0000FF6D10594049092
:109C20000391059B184607B05DF8044B704710B4CC
:109C300087B001900091019B009A53E8004F04EA1D
:109C4000020043E8000191F0000FF6D10594049062
:109C50000391049B184607B05DF8044B704710B49D
:109C600087B001900091019B009A53E8004F04EBEC
:109C7000020043E8000191F0000FF6D10594049032
:109C80000391059B184607B05DF8044B704710B46C
:109C900087B001900091019B009A53E8004F04EBBC
:109CA000020043E8000191F0000FF6D10594049002
:109CB0000391049B184607B05DF8044B704710B43D
:109CC00087B001900091019B009A53E8004FA4EBEC
:109CD000020043E8000191F0000FF6D105940490D2
:109CE0000391049B184607B05DF8044B704700B51C
:109CF00083B0019001210198FFF751FF03461846F8
:109D000003B05DF804FB00B583B001900121019818
:109D1000FFF75DFF0346184603B05DF804FB00B58E
:109D200083B0019000210198FFF769FF03461846B0
:109D300003B05DF804FB000000B583B001900B4652
:109D40008DF80330019B002B03D10849E82005F072
:109D500057FC019BDA689DF803300199098A01FBE1
:109D600003F31344184603B05DF804FB885804005D
:109D700000B583B001900091019B002B03D10849ED
:109D8000F52005F03DFC009B019AD2689B1A019AD0
:109D9000128AB3FBF2F3DBB2184603B05DF804FBA2
:109DA0008858040000B585B00190019B002B01D1BB
:109DB0000E234CE0019B1B68002B03D12649FF209A
:109DC00005F01EFC019B5B68002B04D122494FF477
:109DD000807005F015FC019B9B68002B04D11E4987
:109DE00040F2011005F00CFC019BDB68002B04D154
:109DF00019494FF4817005F003FC019B1B8A002B6D
:109E000004D1154940F2031005F0FAFB019B9A6852
:109E1000019B5B68D31A8DF80F30019B1B68019A78
:109E200052681A6007E0019B1A681368591C116098
:109E30009DF80F201A709DF80F305A1E8DF80F20D4
:109E4000002BF0D1019B1B6800221A7100231846D9
:109E500005B05DF804FB00BF8858040000B585B06C
:109E60000190019B002B04D11F494FF4927005F023
:109E7000C7FB0023039300238DF80A300DF10A037A
:109E80001846FDF7C7FD019B1B681A68019B5B68BC
:109E90009A421FD9019B1B681A68013A1A601B6815
:109EA0001B7819460198FFF747FF0390019B9A68BA
:109EB000019B1B681B68D31A8DF80B30019B1B6834
:109EC0001B799DF80B209A4204D9019B1B689DF8D1
:109ED0000B201A719DF80A301846FDF7B1FD039B5F
:109EE000184605B05DF804FB8858040010B584B02E
:109EF00001900091019B002B04D1154940F24710BD
:109F000005F07EFB009B002B04D111494FF4A47097
:109F100005F076FB009B039300238DF80B300DF1C9
:109F20000B031846FDF776FD019B1B681C68621C3D
:109F30001A6003990198FFF71BFF034623709DF8F1
:109F40000B301846FDF77CFD00BF04B010BD00BF0C
:109F50008858040000B583B00190019B002B03D109
:109F60000C49312005F04CFB019B9B68002B0CD069
:109F7000019B5B69019A1069019A1168019A9268C4
:109F80009847019B00229A6000E000BF03B05DF893
:109F900004FB00BFF05804000EB400B584B001907B
:109FA000019B002B03D11849422005F029FB019B9E
:109FB0005B69002B03D11449432005F021FB019B71
:109FC0001B68002B03D11049442005F019FB019BAD
:109FD0005B68002B03D10C49452005F011FB059B64
:109FE000002B0AD00023039306AB039303AB1A465E
:109FF0000599019800F0B0F900E000BF04B05DF8E9
:10A0000004EB03B0704700BFF058040000B583B004
:10A0100001900B468DF80330019B1A68019B9B68E9
:10A02000581C0199886013449DF803201A70019B05
:10A030009A68019B5B689A4202D30198FFF78AFFF6
:10A0400000BF03B05DF804FB00B587B00390029138
:10A050000192009300230593009B03F00103002B62
:10A0600024D00BE0029B01330293059B013305933F
:10A070009DF8133019460398FFF7C8FF029B1B7821
:10A080008DF813309DF81330002BEBD106E0019BC7
:10A09000013B019320210398FFF7B8FF019A059B2C
:10A0A0009A422ED9019B002BF1D12AE0029B002B72
:10A0B0000BD002981BF03CF9059006E0019B013B98
:10A0C000019320210398FFF7A1FF019A059B9A4273
:10A0D0000FD9019B002BF1D10BE0029B01330293BE
:10A0E000059B013305939DF8133019460398FFF73C
:10A0F0008DFF029B1B788DF813309DF81330002BD9
:10A10000EBD100BF07B05DF804FB000000B589B0DB
:10A110000390029101920093029B079301230693FF
:10A1200007E0079A019BB2FBF3F30793069B013309
:10A130000693079A019B9A42F3D2009A069B9A4291
:10A1400001D9009B06930B9B03F00103002B22D146
:10A150000A9B002B1FD00B9B03F00203002B06D0A1
:10A16000009B002B03D130238DF8173002E0202311
:10A170008DF8173008E00A9B013B0A939DF81730D1
:10A1800019460398FFF742FF0A9B002B03D0069A5B
:10A190000A9B9A42EFD301230793009B012B03D91B
:10A1A000009B013B009309E0029A079BB2FBF3F38B
:10A1B0000493049A019B9A4200D205E0079B019AFE
:10A1C00002FB03F30793E8E7029A079BB2FBF3F362
:10A1D0000493049B079A02FB03F3029AD31A029397
:10A1E000154A049B13441B7819460398FFF70EFF8A
:10A1F000079A019BB2FBF3F30793079B002BE3D174
:10A200000B9B03F00103002B11D00A9B002B0ED0F7
:10A2100006E00A9B013B0A9320210398FFF7F6FE14
:10A220000A9B002B03D0069A0A9B9A42F1D300BFE7
:10A2300009B05DF804FB00BFB859040000B589B04F
:10A240000590049103920293049B002BB8BF5B42DC
:10A2500006930123079307E0039B069A92FBF3F30F
:10A260000693079B01330793039B069A9A42F3DAFE
:10A27000029A079B9A4201D9029B07930A9B002BE3
:10A280000AD0049B002B04DB0B9B03F00403002B80
:10A2900002D00A9B013B0A930B9B03F00203002BA5
:10A2A00002D0029B002B16D00B9B03F00103002B66
:10A2B00011D10A9B002B0ED006E00A9B013B0A93AA
:10A2C00020210598FFF7A2FE0A9B002B03D0079AD6
:10A2D0000A9B9A42F1D3049B002B07DA049B5B4252
:10A2E00004932D210598FFF791FE08E00B9B03F0E6
:10A2F0000403002B03D02B210598FFF787FE0B9B4F
:10A3000003F00203002B19D00B9B03F00103002B79
:10A3100014D1029B002B11D10A9B002B0ED006E01A
:10A320000A9B013B0A9330210598FFF76FFE0A9BB9
:10A33000002B03D0079A0A9B9A42F1D304990B9BF6
:10A3400001930A9B0093029B039A0598FFF7DEFE98
:10A3500000BF09B05DF804FB00B58FB00590049113
:10A360000392059B002B04D1AD4940F2522005F029
:10A3700047F9059B5B69002B04D1A9494FF415707F
:10A3800005F03EF9059B1B68002B04D1A44940F25F
:10A39000552005F035F9059B5B68002B04D1A049D9
:10A3A00040F2562005F02CF9049B002B00F093811D
:10A3B000049B1B788DF83730049B013304939DF880
:10A3C0003730002B00F07E819DF83730252B40F090
:10A3D0006D8100230A9301230C93049B1B788DF855
:10A3E00037309DF83730302B0DD0302B1BDC2B2B2A
:10A3F00011D02D2B17D10A9B43F001030A93049B24
:10A400000133049312E00A9B43F002030A93049B76
:10A41000013304930AE00A9B43F004030A93049B6C
:10A420000133049302E000230C9300BF0C9B002B2C
:10A43000D3D1002309939DF837302A2B0CD1039BED
:10A440001B68191D039A11601B68099A134409932C
:10A45000049B013304931AE0049B1B788DF837307A
:10A460009DF837302F2B12D99DF83730392B0ED865
:10A47000049B01330493099A13469B0013445B0029
:10A480001A469DF837301344303B0993D3E7002335
:10A490000B93049B1B788DF837309DF837302E2BAB
:10A4A0001DD1049B01330493049B1B788DF8373036
:10A4B0009DF837302F2B12D99DF83730392B0ED815
:10A4C000049B013304930B9A13469B0013445B00D7
:10A4D0001A469DF837301344303B0B93E4E7049B56
:10A4E0001B788DF837309DF837306C2B03D09DF8F2
:10A4F0003730682B07D1049B01330493049B1B78EE
:10A500008DF83730EFE79DF83730252B00F0C48009
:10A51000252BC0F2C680782B00F3C380582BC0F2E5
:10A52000C080583B202B00F2BC8001A252F823F0DF
:10A5300025A60200A3A60200A3A60200A3A602006D
:10A54000A3A60200A3A60200A3A60200A3A60200DF
:10A55000A3A60200A3A60200A3A60200B5A50200BE
:10A56000D7A50200A3A60200A3A60200A3A602008C
:10A57000A3A60200D7A50200A3A60200A3A602007C
:10A58000A3A60200A3A60200A3A60200A3A602009F
:10A5900065A60200A3A60200A3A6020049A6020027
:10A5A000A3A60200FBA50200A3A60200A3A6020028
:10A5B00025A60200039B1B68191D039A11601B68E6
:10A5C0000C930C9B8DF81F309DF81F301946059891
:10A5D000FFF71CFD66E0039B1B68191D039A1160C1
:10A5E0001B680C930A9B0193099B00930B9B0A2207
:10A5F0000C990598FFF722FE54E0039B1B68191D78
:10A60000039A11601B680C930C990A9B0193099B98
:10A6100000930B9B0A220598FFF778FD42E000BFEC
:10A6200050590400039B1B68191D039A11601B6895
:10A630000C930C990A9B0193099B00930B9B10228E
:10A640000598FFF763FD2DE0039B1B68191D039A16
:10A6500011601B6808930A9B099A08990598FFF7EF
:10A66000F3FC1FE0039B1B68191D039A11601B6814
:10A670000C9330210598FFF7C9FC78210598FFF766
:10A68000C5FC0C9900230193082300930823102292
:10A690000598FFF73BFD05E025210598FFF7B6FC7F
:10A6A00000E000BF049B0133049305E09DF83730C0
:10A6B00019460598FFF7AAFC049B1B78002B7FF432
:10A6C00077AE00E000BF059B1B7B002B04D00598F4
:10A6D000FFF740FC00E000BF0FB05DF804FB00BFD7
:10A6E00000B587B0059004910392059B002B10D113
:10A6F000194A1A4BD31ADB081B0443F00100184A0D
:10A7000018490E2300930B461749FCF700FB0E2354
:10A710001DE0049B002B10D10F4A104BD31ADB080D
:10A720001B0443F00100114A0E490E2300930B460F
:10A730000D49FCF7ECFA0E2309E0059B049A1A6018
:10A74000059B1B681B6803990598984703461846A4
:10A7500007B05DF804FB00BF7854040038540400CF
:10A76000D85904007C5B0400E05904000C5A040032
:10A7700010B586B00590049103920293059B002BBF
:10A7800010D1604A604BD31ADB081B0443F0010070
:10A790005E4A5F490E2300930B465E49FCF7B7FA09
:10A7A0000E23ABE0039B002B10D1564A564BD31A15
:10A7B000DB081B0443F00100574A55490E23009360
:10A7C0000B465449FCF7A3FA0E2397E0059B1B6840
:10A7D000002B10D14B4A4C4BD31ADB081B0443F01F
:10A7E00001004E4A4A49082300930B464949FCF7A9
:10A7F0008EFA082382E0029B002B10D1414A424B83
:10A80000D31ADB081B0443F00100454A40490923E1
:10A8100000930B463F49FCF77AFA09236EE0059B4B
:10A820005B685A68029BB3FBF2F101FB02F29B1AD0
:10A83000002B10D0334A344BD31ADB081B0443F0EF
:10A840000100384A3249092300930B463149FCF78D
:10A850005EFA092352E0049800F01EF90346002B2B
:10A8600010D1284A284BD31ADB081B0443F00100FF
:10A870002D4A2749102300930B462649FCF747FA37
:10A8800010233BE0039B184600F006F90346002B1B
:10A8900010D11C4A1C4BD31ADB081B0443F00100E7
:10A8A000224A1B49102300930B461A49FCF72FFA42
:10A8B000102323E0029A0499059800F0D3F8034688
:10A8C000002B10D10F4A104BD31ADB081B0443F0A6
:10A8D0000100174A0E49102300930B460D49FCF75F
:10A8E00016FA10230AE0059B1B68DC68089B00939E
:10A8F000029B039A04990598A0470346184606B0A0
:10A9000010BD00BF7854040038540400D859040026
:10A91000905B0400E05904006C5A0400145A0400CF
:10A92000285A0400745A0400A05A0400B85A0400BB
:10A93000DC5A040010B586B005900491039202938E
:10A94000059B002B10D13E4A3E4BD31ADB081B045B
:10A9500043F001003C4A3D490E2300930B463C491D
:10A96000FCF7D5F90E2368E0059B1B68002B10D17E
:10A97000334A344BD31ADB081B0443F00100354A39
:10A980003249082300930B463149FCF7C0F90823EC
:10A9900053E0039B002B10D1294A2A4BD31ADB0822
:10A9A0001B0443F001002C4A2849092300930B465D
:10A9B0002749FCF7ACF909233FE00499059800F01A
:10A9C00078F80346002B10D11D4A1E4BD31ADB0822
:10A9D0001B0443F00100214A1C49102300930B463D
:10A9E0001B49FCF794F9102327E0059B5B681B6863
:10A9F000039A02FB03F31A460499059800F032F813
:10AA00000346002B10D10E4A0E4BD31ADB081B0451
:10AA100043F00100124A0D49102300930B460C49E4
:10AA2000FCF775F9102308E0059B1B681C69029B65
:10AA3000039A04990598A0470346184606B010BD2E
:10AA40007854040038540400D8590400A45B04006E
:10AA5000E0590400145A0400285A0400045B04005E
:10AA60002C5B040084B0039002910192039BDB688D
:10AA7000029A9A4209D3029A019B13445A1E039BDD
:10AA80001B699A4201D8012300E0002303F001036F
:10AA9000DBB2184604B0704782B00190019B03F00E
:10AAA0000303002B0CBF01230023DBB2184602B0C6
:10AAB000704782B001900091019B5B681B685A1E31
:10AAC000009B1340002B0CBF01230023DBB2184670
:10AAD00002B0704729DF704700BF184628DF704773
:10AAE00000BF184600B589B001900091019B1B681A
:10AAF0009B68002B35D002AB00221A605A609A6026
:10AB0000DA601A615A61009B0393019B9B6807936B
:10AB1000019B1B79002B02D0012B0DD01AE00123E1
:10AB20008DF80830019B1B690493019BDB6805933A
:10AB3000019B5B6906930DE002238DF80830019BB1
:10AB4000DB684FF4805202FB03F30493019B5B69C3
:10AB5000069300BF019B1B689B6802AA104698479A
:10AB600000E000BF09B05DF804FB00B587B00190BC
:10AB7000019B5A69019B9B69D31AB3F5805F28BF7B
:10AB80004FF4805305930422059BB3FBF2F3012B92
:10AB900038BF01230593019B1A69019B9B691344EC
:10ABA0000493019BDB681A46019B9B691344039342
:10ABB000059A03990498FFF78DFF0346184607B0DE
:10ABC0005DF804FB00B583B00190019BDA68019B3E
:10ABD0001B6913441846FFF781FF0346184603B06C
:10ABE0005DF804FB08B5034B03491846FEF7E0FE89
:10ABF00000BF08BD303300205833002008B5084B93
:10AC000008491846FEF7BBFE0346074A1360064B89
:10AC10001B68002B14BF01230023DBB2184608BDBC
:10AC200030330020583300205433002000B583B067
:10AC30002A4B1B7A002B0BD1FFF7E0FF034683F072
:10AC40000103DBB2002B03D0244B00225A6042E008
:10AC5000224B02221A72224B1B681B79002B02D056
:10AC6000012B07D00DE01E4B1B681846FFF77DFF38
:10AC7000019009E01A4B1B681846FFF7A3FF0190EB
:10AC800002E00323019300BF019B002B03D0019B33
:10AC9000112B0CD00FE0114B1B7C83F00103DBB2B6
:10ACA000002B17D00021022000F060F912E00B4BBE
:10ACB00001221A720FE00A4B1B6803211846FFF7A6
:10ACC00011FF064B00221A72044B00225A60FFF754
:10ACD00089FF00E000BF03B05DF804FB40330020B3
:10ACE0005433002008B50848FFF701F80346002B4D
:10ACF00008D1064B5B7C83F00103DBB2002B01D053
:10AD0000FFF794FF00BF08BD44330020403300200C
:10AD100084B001901B4B0022DA60019B1B79002B51
:10AD200002D0012B19D028E0019B5A69019B9B6935
:10AD3000D31AB3F5805F28BF4FF480530393019B70
:10AD40009A69039B1A44019B9A61019B9A69019B32
:10AD50005B699A420ED1012310E0019B1B695A1CCA
:10AD6000019B1A61019B1A69019B5B699A4203D19D
:10AD7000012303E000BF00E000BF0023184604B039
:10AD8000704700BF4033002082B00190084BDB6861
:10AD90000133074AD360064BDB68082B04D9044B08
:10ADA0000022DA60012300E00023184602B0704759
:10ADB0004033002000B583B001900091019B0C4A04
:10ADC0005A600C48FEF793FF0346002B0BD119F095
:10ADD00011FF03461A46074B1A7407481C238C229E
:10ADE0000649FEF758FD0023184603B05DF804FB42
:10ADF000B85B04004033002030330020A432002030
:10AE000000B583B0019000911422002105481AF08A
:10AE10003AFA054B1846FEF771FD0023184603B0B9
:10AE20005DF804FB403300203033002000B587B0CC
:10AE30000390029101920093174A04AB1946104601
:10AE4000FEF770FD0590059B002B01D104231FE048
:10AE50001C22002105981AF016FA059B00221A718F
:10AE6000059B039A1A60059B089A9A60059B029AB3
:10AE70001A61059B019ADA60059B009A5A61064A9D
:10AE800004AB19461046FEF766FDFFF72BFF0023C3
:10AE9000184607B05DF804FB3033002000B585B0DC
:10AEA0000390029101920093029B009A1946019827
:10AEB0001AF0C0F90023184605B05DF804FB000045
:10AEC00000B587B00390029101920093184A04AB39
:10AED00019461046FEF726FD0590059B002B01D173
:10AEE000042320E01C22002105981AF0CCF9059BD0
:10AEF00001221A71059B039A1A60059B009A9A60B9
:10AF00004FF48052029BB3FBF2F2059BDA60059B83
:10AF1000019A5A61064A04AB19461046FEF71BFD1A
:10AF2000FFF7E0FE0023184607B05DF804FB00BF02
:10AF30003033002082B001900091009B184602B08F
:10AF4000704782B0019000910023184602B070470C
:10AF500082B00190044B1B7A002B14BF0123002305
:10AF6000DBB2184602B070474033002000B585B010
:10AF700001900091019B022B02D0019B032B48D131
:10AF8000274B1B7A022B05D0022B35DC002B42D03D
:10AF9000012B31E000238DF80F30019B022B03D0F1
:10AFA000019B032B09D011E01E4B1B681846FFF7CD
:10AFB000AFFE03468DF80F3008E01A4B1B681846A9
:10AFC000FFF7E2FE03468DF80F3000BF9DF80F300B
:10AFD000002B10D0124B00221A72124B1A68019BE0
:10AFE000022B01D1002300E00D2319461046FFF784
:10AFF00079FDFFF7F7FD00BF094B5B7C83F0010390
:10B00000DBB2002B02D0FFF711FE05E019F0D6FDF0
:10B0100002E000BF00E000BF05B05DF804FB00BF28
:10B02000403300205433002082B0034600918DF855
:10B030000730064B01225A74044B1B7A002B0CBFBD
:10B0400001230023DBB2184602B0704740330020D2
:10B0500000B583B0034600918DF807309DF80730A6
:10B06000012B03D09DF80730032B0DD1084B002294
:10B070005A749DF80730012B0CBF01230023DAB26C
:10B08000034B1A74FFF7D2FD00BF03B05DF804FB59
:10B090004033002000B583B001900198FEF782FE96
:10B0A0000346184603B05DF804FB00B58BB0019071
:10B0B0000091019B1B8A043B0793009A079B134452
:10B0C000DA1C079BB2FBF3F38DF81B300198FEF7F7
:10B0D000C5FE0590059B002B01D1002338E0059BA0
:10B0E00000221A71059B01225A71079B9AB2059B97
:10B0F000DA80059B09939DF81B30013B0493099B63
:10B10000019A1A60002308931DE00198FEF7A6FE3D
:10B110000390039B002B0ED0059B5B790133DAB2C1
:10B12000059B5A71099B039A1A60039B019A1A6046
:10B13000039B099304E0059800F00EF8002307E054
:10B14000089B01330893089A049B9A42DDD3059B20
:10B1500018460BB05DF804FB00B58BB00190019B65
:10B160000793079B5B798DF81B30019B08939DF833
:10B170001B30013B05930023099305E0089B1B68E6
:10B180000893099B01330993099A059B9A42F5D3C9
:10B19000089B1B680493019B0893002309930BE011
:10B1A000089B1B68039308990498FEF79FFE039B76
:10B1B0000893099B013309939DF81B30099A9A4221
:10B1C000EED300BF00BF0BB05DF804FB00B585B047
:10B1D0000190019B0393039B043301211846FEF762
:10B1E00056FD00BF05B05DF804FB00B587B00190C7
:10B1F000019B0593059B043301211846FEF75FFD73
:10B200000346039303AB0493049B1B78002B02D1EA
:10B210000198FFF7A1FF00BF07B05DF804FB000035
:10B2200000B591B00390029101920093039B002B13
:10B2300003D14349B62004F0E3F9039B0993039B30
:10B240000F93099BDB881A46099B5B7902FB03F38A
:10B25000043B0893009A089B9A4203D33849C420C0
:10B2600004F0CEF9099BDB880793009B1A1D079B0E
:10B27000B2FBF3F30E93009B0433079AB3FBF2F295
:10B28000079901FB02F29B1A0D93019B1A68009B20
:10B290001344089A9A4203D2089A009BD31A01E0F9
:10B2A000019B1B680C93019B0C9A1A6005E00F9B95
:10B2B0001B680F930E9B013B0E930E9B002BF6D148
:10B2C00000230B93079A0D9BD31A0A930A9A0C9B9F
:10B2D000934228BF13460A932AE0029A0B9B134419
:10B2E00006930F9A0D9B1344043305939DF8483041
:10B2F000002B05D00A9A0599069819F09BFF04E0E7
:10B300000A9A0699059819F095FF00230D930F9B53
:10B310001B680F930C9A0A9BD31A0C930B9A0A9BE7
:10B3200013440B93079A0C9B934228BF13460A932E
:10B330000C9B002BD1D100BF00BF11B05DF804FB06
:10B34000E45B040000B589B0059004910392029378
:10B35000039B079307AA00230093029B0499059877
:10B36000FFF75EFF079B039A9A4203D00349F6203A
:10B3700004F046F900BF09B05DF804FBE45B04008B
:10B3800000B589B00590049103920293039B079343
:10B3900007AA01230093029B04990598FFF740FF39
:10B3A000079B039A9A4204D004494FF4807004F03A
:10B3B00027F900BF09B05DF804FB00BFE45B04009F
:10B3C00082B003468DF807309DF90730002B0DDB66
:10B3D0009DF8073003F01F0206499DF907305B090D
:10B3E000012000FA02F2603341F8232000BF02B0CE
:10B3F000704700BF00E100E0BFF34F8F00BF064B76
:10B40000DB6803F4E0620449044B1343CB60BFF3F1
:10B410004F8F00BF00BFFDE700ED00E00400FA051C
:10B4200000B583B00190019B002B03D10449C420D7
:10B4300004F0E6F8019B5B68184603B05DF804FB76
:10B440004C5C040000B583B00190019B002B03D13C
:10B450000649722004F0D4F8019B00221A60BFF361
:10B460005F8F00BF00BF03B05DF804FBD05C040039
:10B4700000B585B00190019B002B03D10A498520BE
:10B4800004F0BEF801210198FEF772FB0390BFF3B0
:10B490005F8F00BF039B002B0CBF01230023DBB297
:10B4A000184605B05DF804FBD05C040000B583B01D
:10B4B0000190019B002B03D10A49922004F0A0F8CF
:10B4C000019B1B68012B03D00649932004F098F8D8
:10B4D000BFF35F8F00BF019B00221A6000BF03B063
:10B4E0005DF804FBD05C040033DF704700BF1846F2
:10B4F00041DF704700BF18464FF080430122C3F878
:10B500000025BFF34F8F00BF20BFFDE700B585B01A
:10B5100000238DF807300DF107031846FCF77AFA7F
:10B52000F1EE103A0393039B23F09F030293029BD7
:10B53000E1EE103A00BFBFF35F8F00BF2620FFF798
:10B540003FFF9DF807301846FCF77AFA039B03F09B
:10B550000703002B03D004497D2004F051F800BFFD
:10B5600005B05DF804FB00BF405D040008B5064B64
:10B5700000221A700548FFF765FF0549054800F0ED
:10B58000D5F80023184608BD64330020603300203E
:10B59000AC5D04006833002000B583B0FFF7B6FF50
:10B5A00019F028FB0346002B0ED0FFF7A1FF0190F6
:10B5B000019B002B0BD0019B022B08D006494FF4B6
:10B5C000B07004F01DF802E020BF40BF20BF00BFF4
:10B5D00003B05DF804FB00BF405D040000B583B01C
:10B5E0000FE02248FFF71CFF0190019B1B68204AD7
:10B5F0001278104698470346002B32D01B4800F0C3
:10B60000BFF81A48FFF70CFF0346002BE9D1FBF700
:10B61000BBFE00BFFBF776FC0346002BFAD1144BB0
:10B620001B78032B03D0124B1B78022B01D1FFF7A1
:10B63000E3FE19F0DFFA0346002B0FD0FFF754FFAB
:10B640000090009B002B07D0009B022B04D00949DF
:10B650004FF4D17003F0D4FF20BFFDE7FFF74CFF9C
:10B6600000E000BF03B05DF804FB00BF68330020BA
:10B670005C330020405D040000B583B003468DF8C4
:10B6800007301748FFF7F4FE034683F00103DBB2EF
:10B69000002B21D19DF80730042B0ED0114B1B78C5
:10B6A000002B03D00E48FFF701FF16E00E4A9DF86D
:10B6B000073013700B4B01221A700A4B1B78002BBA
:10B6C00004D10A4940F2D51003F09AFFFFF786FF34
:10B6D0000348FFF7EBFE00E000BF03B05DF804FB9A
:10B6E00060330020643300205C330020405D0400A0
:10B6F00082B00190019B9B6800229A60019B9B682D
:10B7000000221A61019B9B6800225A61019B9B6881
:10B710000022DA60019B9B6800225A60019B9B68B3
:10B7200000221A6000BF02B07047000000B583B06D
:10B7300001900091019B002B03D11049502003F090
:10B740005FFF009B002B03D10C49512003F058FFF1
:10B75000019B009A1A60019B1B681A68019B5A6042
:10B76000019B5A68019B1B685B689A4202D1019B4E
:10B7700000225A6000BF03B05DF804FBB85D04000E
:10B7800000B583B00190019B002B03D114496320C5
:10B7900003F036FF019B1B68002B03D11049642086
:10B7A00003F02EFF019B5B68002B14D0019B5B68AC
:10B7B0001A46019B1B689B6813441A46019B5A60FA
:10B7C000019B5A68019B1B685B689A4204D1019BEC
:10B7D00000225A6000E000BF03B05DF804FB00BF28
:10B7E000B85D040000B585B00190019800F00EF836
:10B7F0000390039B002B01D0039B00E0024B1846F3
:10B8000005B05DF804FB00BFB45E040086B0019093
:10B81000164B0593164B04931FE0049A059BD31A0D
:10B82000DB10DA0F13445B10DB00059A134403931B
:10B83000039B1B680293029A019B9A4202D9039BC5
:10B8400004930AE0029A019B9A4203D2039B0833B5
:10B85000059302E0039B5B6804E0059A049B9A420F
:10B86000DBD30023184606B0704700BFB462040063
:10B87000DC630400BFF34F8F00BF064BDB6803F4AB
:10B88000E0620449044B1343CB60BFF34F8F00BF0A
:10B8900000BFFDE700ED00E00400FA0582B01A4B9E
:10B8A0001B68B3F1FF3F0AD1184B1B68DBB2019351
:10B8B000174B1B681B0903F00F03009305E0124BA5
:10B8C0001B680193134B1B680093019B062B17D138
:10B8D000009B033B032B13D801A252F823F000BFB7
:10B8E000F1B80200F5B80200F9B80200FDB8020094
:10B8F000012306E0012304E0012302E0012300E02C
:10B900000023184602B0704730010010E00F00F02D
:10B91000E80F00F03401001082B0144B1B68DBB25A
:10B920000193134B1B681B0903F00F030093019B4A
:10B93000062B17D1009B033B032B13D801A252F80F
:10B9400023F000BF55B9020059B902005DB90200E9
:10B9500061B90200012306E0002304E0002302E0B5
:10B96000002300E00023184602B07047E00F00F00B
:10B97000E80F00F082B01A4B1B68B3F1FF3F0AD109
:10B98000184B1B68DBB20193174B1B681B0903F0B4
:10B990000F03009305E0124B1B680193134B1B68C8
:10B9A0000093019B062B17D1009B033B032B13D85D
:10B9B00001A252F823F000BFC9B90200CDB90200BC
:10B9C000D1B90200D5B90200012306E0012304E049
:10B9D000012302E0012300E00023184602B0704773
:10B9E00030010010E00F00F0E80F00F0340100100B
:10B9F00082B0144B1B68DBB20193134B1B681B090D
:10BA000003F00F030093019B062B17D1009B033B10
:10BA1000032B13D801A252F823F000BF2DBA020065
:10BA200031BA020035BA020039BA0200012306E039
:10BA3000002304E0002302E0002300E00023184676
:10BA400002B07047E00F00F0E80F00F082B01A4B30
:10BA50001B68B3F1FF3F0AD1184B1B68DBB201939F
:10BA6000174B1B681B0903F00F03009305E0124BF3
:10BA70001B680193134B1B680093019B062B17D186
:10BA8000009B033B032B13D801A252F823F000BF05
:10BA9000A1BA0200A5BA0200A9BA0200ADBA02001A
:10BAA000012306E0012304E0012302E0012300E07A
:10BAB0000023184602B0704730010010E00F00F07C
:10BAC000E80F00F03401001082B0144B1B68DBB2A9
:10BAD0000193134B1B681B0903F00F030093019B99
