:020000022000DC
:106000000000012079630200616302006363020003
:10601000656302006763020069630200000000001C
:106020000000000000000000000000006B630200A0
:106030006D630200000000006F63020071630200E4
:106040004DE302007363020005C90200F1E10200A2
:10605000736302007363020001C8020073630200ED
:1060600073630200736302007363020073630200D0
:1060700073630200736302007363020073630200C0
:1060800073630200736302007363020073630200B0
:106090007363020073630200CDD8030073630200D0
:1060A0007363020073630200736302007363020090
:1060B0007363020073630200000000000000000030
:1060C00073630200736302007363020045EE020013
:1060D00035D1020073630200736302000000000008
:1060E00000000000000000000000000000000000B0
:1060F00000000000000000000000000000000000A0
:10610000000000000000000000000000000000008F
:10611000000000000000000000000000000000007F
:10612000000000000000000000000000000000006F
:10613000000000000000000000000000000000005F
:10614000000000000000000000000000000000004F
:10615000000000000000000000000000000000003F
:10616000000000000000000000000000000000002F
:10617000000000000000000000000000000000001F
:10618000000000000000000000000000000000000F
:1061900000000000000000000000000000000000FF
:1061A00000000000000000000000000000000000EF
:1061B00000000000000000000000000000000000DF
:1061C00000000000000000000000000000000000CF
:1061D00000000000000000000000000000000000BF
:1061E00000000000000000000000000000000000AF
:1061F000000000000000000000000000000000009F
:10620000364937480A1A02D0072291438D4635494C
:1062100035480A1A06D00722914381F309880222E1
:1062200082F3148831483249324A00F045F8324846
:106230003249334A00F040F832483349334A00F0DB
:106240003BF833483349344A00F036F83348344990
:10625000344A00F031F834483449354A00F02CF81B
:1062600034483549354A00F027F835483549002289
:1062700000F02DF834483549002200F028F8344861
:106280003449091A082903DB002202600430016046
:10629000314A90471F482049884205D0026804309F
:1062A00003B4904703BCF7E700208646EC46002085
:1062B00000212A4A9047FEE7884207D0521A05D0AB
:1062C000037801300B700131013AF9D170478842EF
:1062D00002D002700130FAE7704700000000012090
:1062E00000E000200000012000000120907904005F
:1062F00064220020D4220020D4630200D463020070
:10630000D4EF03009079040064220020642200206E
:106310003CF103003CF103003CF103003CF10300BD
:106320003CF103003CF103003CF103003CF10300AD
:1063300090790400007A0400D4220020D4220020A6
:10634000D4220020A4360020A4360020A836002045
:10635000A8360020A8560020A163020085EE0200A6
:10636000FEE7FEE7FEE7FEE7FEE7FEE7FEE7FEE705
:10637000FEE7FEE700F002B8FFF7FCBF0F484FF062
:106380000701884385460E4880470E48016841F45E
:1063900070010160BFF34F8FBFF36F8FFFF730BF06
:1063A00009480A490A4A884207D0521A05D0037898
:1063B00001300B700131013AF9D170470000012022
:1063C00081B4020088ED00E028F103005022002093
:0463D0006422002023
:1063D400004870479C36002000B585B00190019BB1
:1063E400002B0AD0074B43F001030393019B9B014D
:1063F4000293039B0298984700E000BF05B05DF844
:1064040004FB00BF50F1030000B583B00190019B71
:10641400002B0AD04FF47A70FFF7DEFF019B013B9B
:106424000193019B002BF5D100E000BF03B05DF8A0
:1064340004FB08B511F09AF800BF08BD00B589B097
:10644400039002910192019B002B33D00023079308
:1064540003230693029A079B1344019A19460020CA
:1064640011F036F80590079A059B13440793019A97
:10647400059BD31A0193059B002B13D10F4B1B785B
:1064840083F00103DBB2002B13D10120FFF7BCFF23
:10649400069B013B0693069B002B03D1074B00226E
:1064A4001A7007E0054B01221A70019B002BD1D111
:1064B40000E000BF00BF09B05DF804FBD422002057
:1064C40000B585B003900291054B00934023054A23
:1064D4000299039800F012F800BF05B05DF804FBC0
:1064E40041640200D822002082B0019000BF02B0B3
:1064F400704782B0019000BF02B0704700B5A1B0F0
:106504000590049103920293049804F0F4F9039B18
:106514001593029B16930023179300238DF8603084
:1065240000231993229B1A9300231F930FA91F9BE7
:106534000822049804F0B8FA08231F93119B1293BD
:10654400BDF84030ADF84C30BDF84230ADF84E30B7
:1065540000238DF851309DF83C3003F00303DBB287
:10656400012B26D10F9BC3F395231C939DF83C303C
:10657400C3F3C203DBB28DF85030BDF83C30C3F333
:106584008313DBB21B931B9B9A0009A91F9B0498DE
:1065940004F08AFA1B9B9B001F9A13441F9312AAB0
:1065A40009A915AB009313461B9A1C9800F09AFF97
:1065B4002FE09DF83C3003F00303DBB2022B28D11B
:1065C400BDF83E30C3F389139BB21E939DF83C3053
:1065D400C3F3C203DBB28DF850301E9B082B28BFD7
:1065E40008231D9307A91F9B1D9A049804F05CFAC5
:1065F4001F9A1D9B13441F931E9A1D9BD31A1E930F
:1066040015AB12AA07A81D9901F00EF81E9B002BCA
:10661400E3D1049804F07EF900BF21B05DF804FBD7
:1066240082B00190019BDB6801225A7100BF02B065
:106634007047000000B583B04FF0FF330193FFF7BC
:10664400F8FE0421084800F069FE0190019B002B2C
:1066540003DA0649412008F0FFFB0348FFF7E0FF97
:1066640000BF03B05DF804FB18F1030068F10300F8
:1066740000B583B001900091019B1B681B680099D1
:106684000198984700BF03B05DF804FB00B583B0E0
:106694000190019B1B685B680198984700BF03B099
:1066A4005DF804FB00B583B00190019B1B689B68F7
:1066B4000198984700BF03B05DF804FB82B00190D5
:1066C4000B468DF80330019BDB689DF803201A719B
:1066D40000BF02B0704782B00190019BDB681B7958
:1066E400184602B0704782B00190019BDB6801221A
:1066F4005A7100BF02B0704782B00190019BDB6801
:106704005B79184602B0704700B585B001900091DE
:106714000C4B01221A700C4804F052F80390039BAE
:10672400002B01D0039B08E0084804F073FB084ADF
:10673400084BD31ADB0802930023184605B05DF812
:1067440004FB00BF802400204CF00300E0F10300B0
:1067540018F1030060F00300024A034BD31ADB086C
:106764001846704718F1030060F0030000B587B0C5
:1067740001900B468DF803309DF80330002B1FD099
:10678400FFF7EAFF04900023059313E0059B9B00A9
:106794000E4A13440393039B1B881A46019B1B68F0
:1067A4009A4204D1019B059A1A60002309E0059BD3
:1067B40001330593059A049B9A42E7D3052300E02D
:1067C4000023184607B05DF804FB00BF64220020D4
:1067D40000B585B001900B468DF803309DF8032079
:1067E40001AB11461846FFF7C1FF0346002B07D142
:1067F400019BDB00054A13440393039B1B6800E0E1
:106804000023184605B05DF804FB00BF60F00300E8
:1068140084B001900B468DF80330019BDB00174ACE
:10682400134402939DF80330013B032B1CD801A2AF
:1068340052F823F0496802005168020059680200C6
:106844006368020002238DF80F3011E004238DF8F1
:106854000F300DE0029B1B798DF80F3008E0029B8E
:106864005B798DF80F3003E000238DF80F3000BF03
:106874009DF80F30184604B0704700BF60F0030065
:1068840084B00190009100238DF80F30019B1B7898
:1068940003F00403DBB2002B24D0019B1B78C3F369
:1068A4000103DBB2012B02D0022B0CD017E0009BBA
:1068B4001B68019A1288C2F38312D2B213449A1C41
:1068C400009B1A600BE0009B1B68019A5288C2F37C
:1068D400891292B213449A1C009B1A6000BF0123D0
:1068E4008DF80F309DF80F30184604B07047000043
:1068F40000B58BB00023ADF826303E4802F077FE99
:106904003D4802F074FE3D4B9B6804933C4B1B686E
:106914000693049A069B134002339B00374A1344A0
:106924000433089304AB19460898FFF7A9FF0346FC
:10693400002B09D0049A069B134002339B002F4A74
:10694400134404330893EDE700BF0023079311E0D9
:10695400049B5A1C0492069A1340079A920001A9B8
:106964000A44264902339B000B445B681360079B6F
:1069740001330793079B012BEAD99DF80430C3F335
:106984000103DBB2012B10D0022B1CD1BDF80A305D
:10699400ADF82630BDF80630C3F389139BB2033338
:1069A4009A08049B1344049313E0BDF80A30ADF82D
:1069B4002630BDF80430C3F38313DBB21A46049BBC
:1069C4001344049305E00F494FF4C27008F044FAED
:1069D40000BF094802F017FE0590059B002B02D06A
:1069E400049B064A9360BDF8263018460BB05DF848
:1069F40004FB00BF98280020942800208024002055
:106A04006C220020F0F1030000B585B00021074896
:106A140002F02EFD0390039B0293029B83F3100369
:106A24000193019B184605B05DF804FB9C280020E7
:106A340000B589B00390029101920093039B1B0C53
:106A44000793FFF7E1FF0690FFF786FE0246079BD8
:106A5400934204D3214940F2A91008F0FDF9069BA2
:106A64001904009B5A1C0A9B1340079A0A431C49A9
:106A740002339B000B445A60009A0A9B1340023372
:106A84009B00174A134404330593039B03F0070345
:106A9400D9B2059A137861F3C5031370019B03F00F
:106AA4000F03D9B2059A138861F389131380029BEB
:106AB400C3F31501059A136861F39F231360059AC4
:106AC4001378012161F301031370059A13786FF3AE
:106AD4008203137000BF09B05DF804FBF0F10300FA
:106AE4008024002000B58DB00390029113468DF8E8
:106AF4000730039B02330A9301238DF827300023C8
:106B04008DF81B300DF11B03184600F077FF404B46
:106B14005A68029B1A603F4B1A683D4B99683C4B7C
:106B24005B68CB1A134401330B9314E001213A48F8
:106B340002F02DFDFFF7DCFE07900799364802F0BE
:106B440026FD344B1A68324B9968314B5B68CB1A7B
:106B5400134401330B930A9A0B9B9A42E6D89DF88F
:106B64002730002B48D0002305939DF80730002BD5
:106B740017D09DF81430012262F301038DF814300C
:106B84009DF8143043F004038DF81430039B03F094
:106B94000F03DAB2BDF8143062F38913ADF8143080
:106BA40016E09DF81430022262F301038DF81430CC
:106BB4009DF8143043F004038DF81430039BC3F3A1
:106BC40009039AB2BDF8163062F38F13ADF816308C
:106BD4000F4B5A680F4B1B68134002339B000C4A3F
:106BE400134404330893059A089B1A60084B5A68A7
:106BF4000A9B1344064A53609DF81B30184600F064
:106C040013FF9DF8273018460DB05DF804FB00BF54
:106C1400802400206C2200209C28002000B58BB02A
:106C240005900491039202931F4B1B68079306ABD4
:106C3400012219460298FFF755FF0346002B24D082
:106C4400069B023309930023089311E0089B9B00E1
:106C5400039A1A44099B591C099107990B4012681D
:106C6400124902339B000B445A60089B013308937A
:106C7400089A029B9A42E9D3069A079B009313460B
:106C8400029A04990598FFF7D3FE084B1B78002B52
:106C940005D000BF00F03AF90346002BFAD100BF3B
:106CA4000BB05DF804FB00BF6C22002080240020A0
:106CB40000B583B00190009100230022009901984F
:106CC400FFF7ACFF00BF03B05DF804FB00B587B06D
:106CD400039002910192019B059305AA0123029955
:106CE4000398FFF79BFF00BF07B05DF804FB00B5F6
:106CF40087B00390029101920093019B0493009B3F
:106D0400059304AA022302990398FFF787FF00BFA3
:106D140007B05DF804FB00B589B0039002910192BD
:106D24000093019B0593009B06930A9B079305AA76
:106D3400032302990398FFF771FF00BF09B05DF8C0
:106D440004FB00B589B00390029101920093019B6A
:106D54000493009B05930A9B06930B9B079304AA39
:106D6400042302990398FFF759FF00BF09B05DF8A7
:106D740004FB00B58BB00390029101920093019B38
:106D84000593009B06930C9B07930D9B08930E9B06
:106D9400099305AA052302990398FFF73FFF00BF53
:106DA4000BB05DF804FB000000B58DB003900291B8
:106DB4001346ADF806304B4B1B680B93BDF80630F9
:106DC40003339B0805A900221846FFF78BFE0346F0
:106DD400002B78D0059B0A93059B02330593414B06
:106DE4001A6805990B9B0B40D31A01339B00099336
:106DF400BDF80630099A9A420ED3059A0B9B1340AC
:106E040002339B00384A13440433BDF80620029928
:106E1400184616F0A8FF17E0059A0B9B134002339F
:106E24009B00314A13440433099A0299184616F018
:106E34009AFF029A099BD118BDF80620099BD31A20
:106E44001A462A4816F08FFF039B1B0C0893FFF782
:106E5400DBFD0790079B19040A9B5A1C0B9B1340EC
:106E6400089A0A43204902339B000B445A600A9A49
:106E74000B9B134002339B001B4A134404330693B9
:106E8400039B03F00703D9B2069A137861F3C50391
:106E94001370069A13886FF38F131380BDF80630AE
:106EA400C3F3090399B2069A538861F38F1353808D
:106EB400069A1378022161F301031370069A13787A
:106EC4006FF382031370084B1B78002B05D000BFAF
:106ED40000F01CF80346002BFAD100BF0DB05DF89A
:106EE40004FB00BF6C220020802400208C2400209E
:106EF400054B9A68044B5B689A420CBF012300233C
:106F0400DBB21846704700BF8024002000B599B05A
:106F1400FFF7EEFF0346002B01D00023BEE19A4B9E
:106F24000022C3F81824BFF34F8F974B9B68049338
:106F3400964B1B681093049A109B134002339B00DA
:106F4400914A134404331193002317930023169397
:106F540000230F9304AB19461198FFF791FC0346E5
:106F6400002B19D0884BD3F81834002B14D1864B3E
:106F74005A68049B9A4205D8834B5B68824A9360A3
:106F840000238BE1049A109B134002339B007E4A3A
:106F9400134404331193DDE70023159311E0049B9C
:106FA4005A1C0492109A1340159A920001A90A449B
:106FB400754902339B000B445B681360159B0133D6
:106FC4001593159B012BEAD99DF8043003F00303B4
:106FD400DBB2022B40F09C80BDF80630C3F389136A
:106FE4009BB20D93BDF80630C3F389139BB2502BAB
:106FF40028BF50239BB20C930C9BC3F309039AB292
:10700400BDF8063062F38F13ADF806300C9B0833DD
:107014000B939DF80430C3F3C203DBB20F930B99B7
:107024005B4803F0D8FB1790179B002B00F0D2802D
:10703400179803F060FC01A9169B0822179803F027
:1070440015FD169B08331693049BDA43109B1340DB
:1070540001339B000A930C9A0A9B9A4242D90A9BD9
:10706400002B08D0049A109B134002339B00464A1D
:107074001344043300E0474B08930A9B002B02D0CF
:107084000A9BDBB201E00C9BDBB28DF81F300A9B3C
:10709400002B01D03F4B00E0002306930A9B002BFA
:1070A40006D00C9BDAB20A9BDBB2D31ADBB200E047
:1070B40000238DF817309DF81F20169B0899179808
:1070C40003F0D4FC9DF81F30169A13441693069BC4
:1070D400002B16D09DF81720169B0699179803F0DD
:1070E400C5FC0EE0049A109B134002339B00264A11
:1070F400134404330993169B0C9A0999179803F0C7
:10710400B5FC0D9B03339A08049B1344049361E07C
:107114009DF8043003F00303DBB2012B5AD1BDF810
:107124000430C3F38313DBB2062B28BF0623DAB281
:10713400BDF8043062F38913ADF80430BDF80430AF
:10714400C3F38313DBB202330E939DF80430C3F30D
:10715400C203DBB20F930E9B9B0019460C4803F04D
:107164003AFB1790179B002B34D0179803F0C3FBFE
:1071740001A9169B0822179803F078FC169B083384
:107184001693002315931CE0802400206C22002019
:107194004CF003008C240020049B5A1C0492109A87
:1071A400134002339B003F4A1344191D169B0422CB
:1071B400179803F05BFC169B04331693159B01335D
:1071C4001593BDF80430C3F38313DBB21A46159B41
:1071D4009342E1D3179B002B40D0324BD3F81034A9
:1071E4001493304BD3F81834002B1BD0179803F0AA
:1071F40091FB4DE000238DF84F301498FFF77CFA93
:107204000346002B02D001238DF84F309DF84F30F8
:10721400002B03D017991498FFF72AFA149BDB6804
:107224001B681493149B002BE4D1179803F072FB92
:1072340000238DF803300DF10303184600F0DEFB44
:10724400184BD3F81834002B02D1049B154A9360D1
:107254009DF80330184600F0E7FB19E0114BD3F812
:107264001034129306E01298FFF71CFA129BDB68A5
:107274001B681293129B002BF5D10B4A0B4BD31AAC
:10728400DB081B0443F0020309491846FFF710FD0D
:10729400FFF72EFE034683F00103DBB2184619B054
:1072A4005DF804FB8024002090F0030060F00300EC
:1072B40060F2030000B585B00023039323E0164B6E
:1072C400D3F81034029301238DF807300FE00298AD
:1072D400FFF701FA03461A46039B934203D10023A6
:1072E4008DF8073006E0029BDB681B680293029B63
:1072F400002BECD19DF80730002B01D0039B07E055
:10730400039B01330393039B092BD8DD4FF0FF3319
:10731400184605B05DF804FB8024002000B585B054
:1073240001900B468DF80330FFF7C4FF0390039BD5
:10733400B3F1FF3F01D1039B22E0039BDBB219466B
:107344000198FFF7BBF9104BD3F81034002B08D188
:107354000D4A019BC2F81034019BDB6800221A60BD
:107364000DE0094BD3F81034DA68019BDB6812682E
:107374001A60054BD3F81034DB68019A1A60039B3A
:10738400184605B05DF804FB8024002000B583B0E6
:107394000C4BD3F8103401930A4B01221A7009E004
:1073A4000198FFF7A0F90198FFF770F9019BDB68DA
:1073B4001B680193019B002BF2D100BF03B05DF861
:1073C40004FB00BF8024002082B00190009100BF24
:1073D40002B0704710B584B003900291039BDB8820
:1073E400002B0AD0039BDB881A461F4B00931346DD
:1073F4001E4A1F49029802F045FA039B1B7A052B8B
:107404002ED0039B5B7A002B12D0039B9B881A46D9
:10741400039B1B7A19461046FFF7FAF903461A46EE
:10742400144B53F822301A461349029802F02AFAF0
:10743400039B1B6819460298FFF7C6FF039B1B7A40
:107444001A460E4B53F82240039B9B880021184692
:10745400FFF7BEF9034622460949029802F012FAE0
:1074640000BF04B010BD00BF94F20300A4F20300F7
:10747400DCF2030084220020F4F2030070220020D6
:10748400F8F2030000B585B00390029113468DF81D
:107494000730039B1B7A052B0FD0039B5B7A002BD1
:1074A40006D00D4B1B681A460C49029802F0EAF903
:1074B4000B49029802F0E6F907E09DF80730002B2B
:1074C40003D00749029802F0DDF9029802F0B8F9F6
:1074D40000BF05B05DF804FB84220020F4F2030031
:1074E40004F3030030B58BB0079006910592049322
:1074F4000E9B1B7B8DF827300E9B00221A730E996E
:107504000498FFF767FF059B062B7FD801A252F86A
:1075140023F000BF357502003F7502004F7502006D
:107524006375020081750200A9750200D975020015
:1075340007990E9802F0A6F969E0069B1B681A46A3
:1075440007990E9802F09EF961E0069B1A68069B63
:1075540004331B6807990E9802F094F957E0069BD0
:107564001A68069B04331968069B08331B6800934A
:107574000B4607990E9802F085F948E0069B1968B6
:10758400069B04331868069B08331B68069A0C3262
:1075940012680192009303460A4607990E9802F076
:1075A40071F934E0069B1868069B04331C68069B3B
:1075B40008331B68069A0C32126806991031096860
:1075C4000291019200932346024607990E9802F015
:1075D40059F91CE0069B1C68069B04331D68069B36
:1075E40008331B68069A0C32126806991031096830
:1075F40006981430006803900291019200932B4680
:10760400224607990E9802F03DF900E000BF0022DF
:107614000E990498FFF736FF0E9B9DF827201A73E6
:1076240000BF0BB030BD00BF00B587B0039002911E
:1076340001920093029B082B60D8009B1B7B8DF862
:107644001330009B00221A7300990198FFF7C2FEC1
:107654000023059314E0059A029B9A4209D2039AE7
:10766400059B13441B781A462649009802F00AF930
:1076740003E02549009802F005F9059B01330593C1
:10768400059B072BE7D92149009802F0FBF800235A
:10769400059326E0059A029B9A421BD2039A059B06
:1076A40013441B788DF812309DF812307E2B0AD8C3
:1076B4009DF81230184616F0EBFA0346002B02D060
:1076C4009DF8123000E02E231A461149009802F06A
:1076D400D9F803E00F49009802F0D4F8059B013370
:1076E4000593059B072BD5D9012200990198FFF733
:1076F400C9FE009B9DF813201A7300E000BF07B079
:107704005DF804FB08F3030010F3030014F3030013
:1077140018F303001CF3030086B003900291019256
:1077240001238DF817309DF817301F4A039B13600F
:107734001D4A029B53601C4A019B9360039B44F2C5
:107744000102934211D044F20202934220D1019BE0
:10775400154AD360144BDB681B68134A9361124BC0
:10776400DB685B68104AD36112E0019B0E4A136127
:107774000D4B1B699B680C4A53610B4B1B691B68BF
:10778400094A9361084B1B695B68074AD36100BFD0
:1077940072B600BF9DF81730DBB2002BFAD162B687
:1077A40000BF06B0704700BFA028002000B583B01A
:1077B40002900091019244F2010071466A4600F081
:1077C40003F803B000BD00BF30B58BB0079006913D
:1077D400059272B6FFF7DAFD00BFFFF797FB034689
:1077E400002BFAD1079B41F2010293421BD041F2D4
:1077F4000102934202D8012B09D05FE044F2010256
:1078040093422ED044F20202934218D056E0394AF1
:10781400394BD31ADB081B0443F0010337491846DC
:10782400FFF746FA57E0334A334BD31ADB081B04FD
:1078340043F0010332491846FFF73AFA4BE0059B3F
:1078440009932C4A2C4BD31ADB081B0443F0010088
:10785400099B5B681A46099B1B682A49FFF747FA8C
:1078640039E0059B0893234A234BD31ADB081B04F6
:1078740043F00104089B9D68089B9B68184603F02D
:1078840043FB03461846089B5B681946089B1B6824
:10789400069A02920193009103462A461A49204609
:1078A400FFF767FA134A144BD31ADB081B0443F09F
:1078B400010316491846FFF7FBF90CE00D4A0E4B7D
:1078C400D31ADB081B0443F00103069A1049184637
:1078D400FFF7FCF900BF0F4B1B6803F00103002BFB
:1078E40000D000BE059A06990798FFF715FF00BF60
:1078F4000BB030BD90F0030060F0030020F30300F0
:1079040040F3030064F3030080F30300A8F30300CF
:10791400BCF30300F0ED00E082B0EFF310830093BA
:10792400009B019372B6019B184602B0704762B681
:1079340000BF704700B585B00190FFF7EDFF0390DD
:10794400164B9B68002B1BD1144B01229A60144BDD
:10795400D3F88020134B1340104A1360104B114A84
:10796400C3F880200E4BD3F884300C4A53600C4B80
:107974004FF0FF32C3F88420019B00221A7002E00A
:10798400019B01221A70039B002B01D1FFF7CFFF4B
:107994000023184605B05DF804FB00BFC028002092
:1079A40000E100E0FC06FFBD00B585B003468DF89C
:1079B4000730104B9B68002B16D09DF80730002B26
:1079C40012D1FFF7A9FF03900B4A0A4B1B681360FF
:1079D400094A084B5B685360064B00229A60039B7C
:1079E400002B01D1FFF7A3FF0023184605B05DF873
:1079F40004FB00BFC028002000E100E000B583B014
:107A0400019000F02BF80346012B03D005494320D5
:107A140007F022FA0198FFF78DFF00BF03B05DF86D
:107A240004FB00BFD4F3030000B583B003468DF814
:107A3400073000F013F80346012B03D00649512008
:107A440007F00AFA9DF807301846FFF7ADFF00BFAC
:107A540003B05DF804FB00BFD4F3030084B0EFF37C
:107A640005830193019BC3F308030393039B002B3A
:107A74000DD1EFF314830093009B0293029B03F058
:107A84000103002B0CBF01230023DBB200E0012320
:107A9400184604B0704782B00190019B03F00303C1
:107AA400002B0CBF01230023DBB2184602B0704741
:107AB40000B585B00190002303930EE00A4A039BAE
:107AC40052F82330002B05D0074A039B52F8233089
:107AD40001989847039B01330393039B032BEDD930
:107AE40000BF05B05DF804FBD828002082B00190E7
:107AF4000091019B1B78013B052B61D801A252F830
:107B040023F000BF217B0200297B02004F7B02008F
:107B1400817B0200A17B0200BD7B0200009B00224E
:107B24001A704EE0009B01221A70019B1A89009B77
:107B34009A81019B9A88009BDA81019BDA68009BF9
:107B44009A60009B00221A743BE0009B02221A7088
:107B5400019B1A89009B9A81019B9A88009BDA8178
:107B6400019BDA68009B9A60019B9B7D062B0CBFEE
:107B740001230023DAB2009B1A7422E0009B032243
:107B84001A70019BDA88009B9A81019B1A89009BD9
:107B9400DA81019BDA68009B9A6012E0009B042260
:107BA4001A70019BDA88009B9A81009B0022DA817B
:107BB400009B00229A6004E0009B05221A7000E0FA
:107BC40000BF00BF02B0704784B001900091019BD8
:107BD4000393039A009B9A4206D2039B1B68B3F15A
:107BE400FF3F01D0012300E0002303F00103DBB2D7
:107BF400184604B0704782B00190019B5B88033340
:107C04009B00019A1344184602B0704700B583B034
:107C1400019000910198FFF7EEFF0246009B93420A
:107C240001D2022311E0019B9B884FF6FF7293421D
:107C340008D0019B1B88002B04D0019B9B68B3F1E7
:107C4400FF3F01D1012300E00023184603B05DF893
:107C540004FB000000B583B00190019B002B13D0FE
:107C64000D4BDB681A46019B93420DD30A4B1B69EB
:107C74001A46019B934207D80198FFF70CFF03466D
:107C8400002B01D0012300E0002303F00103DBB249
:107C9400184603B05DF804FB5022002082B003466E
:107CA4000A46ADF806301346ADF80430BDF8062098
:107CB400134913469B0013449B000B4408331A8852
:107CC400BDF804301344ADF80430BDF806200C4967
:107CD40013469B0013449B000B440A331A88BDF8D7
:107CE40004301344ADF80430BDF80430B3F5806FAC
:107CF40094BF01230023DBB2184602B0704700BFD3
:107D0400FC28002084B00190009148F20963039399
:107D14000023ADF80A3027E0BDF80A2016491346BF
:107D24009B0013449B000B4404331B68009A9A4243
:107D340015D9BDF80A20104913469B0013449B0033
:107D44000B4404331B6803F58053009A9A4206D20D
:107D540000230393019BBDF80A201A8008E0BDF8B4
:107D64000A300133ADF80A30BDF80A30012BD3D9FB
:107D7400039B184604B07047FC28002082B0019091
:107D84000091009B9B7D022B09D9019B1A89009BC2
:107D9400DB8813449BB203339AB2019B1A81019B83
:107DA4005A89009BDB88D31A9BB2033B9AB2019B8E
:107DB4005A8100BF02B0704700B583B0074B1B68FF
:107DC4001946002300930823054A064802F058F98F
:107DD4000346184603B05DF804FB00BF24290020C5
:107DE400A4F403005022002000B585B00390039949
:107DF400002300930823044A044802F041F903468F
:107E0400184605B05DF804FBACF4030050220020D2
:107E140000B585B003460091ADF8063000238DF817
:107E24000F30BDF806300333ADF80A30BDF80A3020
:107E340040F2FE32934202D948F208634BE0002339
:107E4400ADF80C303BE0BDF80C20254913469B00EF
:107E540013449B000B441B78002B2BD1BDF80A2044
:107E6400BDF80C3011461846FFF718FF0346002BE7
:107E740020D001238DF80F30009BBDF80C201A8010
:107E8400BDF80C20164913469B0013449B000B4479
:107E94000A331988BDF80C20BDF80A300B4498B297
:107EA4000F4913469B0013449B000B440A330246BC
:107EB4001A8008E0BDF80C300133ADF80C30BDF881
:107EC4000C30012BBFD99DF80F30002B01D00023BB
:107ED40001E048F20663184605B05DF804FB00BFF4
:107EE400FC28002082B003460A46ADF8063013464B
:107EF400ADF80430BDF804200D4913469B0013442B
:107F04009B000B440A331A88BDF80630D31A9BB27F
:107F1400BDF80420033B98B2054913469B00134463
:107F24009B000B440A3302461A8000BF02B070471C
:107F3400FC28002008B50121024801F028FB034673
:107F4400184608BDE828002000B585B00346009116
:107F5400ADF80630BDF80620234913469B001344B0
:107F64009B000B4404331B6803F580530293009B6E
:107F74001B680393039B002B04D00398FFF73BFE7D
:107F8400039024E0BDF80620174913469B001344D0
:107F94009B000B4404331B680833039317E00299D6
:107FA4000398FFF733FE0346012B09D0022B0CD0B4
:107FB400002B00D00BE0009B039A1A6001230EE013
:107FC4000398FFF718FE039001E0002307E00299ED
:107FD4000398FFF7F9FD0346002BE0D10023184670
:107FE40005B05DF804FB00BFFC28002000B585B097
:107FF40001900091019B5B681846FFF72BFE034636
:10800400002B19D0019B1A89244B1B899A4213D146
:10801400019B1A68019B5B689B689A420CD1019B87
:108024005B6819460098FFF76DFE0346002B0CBFF2
:1080340001230023DBB22CE0009B00221A8023E002
:108044000023029310E0029B0393039B9A68019B15
:108054001B689A4208D1029A019B5A600F4B1A89F5
:10806400019B1A81012314E0009B1B8802AA11467C
:108074001846FFF769FF0346002BE4D1009B1B88D9
:1080840001339AB2009B1A80009B1B88012BD7D91D
:108094000023184605B05DF804FB00BF2C2900201E
:1080A40000B587B00390029101920093324B1B7884
:1080B400DBB283F00103DBB2002B02D048F2016390
:1080C40055E0019B002B02D0009B002B49D148F2C4
:1080D40004634CE0009B9B881946284A0B469B008E
:1080E4000B449B0013441B78002B33D124E0009BEA
:1080F4001B680593039B002B06D0059B9A88039B62
:108104001B889A4200D017E0029B002B06D0059BE7
:108114001A88029B1B889A4200D00DE0059B9A683E
:10812400019B1A60009B1A68019B5A60144B1A89C0
:10813400019B1A8100231AE0009B9B88009A114638
:108144001846FFF701FF0346002BD0D1009B002205
:108154001A6000E000BF009B9B8801339AB2009B29
:108164009A80009B9B88012BB4D948F20963184676
:1081740007B05DF804FB00BFCC280020FC280020D9
:108184002C29002000B585B00190084B01991846B0
:1081940001F04BF803901C220021039815F00CFE0B
:1081A400039B184605B05DF804FB00BFEC280020D3
:1081B40000B583B00190044B0199184601F04EF8C4
:1081C40000BF03B05DF804FBEC28002000B583B0C9
:1081D4000190054B0199184601F054F803461846DE
:1081E40003B05DF804FB00BFEC28002000B583B0A9
:1081F4000190044B0199184601F05DF800BF03B0EB
:108204005DF804FBEC28002008B50A4B1B68002B22
:1082140004D109494FF4247006F01EFE01210548DB
:1082240001F0CDF90346002B14BF01230023DBB278
:10823400184608BDD428002044F4030000B587B0D4
:1082440003900291039B02229A750299039B1A1DC3
:10825400002300930423074801F012FF0590059BB7
:10826400002B01D1002301E048F20D63184607B04A
:108274005DF804FB5022002000B587B00390029102
:10828400039B1B69002B01D0032200E00122039B06
:108294009A75029B08331946039B03F10C020023D1
:1082A40000930423074801F0EBFE0590059B002B87
:1082B40001D1002301E048F20D63184607B05DF8D0
:1082C40004FB00BF5022002000B587B00390029148
:1082D400039B1B78032B01D1052200E00622039B9C
:1082E4009A75029B04331946039B03F10802002389
:1082F40000930423074801F0C3FE0590059B002B5F
:1083040001D1002301E048F20D63184607B05DF87F
:1083140004FB00BF5022002000B587B003900B4639
:10832400ADF80A3003990023009304230D4A0E4844
:1083340001F0A6FE0590059B002B02D048F20D63C8
:108344000BE0BDF80A20094913469B0013449B0027
:108354000B44103301221A700023184607B05DF84D
:1083640004FB00BFB4F4030050220020FC280020CA
:1083740000B589B0019002AB00221A605A609A607D
:10838400019BDB6802930DF1160202AB11461846FD
:10839400FFF72CFE0346002B12D0039B0693069B8B
:1083A4009A88019BDA80069B1A88019B1A81039B99
:1083B400BDF8162011461846FFF7AEFF079002E0FD
:1083C40048F209630793079B184609B05DF804FB5C
:1083D40000B587B00190019B981D02AA0D4B0021A6
:1083E400FFF75EFE0590059B002B08D1039A094B0D
:1083F4009B8819461046FFF78FFF059004E008227A
:108404000021044815F0D8FC059B184607B05DF818
:1084140004FB00BF3C29002000B587B00390029103
:10842400039B01229A75029B0C331846039B1A691D
:10843400039BDB889900002300930B460146074801
:1084440001F01EFE0590059B002B01D1002301E0E5
:1084540048F20D63184607B05DF804FB5022002073
:1084640082B0184B1B8901339AB2164B1A81154BF3
:1084740000225A80134B00221A730023ADF80630F1
:1084840018E0BDF80620104913469B0013449B00D6
:108494000B441A78BDF80630002A0CBF01220022D2
:1084A400D1B2084A13440A469A72BDF80630013321
:1084B400ADF80630BDF80630012BE2D900BF02B09A
:1084C400704700BF2C290020FC28002084B00190B4
:1084D40000238DF80F300023ADF80C3031E0BDF8E7
:1084E4000C301C4A13449B7A002B25D0BDF80C3069
:1084F400184A134400229A72BDF80C2016491346F8
:108504009B0013449B000B440C331B68002B13D1BA
:10851400BDF80C20104913469B0013449B000B44E8
:1085240010331B78002B07D0019BBDF80C201A8058
:1085340001238DF80F3008E0BDF80C300133ADF89D
:108544000C30BDF80C30012BC9D99DF80F301846FA
:1085540004B070472C290020FC28002008B5084BE3
:1085640005221A70074B02229A80064B1B68194693
:1085740000230122044801F065FE0346184608BDA5
:108584002C290020242900205022002000B583B08B
:10859400164B5B88ADF80230BDF80220144913462F
:1085A4009B0013449B000B440C331B68002B14D119
:1085B4000E4B04221A70BDF802200D4913469B008D
:1085C40013449B000B4404331B6819460023012207
:1085D400084801F037FE019002E0FFF7BFFF019069
:1085E400019B184603B05DF804FB00BF2C29002052
:1085F400FC2800205022002000B587B0114B5B6896
:108604000593114B1A68104B9B889B0013440493E9
:10861400059B5B880333ADF80E300A4B03221A70B6
:108624000499084B5A68BDF80E3098000023009353
:108634000346064801F024FD0346184607B05DF8DA
:1086440004FB00BF2C2900202429002050220020F4
:1086540000B583B00A4B5B880A491846FFF774FCDF
:108664000346002B03D0FFF7C7FF019002E0FFF79A
:108674008DFF0190019B184603B05DF804FB00BF19
:108684002C2900203029002008B50A4B06221A7034
:10869400084B5B881946084A0B469B000B449B0019
:1086A400134404331B681846FFF79EFB0346184621
:1086B40008BD00BF2C290020FC28002008B5054B6C
:1086C40007221A70034B00225A60FFF775FB03461A
:1086D400184608BD2C29002008B50D48FFF7F6FE02
:1086E400034683F00103DBB2002B0BD0094B0022BD
:1086F4001A70084B00225A80064B00225A6041F639
:108704001D5302E0FFF7A4FF0346184608BD00BF4F
:108714002E2900202C29002082B0094B5B6801938C
:10872400019B5B880333ADF80230064B9A88BDF891
:10873400023013449AB2034B9A8000BF02B07047D0
:108744002C2900202429002082B01E4B1B68019391
:108754001D4B5B8819461D4A0B469B000B449B002E
:10876400134404331B68174A1360174B5B8819467C
:10877400164A0B469B000B449B0013440433019A96
:108784001A60114B5B8819460E4B98880F4A0B46AA
:108794009B000B449B001344083302461A80094B88
:1087A40002229A80084B5B881946084A0B469B00B4
:1087B4000B449B001344103300221A7000BF02B014
:1087C400704700BF242900202C290020FC28002009
:1087D40008B51A4B1B78072B2CD801A252F823F0AA
:1087E40005880200398802003988020011880200D5
:1087F4001D880200298802002988020031880200AD
:10880400FFF72EFE0D4B01221A7014E0FFF784FFD0
:108814000A4B02221A700EE0FFF796FF074B06225E
:108824001A7008E0054B07221A7004E0034B01227A
:108834001A7000E000BF00BF08BD00BF2C29002053
:1088440000B587B00190009148F20E630593019B37
:10885400002B05D0634B00225A604FF40643BCE062
:10886400009B1B79032B00F2AB8001A252F823F08A
:108874008588020093880200218902004189020050
:10888400009B01221A71FFF797FA05909BE00023E1
:108894008DF813300023ADF810302BE0BDF8102014
:1088A400514913469B0013449B000B441B78022B35
:1088B4001BD1BDF810204C4913469B0013449B0068
:1088C4000B4400221A7001238DF81330BDF81020D8
:1088D400454913469B0013449B000B4404331B6817
:1088E4001846FFF781FA059008E0BDF8103001330F
:1088F400ADF81030BDF81030012BCFD99DF81330EE
:1089040083F00103DBB2002B5CD0364B01221A70DA
:10891400344B00225A6041F61D535EE0009B002256
:108924001A71324B02229A80304B1B68194600237D
:1089340001222F4801F086FC059044E0009B0022B0
:108944001A712A4B1B681846FFF74EFA0590294BFB
:108954005B88ADF80E30254B1B680293BDF80E20E2
:10896400214913469B0013449B000B4404331B68AA
:108974001E4A1360BDF80E201B4913469B00134486
:108984009B000B440433029A1A60BDF80E20174B67
:108994009888154913469B0013449B000B440833E5
:1089A40002461A80114B02229A80BDF80E200E490D
:1089B40013469B0013449B000B4400221A7002E0F0
:1089C40000BF00E000BF059B002B05D0054B002233
:1089D4005A6048F20D6300E00023184607B05DF8C2
:1089E40004FB00BFCC280020FC2800202429002000
:1089F400502200202C29002000B587B0019000915E
:108A0400009B9B8A1A4613469B0013449B003B4AD7
:108A140013440493019B002B06D000990498FFF79C
:108A2400ADF94FF4064364E0049B5A68049B1B8928
:108A34009B0013440393009B9B7D062B4DD801A2FE
:108A440052F823F08D8A0200B18A0200998A02004A
:108A5400A58A0200658A0200BD8A0200D78A020044
:108A6400274B00225A60009B9B69254A13602549C5
:108A74002348FFF7BBFA034683F00103DBB2002B64
:108A840002D048F2096334E003990098FFF7D6FB5B
:108A9400059026E003990098FFF7EEFB059020E08F
:108AA40003990098FFF7B8FC05901AE00399009821
:108AB400FFF70AFC059014E0009B06229A75104B00
:108AC4005A68104B1B8819461046FFF725FC059081
:108AD40007E041F61D53059303E048F20E63059346
:108AE40000BF059B002B03D000990498FFF746F9BB
:108AF400059B184607B05DF804FB00BFFC28002066
:108B0400442900205029002000B585B0019000912F
:108B1400019B002B02D04FF4064326E0009B1B79F7
:108B2400012B0BD0022B16D0002B18D1009B022254
:108B34001A710098FFF71CFC039015E00098FFF7EA
:108B440047FC0390039B48F2096293420BD141F620
:108B54001D53039307E041F61D53039304E048F2C9
:108B64000E63039300E000BF039B184605B05DF855
:108B740004FB000000B585B00190019B002B02D0DE
:108B84004FF406433DE0214B1B7B002B03D01F4BCE
:108B940000221A7301E0FFF71BFE1C4B1B78013BFC
:108BA400062B29D801A252F823F000BFCD8B020076
:108BB400D58B0200DD8B0200E58B0200FD8B0200E9
:108BC400ED8B0200F58B0200FFF786FD039017E0A2
:108BD400FFF73EFD039013E0FFF70EFD03900FE057
:108BE400FFF7D4FC03900BE0FFF74EFD039007E082
:108BF400FFF764FD039003E048F20E63039300BFA4
:108C0400039B184605B05DF804FB00BF2C29002027
:108C140000B589B00190404B1B68002B05D13F483B
:108C2400FFF7D4FA02463C4B1A603B4B1B68002BFF
:108C340004D13B4940F29E5006F00EF9364B1B68B6
:108C44001B78013B052B2CD801A252F823F000BF5E
:108C54006D8C02007D8C02007D8C02008D8C0200E4
:108C64008D8C02009D8C02002B4B1B6819460198C9
:108C7400FFF7E6FD019018E0274B1B6819460198A1
:108C8400FFF7BAFE019010E0234B1B6819460198C8
:108C9400FFF73AFF019008E00198FFF76BFF01909E
:108CA40003E048F20E63019300BF019B002B2BD01D
:108CB40003AB00221A605A609A60DA601A61019B61
:108CC40041F61D52934201D0019B00E0002304931E
:108CD400114B1B6803AA11461846FEF707FF03ABA6
:108CE4001846FEF7E5FE0C4B00221A6000230193A0
:108CF4000A48FFF77BFAFFF787FA034683F001037C
:108D0400DBB2002B02D186E700BF00E000BF00BF4A
:108D140009B05DF804FB00BF542900205829002045
:108D240044F4030008B50121054800F018FC03468B
:108D3400002B02D10020FFF76BFF00BF08BD00BF6E
:108D4400D428002000B583B00190019B5B681846CD
:108D5400FFF75EFF00BF03B05DF804FB00B58BB006
:108D64000390029101928DF803300023ADF8243072
:108D74000023ADF82630534B1B78DBB283F001039C
:108D8400DBB2002B02D048F2016397E0029B002B78
:108D940002D148F2046391E0029B1B884FF6FF72F4
:108DA400934203D0029B5B88002B02D148F20363F9
:108DB40084E0029B5B681846FEF76DFE034683F071
:108DC4000103DBB2002B02D048F2026376E0019B80
:108DD400002B11D1029B9B68ADF826300DF11A02CD
:108DE400BDF8263011461846FFF712F80890089B84
:108DF400002B09D0089B61E0019B1B88ADF81A3059
:108E0400019B5B88ADF8263005AB1846FFF7BAF92D
:108E14000790079B002B0AD1BDF81A20BDF8263015
:108E240011461846FFF75EF848F2076346E0079BD1
:108E34009DF803201A70079B00229A75BDF81A202A
:108E4400079B9A82029B5A68079B1A61FFF772F884
:108E54000246079BDA60029B1A88079B1A81029BD1
:108E64005A88079B9A80079BBDF82620DA809DF8D4
:108E74000330032B06D1079B04229A75039B1A68BF
:108E8400079B9A61079BBDF824205A8105AB1846BD
:108E9400FFF78EF9039B002B0DD0039B00225A6031
:108EA400079BDA68039B1A60039B00229A72064BA5
:108EB4001A89039B1A81FFF735FF002318460BB06C
:108EC4005DF804FBCC2800202C29002000B585B0D7
:108ED40001900091019B002B02D0009B002B02D13A
:108EE40048F204632AE00DF10A0319460198FFF7DA
:108EF4007DF80346002B1FD0019B5B680393BDF8EC
:108F04000A301A4613469B0013449B0008330D4A4B
:108F1400134404330121184600F039FB009B039AE3
:108F24001A60019B5B6803F10C02009B5A60019B71
:108F340001229A72002301E048F20963184605B041
:108F44005DF804FBFC28002000B585B00190019B6E
:108F5400002B02D148F204633BE00DF10A031946E9
:108F64000198FFF743F80346002B2ED0BDF80A30D2
:108F740019461A4A0B469B000B449B0013440C33BE
:108F84001B68002B1DD0019B9B7A002B19D0BDF8C8
:108F94000A301A46114913469B0013449B000B44A4
:108FA4000C331B68591E0D4813469B0013449B0049
:108FB40003440C331960019B00229A72002303932B
:108FC40006E048F20563039302E048F20963039361
:108FD400039B184605B05DF804FB00BFFC28002085
:108FE40000B583B0019000910223002200990198FA
:108FF400FFF7B4FE0346184603B05DF804FB00B562
:1090040083B001900091019B002B02D148F20463CC
:1090140006E00323002200990198FFF79FFE034610
:10902400184603B05DF804FB00B585B00346ADF8FF
:1090340006301A4B1B78DBB283F00103DBB2002B42
:1090440002D048F2016324E0BDF806304FF6FF7207
:10905400934202D148F203631BE002AB1846FFF7C8
:1090640091F80390039B002B02D148F2076310E0B0
:10907400039B05221A70039B01221A71039BBDF8FE
:109084000620DA8002AB1846FFF792F8FFF74AFE93
:109094000023184605B05DF804FB00BFCC2800206F
:1090A40000B585B0029201930346ADF80E300B462D
:1090B400ADF80C3003A90DF10E00019B029AFEF7E6
:1090C400EFFF0346184605B05DF804FB00B585B014
:1090D400034602910192ADF80E300DF10E01019B91
:1090E400029A0020FEF7DCFF0346184605B05DF83F
:1090F40004FB00B585B0034602910192ADF80E3031
:109104000DF10E00019B029A0021FEF7C9FF0346F0
:10911400184605B05DF804FB82B001900091019BF4
:10912400002B02D0009B002B02D148F2046304E020
:10913400019B1A68009B1A600023184602B070470E
:1091440086B001900091019B53E8011F8AB2D8892F
:1091540002449889824228BF121A1889824202BFA7
:10916400BFF32F8F002307E0C2EA010243E8012086
:109174000028E9D14FF001038DF80F3005900291DA
:109184000492029A009B1A609DF80F30DBB21846D5
:1091940006B0704784B00190019951E8013FC3EAD9
:1091A400034341E80132002AF7D10392029300BF3E
:1091B40004B0704786B001900091019B53E8021FF0
:1091C4001FFAA1F2D888824202BFBFF32F8F002377
:1091D4000DE0D88902449889824228BF121AC1EA54
:1091E400024243E802200028E8D14FF001038DF841
:1091F4000F30059002910492029A009B1A609DF828
:109204000F30DBB2184606B0704784B00190019964
:1092140051E8023FC3EA234341E80232002AF7D16E
:109224000392029300BF04B0704700B585B001906B
:109234000091009B19460198FFF782FF0346002B1B
:1092440007D0019B1B68009A128813440393039B65
:1092540000E00023184605B05DF804FB00B583B0B8
:1092640001900091009B1A88009B5B889A4204D16C
:109274000198FFF78FFF012300E00023184603B095
:109284005DF804FB00B585B001900091009B194680
:109294000198FFF78FFF0346002B07D0019B1B6843
:1092A400009A528813440393039B00E0002318465A
:1092B40005B05DF804FB00B583B001900091009BFC
:1092C4001A88009B5B889A4204D10198FFF79DFF9E
:1092D400012300E00023184603B05DF804FB00B549
:1092E40085B001900091009B5B099B00019AD01806
:1092F400009B03F01F03012202FA03F3194600F056
:10930400E6F8039000BF05B05DF804FB00B583B038
:1093140001900091009B5B099B00019AD018009B6F
:1093240003F01F03012202FA03F3194600F0B7F811
:109334000246009B03F01F0322FA03F303F0010328
:10934400002B14BF01230023DBB2184603B05DF8E1
:1093540004FB00B585B001900091009B5B099B0064
:10936400019AD018009B03F01F03012202FA03F3B1
:10937400DB43194600F0DBF8039000BF05B05DF84D
:1093840004FB82B001900091009B5B099B00019A51
:1093940013441A68009B03F01F0322FA03F303F03B
:1093A4000103002B14BF01230023DBB2184602B0D3
:1093B400704700B58DB00190009100230B934BE0F2
:1093C4000B9B9B00019A13441B68DB430793079B89
:1093D40093FAA3F30693069B0893089B002B01D1F1
:1093E400202303E0089BB3FA83F3DBB20A932BE058
:1093F4000B9B5B010A9A13440993099A009B9A42B6
:1094040026D209990198FFF781FF034683F00103EF
:10941400DBB2002B01D0099B26E00B9B9B00019A39
:1094240013441B68DB430493049B93FAA3F3039351
:10943400039B0593059B002B01D1202303E0059B8F
:10944400B3FA83F3DBB20A930A9B1F2BD0D900E053
:1094540000BF0B9B01330B93009B013B5B09013362
:109464000B9A9A42ACD3009B18460DB05DF804FBEE
:1094740010B487B001900091019B009A53E8004F0B
:10948400104643E8000191F0000FF7D105940490D1
:109494000391059B184607B05DF8044B704710B460
:1094A40087B001900091019B009A53E8004F44EA71
:1094B400020043E8000191F0000FF6D105940490F6
:1094C4000391059B184607B05DF8044B704710B430
:1094D40087B001900091019B009A53E8004F44EA41
:1094E400020043E8000191F0000FF6D105940490C6
:1094F4000391049B184607B05DF8044B704710B401
:1095040087B001900091019B009A53E8004F04EA50
:10951400020043E8000191F0000FF6D10594049095
:109524000391059B184607B05DF8044B704710B4CF
:1095340087B001900091019B009A53E8004F04EA20
:10954400020043E8000191F0000FF6D10594049065
:109554000391049B184607B05DF8044B704710B4A0
:1095640087B001900091019B009A53E8004F04EBEF
:10957400020043E8000191F0000FF6D10594049035
:109584000391059B184607B05DF8044B704710B46F
:1095940087B001900091019B009A53E8004F04EBBF
:1095A400020043E8000191F0000FF6D10594049005
:1095B4000391049B184607B05DF8044B704710B440
:1095C40087B001900091019B009A53E8004FA4EBEF
:1095D400020043E8000191F0000FF6D105940490D5
:1095E4000391049B184607B05DF8044B704700B51F
:1095F40083B0019001210198FFF769FF03461846E3
:1096040003B05DF804FB00B583B00190002101981C
:10961400FFF775FF0346184603B05DF804FB00002E
:1096240000B583B001900B468DF80330019B002BED
:1096340003D10849E82005F00FFC019BDA689DF886
:1096440003300199098A01FB03F31344184603B05C
:109654005DF804FBB8F4030000B583B001900091F9
:10966400019B002B03D10849F52005F0F5FB009B75
:10967400019AD2689B1A019A128AB3FBF2F3DBB205
:10968400184603B05DF804FBB8F4030000B585B0D8
:109694000190019B002B01D10E234DE0019B1B681F
:1096A400002B03D12649FF2005F0D6FB019B5B6804
:1096B400002B04D122494FF4807005F0CDFB019BAF
:1096C4009B68002B04D11E4940F2011005F0C4FB35
:1096D400019BDB68002B04D119494FF4817005F01C
:1096E400BBFB019B1B8A002B04D1154940F20310DC
:1096F40005F0B2FB019B9B681A46019B5B68D31A79
:109704008DF80F30019B1B68019A52681A6007E0BC
:10971400019B1A681368591C11609DF80F201A7078
:109724009DF80F305A1E8DF80F20002BF0D1019BAD
:109734001B6800221A710023184605B05DF804FB6B
:10974400B8F4030000B585B00190019B002B04D14F
:1097540020494FF4927005F07FFB0023039300230C
:109764008DF80A300DF10A031846FEF747F9019BFC
:109774001B681A68019B5B689A4220D9019B1B688D
:109784001A68013A1A601B681B7819460198FFF79A
:1097940047FF0390019B9B681A46019B1B681B684B
:1097A400D31A8DF80B30019B1B681B799DF80B2095
:1097B4009A4204D9019B1B689DF80B201A719DF8ED
:1097C4000A301846FEF730F9039B184605B05DF8D9
:1097D40004FB00BFB8F4030010B584B001900091FD
:1097E400019B002B04D1154940F2471005F034FBCE
:1097F400009B002B04D111494FF4A47005F02CFBFD
:10980400009B039300238DF80B300DF10B031846D6
:10981400FEF7F4F8019B1B681C68621C1A6003992C
:109824000198FFF719FF034623709DF80B30184683
:10983400FEF7FAF800BF04B010BD00BFB8F403008F
:1098440000B583B00190019B002B03D10C4931205A
:1098540005F002FB019B9B68002B0CD0019B5B690C
:10986400019A1069019A1168019A92689847019BBC
:1098740000229A6000E000BF03B05DF804FB00BF63
:1098840020F503000EB400B584B00190019B002BB9
:1098940003D11849422005F0DFFA019B5B69002BD4
:1098A40003D11449432005F0D7FA019B1B68002B10
:1098B40003D11049442005F0CFFA019B5B68002BCB
:1098C40003D10C49452005F0C7FA059B002B0AD0AB
:1098D4000023039306AB039303AB1A46059901983F
:1098E40000F0B0F900E000BF04B05DF804EB03B091
:1098F400704700BF20F5030000B583B001900B460C
:109904008DF80330019B1A68019B9B68581C0199D0
:10991400886013449DF803201A70019B9A68019B88
:109924005B689A4202D30198FFF78AFF00BF03B035
:109934005DF804FB00B587B0039002910192009397
:1099440000230593009B03F00103002B24D00BE0BC
:10995400029B01330293059B013305939DF8133059
:1099640019460398FFF7C8FF029B1B788DF8133044
:109974009DF81330002BEBD106E0019B013B0193D2
:1099840020210398FFF7B8FF019A059B9A422ED92C
:10999400019B002BF1D12AE0029B002B0BD00298F3
:1099A40014F05FFA059006E0019B013B019320212E
:1099B4000398FFF7A1FF019A059B9A420FD9019BD7
:1099C400002BF1D10BE0029B01330293059B013381
:1099D40005939DF8133019460398FFF78DFF029BFA
:1099E4001B788DF813309DF81330002BEBD100BF9A
:1099F40007B05DF804FB000000B589B00390029144
:109A040001920093029B07930123069307E0079AB0
:109A1400019BB2FBF3F30793069B01330693079A6A
:109A2400019B9A42F3D2009A069B9A4201D9009B69
:109A340006930B9B03F00103002B22D10A9B002BFE
:109A44001FD00B9B03F00203002B06D0009B002BBE
:109A540003D130238DF8173002E020238DF817301E
:109A640008E00A9B013B0A939DF8173019460398B6
:109A7400FFF742FF0A9B002B03D0069A0A9B9A42E7
:109A8400EFD301230793009B012B03D9009B013BD8
:109A9400009309E0029A079BB2FBF3F30493049A40
:109AA400019B9A4200D205E0079B019A02FB03F353
:109AB4000793E8E7029A079BB2FBF3F30493049B32
:109AC400079A02FB03F3029AD31A0293154A049BE2
:109AD40013441B7819460398FFF70EFF079A019B5E
:109AE400B2FBF3F30793079B002BE3D10B9B03F02B
:109AF4000103002B11D00A9B002B0ED006E00A9B19
:109B0400013B0A9320210398FFF7F6FE0A9B002BE2
:109B140003D0069A0A9B9A42F1D300BF09B05DF8BC
:109B240004FB00BFE8F5030000B589B0059004917B
:109B340003920293049B002BB8BF5B42069301235C
:109B4400079307E0039B069A92FBF3F30693079BA4
:109B540001330793039B069A9A42F3DA029A079B0E
:109B64009A4201D9029B07930A9B002B0AD0049BBB
:109B7400002B04DB0B9B03F00403002B02D00A9B95
:109B8400013B0A930B9B03F00203002B02D0029BC0
:109B9400002B16D00B9B03F00103002B11D10A9B61
:109BA400002B0ED006E00A9B013B0A932021059866
:109BB400FFF7A2FE0A9B002B03D0079A0A9B9A4246
:109BC400F1D3049B002B07DA049B5B4204932D2101
:109BD4000598FFF791FE08E00B9B03F00403002BAC
:109BE40003D02B210598FFF787FE0B9B03F002039C
:109BF400002B19D00B9B03F00103002B14D1029B03
:109C0400002B11D10A9B002B0ED006E00A9B013BCE
:109C14000A9330210598FFF76FFE0A9B002B03D0AF
:109C2400079A0A9B9A42F1D304990B9B01930A9BCE
:109C34000093029B039A0598FFF7DEFE00BF09B06C
:109C44005DF804FB00B58FB0059004910392059B69
:109C5400002B04D1C84940F2522005F0FDF8059BC1
:109C64005B69002B04D1C4494FF4157005F0F4F876
:109C7400059B1B68002B04D1BF4940F2552005F019
:109C8400EBF8059B5B68002B04D1BB4940F25620DE
:109C940005F0E2F8049B002B00F0ED81049B1B7897
:109CA4008DF83730049B013304939DF83730002B33
:109CB40000F0D8819DF83730252B40F0C781002370
:109CC4000A9301230C93049B1B788DF837309DF87D
:109CD40037302D2B04D0302B0AD02B2B10D017E08B
:109CE4000A9B43F001030A93049B0133049312E09B
:109CF4000A9B43F002030A93049B013304930AE092
:109D04000A9B43F004030A93049B0133049302E087
:109D140000230C9300BF0C9B002BD4D10023099388
:109D24009DF837302A2B0CD1039B1B68191D039A0D
:109D340011601B68099A13440993049B013304932B
:109D44001AE0049B1B788DF837309DF837302F2BA1
:109D540012D99DF83730392B0ED8049B0133049364
:109D6400099A13469B0013445B001A469DF837304A
:109D74001344303B0993D3E700230B93049B1B78D4
:109D84008DF837309DF837302E2B1DD1049B0133CD
:109D94000493049B1B788DF837309DF837302F2BB4
:109DA40012D99DF83730392B0ED8049B0133049314
:109DB4000B9A13469B0013445B001A469DF83730F8
:109DC4001344303B0B93E4E7049B1B788DF8373046
:109DD4009DF837306C2B03D09DF83730682B07D1B2
:109DE400049B01330493049B1B788DF83730EFE711
:109DF4009DF83730253B532B00F2238101A252F802
:109E040023F000BF3DA0020047A0020047A00200CB
:109E140047A0020047A0020047A0020047A002009A
:109E240047A0020047A0020047A0020047A002008A
:109E340047A0020047A0020047A0020047A002007A
:109E440047A0020047A0020047A0020047A002006A
:109E540047A0020047A0020047A0020047A002005A
:109E640047A0020047A0020047A0020047A002004A
:109E740047A0020047A0020047A0020047A002003A
:109E840047A0020047A0020047A0020047A002002A
:109E940047A0020047A0020047A0020047A002001A
:109EA40047A0020047A0020047A0020047A002000A
:109EB40047A0020047A0020047A0020047A00200FA
:109EC40047A0020047A0020047A0020047A00200EA
:109ED400C99F020047A0020047A0020047A0020059
:109EE40047A0020047A0020047A0020047A00200CA
:109EF40047A0020047A0020047A00200599F0200A9
:109F0400819F020047A0020047A0020047A0020070
:109F140047A00200819F020047A0020047A0020060
:109F240047A0020047A0020047A0020047A0020089
:109F340009A0020047A0020047A00200ED9F020012
:109F440047A00200A59F020047A0020047A002000C
:109F5400C99F0200039B1B68191D039A11601B68AB
:109F64000C930C9B8DF81F309DF81F3019460598F3
:109F7400FFF7C2FC66E000BF80F50300039B1B688B
:109F8400191D039A11601B680C930A9B0193099B8A
:109F940000930B9B0A220C990598FFF7C5FD51E02D
:109FA400039B1B68191D039A11601B680C930C9981
:109FB4000A9B0193099B00930B9B0A220598FFF7C8
:109FC4001BFD3FE0039B1B68191D039A11601B686E
:109FD4000C930C990A9B0193099B00930B9B1022F1
:109FE4000598FFF709FD2DE0039B1B68191D039AD3
:109FF40011601B6808930A9B099A08990598FFF752
:10A0040099FC1FE0039B1B68191D039A11601B68D0
:10A014000C9330210598FFF76FFC78210598FFF722
:10A024006BFC0C990023019308230093082310224E
:10A034000598FFF7E1FC05E025210598FFF75CFC96
:10A0440000E000BF049B0133049305E09DF8373022
:10A0540019460598FFF750FC049B1B78002B7FF4EE
:10A064001DAE00E000BF059B1B7B002B04D00598B0
:10A07400FFF7E6FB00E000BF0FB05DF804FB00BF94
:10A0840010B586B00590049103920293059B002BB2
:10A0940010D1604A604BD31ADB081B0443F0010063
:10A0A4005E4A5F490E2300930B465E49FCF733FE7C
:10A0B4000E23ABE0039B002B10D1564A564BD31A08
:10A0C400DB081B0443F00100574A55490E23009353
:10A0D4000B465449FCF71FFE0E2397E0059B1B68B3
:10A0E400002B10D14B4A4C4BD31ADB081B0443F012
:10A0F40001004E4A4A49082300930B464949FCF79C
:10A104000AFE082382E0029B002B10D1414A424BF5
:10A11400D31ADB081B0443F00100454A40490923D4
:10A1240000930B463F49FCF7F6FD09236EE0059BBF
:10A134005B685A68029BB3FBF2F102FB01F29B1AC3
:10A14400002B10D0334A344BD31ADB081B0443F0E2
:10A154000100384A3249092300930B463149FCF780
:10A16400DAFD092352E0049800F01EF90346002B9F
:10A1740010D1284A284BD31ADB081B0443F00100F2
:10A184002D4A2749102300930B462649FCF7C3FDAB
:10A1940010233BE0039B184600F006F90346002B0E
:10A1A40010D11C4A1C4BD31ADB081B0443F00100DA
:10A1B400224A1B49102300930B461A49FCF7ABFDB6
:10A1C400102323E0029A0499059800F0D3F803467B
:10A1D400002B10D10F4A104BD31ADB081B0443F099
:10A1E4000100174A0E49102300930B460D49FCF752
:10A1F40092FD10230AE0059B1B68DC68089B009312
:10A20400029B039A04990598A0470346184606B092
:10A2140010BD00BFA0F0030060F0030008F60300C7
:10A22400ACF7030010F603009CF6030044F60300A9
:10A2340058F60300A4F60300D0F60300E8F6030082
:10A244000CF7030010B586B00590049103920293B5
:10A25400059B002B10D13E4A3E4BD31ADB081B044E
:10A2640043F001003C4A3D490E2300930B463C4910
:10A27400FCF751FD0E2368E0059B1B68002B10D1F1
:10A28400334A344BD31ADB081B0443F00100354A2C
:10A294003249082300930B463149FCF73CFD08235F
:10A2A40053E0039B002B10D1294A2A4BD31ADB0815
:10A2B4001B0443F001002C4A2849092300930B4650
:10A2C4002749FCF728FD09233FE00499059800F08D
:10A2D40078F80346002B10D11D4A1E4BD31ADB0815
:10A2E4001B0443F00100214A1C49102300930B4630
:10A2F4001B49FCF710FD102327E0059B5B681B68D6
:10A30400039A02FB03F31A460499059800F032F805
:10A314000346002B10D10E4A0E4BD31ADB081B0444
:10A3240043F00100124A0D49102300930B460C49D7
:10A33400FCF7F1FC102308E0059B1B681C69029BD9
:10A34400039A04990598A0470346184606B010BD21
:10A35400A0F0030060F0030008F60300C0F7030058
:10A3640010F6030044F6030058F6030034F7030024
:10A374005CF7030084B0039002910192039BDB68B5
:10A38400029A9A4209D3029A019B13445A1E039BD0
:10A394001B699A4201D8012300E0002303F0010362
:10A3A400DBB2184604B0704782B00190019B03F001
:10A3B4000303002B0CBF01230023DBB2184602B0B9
:10A3C400704782B001900091019B5B681B685A1E24
:10A3D400009B1340002B0CBF01230023DBB2184663
:10A3E40002B0704729DF704700BF184628DF704766
:10A3F40000BF184600B589B001900091019B1B680D
:10A404009B68002B35D002AB00221A605A609A6018
:10A41400DA601A615A61009B0393019B9B6807935E
:10A42400019B1B79002B02D0012B0DD01AE00123D4
:10A434008DF80830019B1B690493019BDB6805932D
:10A44400019B5B6906930DE002238DF80830019BA4
:10A45400DB684FF4805202FB03F30493019B5B69B6
:10A46400069300BF019B1B689B6802AA104698478D
:10A4740000E000BF09B05DF804FB00B587B00190AF
:10A48400019B5A69019B9B69D31AB3F5805F28BF6E
:10A494004FF4805305930422059BB3FBF2F3012B85
:10A4A40038BF01230593019B1A69019B9B691344DF
:10A4B4000493019BDB681A46019B9B691344039335
:10A4C400059A03990498FFF78DFF0346184607B0D1
:10A4D4005DF804FB00B583B00190019BDA68019B31
:10A4E4001B6913441846FFF781FF0346184603B05F
:10A4F4005DF804FB08B5034B03491846FEF7DBFE81
:10A5040000BF08BD5C2900208429002008B5084B41
:10A5140008491846FEF7B6FE0246074B1A60064B7A
:10A524001B68002B14BF01230023DBB2184608BDAF
:10A534005C290020842900208029002000B583B0F4
:10A544002A4B1B7A002B0BD1FFF7E0FF034683F065
:10A554000103DBB2002B03D0244B00225A6042E0FB
:10A56400224B02221A72224B1B681B79002B02D049
:10A57400012B07D00DE01E4B1B681846FFF77DFF2B
:10A58400019009E01A4B1B681846FFF7A3FF0190DE
:10A5940002E00323019300BF019B002B02D0112B87
:10A5A4000CD00FE0114B1B7C83F00103DBB2002BBA
:10A5B40018D00021022000F06FF813E00B4B0122A9
:10A5C4001A7210E00A4B1B6803211846FFF712FFAA
:10A5D400064B00221A72054B00225A60FFF78AFFCD
:10A5E40000BF00E000BF03B05DF804FB6C2900204D
:10A5F4008029002084B001901B4B0022DA60019B6B
:10A604001B79002B02D0012B19D028E0019B5A6939
:10A61400019B9B69D31AB3F5805F28BF4FF4805325
:10A624000393019B9A69039B1A44019B9A61019BC2
:10A634009A69019B5B699A420ED1012310E0019B48
:10A644001B695A1C019B1A61019B1A69019B5B6976
:10A654009A4203D1012303E000BF00E000BF0023BE
:10A66400184604B0704700BF6C29002082B00190E6
:10A67400084BDB680133074AD360064BDB68082BC1
:10A6840004D9044B0022DA60012300E000231846B9
:10A6940002B070476C29002000B585B0019000918C
:10A6A400019B022B02D0019B032B49D1274B1B7A20
:10A6B400012B35D0022B02D0002B43D033E00023F2
:10A6C4008DF80F30019B022B02D0032B09D011E02F
:10A6D4001F4B1B681846FFF78DFF03468DF80F309C
:10A6E40008E01B4B1B681846FFF7C0FF03468DF8B4
:10A6F4000F3000BF9DF80F30002B13D0134B0022F6
:10A704001A72134B1A68019B022B01D1002300E03B
:10A714000D2319461046FFF76DFEFFF7EBFE01E02F
:10A7240000BF00E000BF094B5B7C83F00103DBB298
:10A73400002B02D0FFF702FF05E013F07DF802E0E2
:10A7440000BF00E000BF05B05DF804FB6C290020E9
:10A754008029002082B0034600918DF80730064B13
:10A7640001225A74044B1B7A002B0CBF01230023D3
:10A77400DBB2184602B070476C29002000B583B0E4
:10A78400034600918DF807309DF80730012B03D064
:10A794009DF80730032B0DD1084B00225A749DF805
:10A7A4000730012B0CBF01230023DAB2034B1A74C8
:10A7B400FFF7C4FE00BF03B05DF804FB6C29002062
:10A7C40000B583B001900198FEF760FF0346184678
:10A7D40003B05DF804FB00B58BB001900091019BC0
:10A7E4001B8A043B0793009A079B1344DA1C079BBC
:10A7F400B2FBF3F38DF81B300198FEF7A3FF05902D
:10A80400059B002B01D1002338E0059B00221A711F
:10A81400059B01225A71079B9AB2059BDA80059B1E
:10A8240009939DF81B30013B0493099B019A1A601C
:10A83400002308931DE00198FEF784FF0390039B17
:10A84400002B0ED0059B5B790133DAB2059B5A715C
:10A85400099B039A1A60039B019A1A60039B09934C
:10A8640004E0059800F00EF8002307E0089B01338C
:10A874000893089A049B9A42DDD3059B18460BB0B3
:10A884005DF804FB00B58BB00190019B0793079B17
:10A894005B798DF81B30019B08939DF81B30013BBD
:10A8A40005930023099305E0089B1B680893099B03
:10A8B40001330993099A059B9A42F5D3089B1B68B7
:10A8C4000493019B0893002309930BE0089B1B68E6
:10A8D400039308990498FEF77FFF039B0893099B51
:10A8E400013309939DF81B30099A9A42EED300BFB5
:10A8F4000BB05DF804FB00B585B00190019B039398
:10A90400039B043301211846FEF741FE00BF05B046
:10A914005DF804FB00B587B00190019B0593059B8E
:10A92400043301211846FEF74AFE0346039303ABA2
:10A934000493049B1B78002B02D10198FFF7A2FF1C
:10A9440000BF07B05DF804FB00B591B0039002911D
:10A9540001920093039B002B03D14349B62004F0DA
:10A964007BFA039B0993039B0F93099BDB881A468D
:10A97400099B5B7903FB02F3043B0893009A089B51
:10A984009A4203D33849C42004F066FA099BDB8851
:10A994000793009B1A1D079BB2FBF3F30E93009BD6
:10A9A4000433079AB3FBF2F2079901FB02F29B1AF4
:10A9B4000D93019B1A68009B1344089A9A4203D290
:10A9C400089A009BD31A01E0019B1B680C93019B1E
:10A9D4000C9A1A6005E00F9B1B680F930E9B013BBA
:10A9E4000E930E9B002BF6D100230B93079A0D9B1D
:10A9F400D31A0A930A9A0C9B934228BF13460A93CC
:10AA04002AE0029A0B9B134406930F9A0D9B13445E
:10AA1400043305939DF84830002B05D00A9A059914
:10AA2400069813F0A0F904E00A9A0699059813F021
:10AA34009AF900230D930F9B1B680F930C9A0A9BA2
:10AA4400D31A0C930B9A0A9B13440B93079A0C9BEF
:10AA5400934228BF13460A930C9B002BD1D100BF0D
:10AA640011B05DF804FB00BFD4F7030000B589B052
:10AA74000590049103920293039B079307AA002372
:10AA84000093029B04990598FFF75EFF079B039AC6
:10AA94009A4203D00349F62004F0DEF900BF09B05E
:10AAA4005DF804FBD4F7030000B589B00590049168
:10AAB40003920293039B079307AA01230093029B2B
:10AAC40004990598FFF740FF079B039A9A4204D024
:10AAD40004494FF4807004F0BFF900BF09B05DF879
:10AAE40004FB00BFD4F7030082B003468DF807309F
:10AAF4009DF90730002B0DDB9DF8073003F01F0292
:10AB040006499DF907305B09012000FA02F260331F
:10AB140041F8232000BF02B0704700BF00E100E00D
:10AB2400BFF34F8F054BDB6803F4E0620349044B2A
:10AB34001343CB60BFF34F8F00BFFDE700ED00E090
:10AB44000400FA0500B583B00190019B002B03D1EA
:10AB54000449C42004F080F9019B5B68184603B0E3
:10AB64005DF804FB3CF8030000B583B00190019B41
:10AB7400002B03D10649722004F06EF9019B0022D8
:10AB84001A60BFF35F8F00BF03B05DF804FB00BF22
:10AB9400C0F8030000B585B00190019B002B03D1E0
:10ABA4000A49852004F058F901210198FEF760FC58
:10ABB4000390BFF35F8F039B002B0CBF0123002383
:10ABC400DBB2184605B05DF804FB00BFC0F8030013
:10ABD40000B583B00190019B002B03D10A49922058
:10ABE40004F03AF9019B1B68012B03D0064993201A
:10ABF40004F032F9BFF35F8F019B00221A6000BF9B
:10AC040003B05DF804FB00BFC0F8030033DF7047F6
:10AC140000BF184641DF704700BF18464FF080431D
:10AC24000122C3F80025BFF34F8F20BFFDE70000CA
:10AC340000B585B000238DF803300DF103031846E9
:10AC4400FCF7DCFEF1EE103A0193019B0393039BA6
:10AC540023F09F030293029BE1EE103ABFF35F8F50
:10AC64002620FFF741FF9DF803301846FCF7DCFE71
:10AC7400039B03F00703002B03D004497D2004F059
:10AC8400EBF800BF05B05DF804FB00BF30F903002A
:10AC940008B5064B00221A700548FFF765FF054901
:10ACA400054800F0D5F80023184608BD9029002077
:10ACB4008C2900209CF903009429002000B583B05E
:10ACC400FFF7B6FF12F0D4FD0346002B0ED0FFF7BA
:10ACD400A1FF0190019B002B0BD0019B022B08D0FC
:10ACE40006494FF4B07004F0B7F802E020BF40BF4B
:10ACF40020BF00BF03B05DF804FB00BF30F90300C0
:10AD040000B583B00FE02248FFF71CFF0190019BC0
:10AD14001B68204A1278104698470346002B32D00D
:10AD24001B4800F0BFF81A48FFF70CFF0346002B3E
:10AD3400E9D1FCF72BFB00BFFCF7E8F80346002B36
:10AD4400FAD1144B1B78032B03D0124B1B78022B24
:10AD540001D1FFF7E5FE12F08BFD0346002B0FD067
:10AD6400FFF754FF0090009B002B07D0009B022BA1
:10AD740004D009494FF4D17004F06EF820BFFDE708
:10AD8400FFF74CFF00E000BF03B05DF804FB00BF19
:10AD9400942900208829002030F9030000B583B0ED
:10ADA40003468DF807301748FFF7F4FE034683F097
:10ADB4000103DBB2002B21D19DF80730042B0ED008
:10ADC400114B1B78002B03D00E48FFF701FF16E050
:10ADD4000E4A9DF8073013700B4B01221A700A4B70
:10ADE4001B78002B04D10A4940F2D51004F034F842
:10ADF400FFF786FF0348FFF7EBFE00E000BF03B058
:10AE04005DF804FB8C29002090290020882900206B
:10AE140030F9030082B00190019B9B6800229A6084
:10AE2400019B9B6800221A61019B9B6800225A6166
:10AE3400019B9B680022DA60019B9B6800225A6098
:10AE4400019B9B6800221A6000BF02B0704700009B
:10AE540000B583B001900091019B002B03D11049F0
:10AE6400502003F0F9FF009B002B03D10C49512023
:10AE740003F0F2FF019B009A1A60019B1B681A6899
:10AE8400019B5A60019B5A68019B1B685B689A424C
:10AE940002D1019B00225A6000BF03B05DF804FB9D
:10AEA400A8F9030000B583B00190019B002B03D1E6
:10AEB4001449632003F0D0FF019B1B68002B03D1CE
:10AEC4001049642003F0C8FF019B5B68002B14D079
:10AED400019B5B681A46019B1B689B6813441A46D6
:10AEE400019B5A60019B5A68019B1B685B689A42EC
:10AEF40004D1019B00225A6000E000BF03B05DF85A
:10AF040004FB00BFA8F9030000B585B001900198C7
:10AF140000F00EF80390039B002B01D0039B00E08C
:10AF2400024B184605B05DF804FB00BFA4FA030009
:10AF340086B00190164B0593164B04931FE0049AB8
:10AF4400059BD31ADB10DA0F13445B10DB00059A60
:10AF540013440393039B1B680293029A019B9A4236
:10AF640002D9039B04930AE0029A019B9A4203D2FA
:10AF7400039B0833059302E0039B5B6804E0059A96
:10AF8400049B9A42DBD30023184606B0704700BFE7
:10AF9400A4FE0300CCFF0300BFF34F8F054BDB6817
:10AFA40003F4E0620349044B1343CB60BFF34F8FB8
:10AFB40000BFFDE700ED00E00400FA0582B01A4B83
:10AFC4001B68B3F1FF3F0AD1184B1B68DBB2019336
:10AFD400174B1B681B0903F00F03009305E0124B8A
:10AFE4001B680193134B1B680093019B062B17D11D
:10AFF400009B033B032B13D801A252F823F000BF9C
:10B0040015B0020019B002001DB0020021B0020008
:10B01400012306E0012304E0012302E0012300E010
:10B024000023184602B0704730010010E00F00F012
:10B03400E80F00F03401001082B0144B1B68DBB23F
:10B044000193134B1B681B0903F00F030093019B2F
:10B05400062B17D1009B033B032B13D801A252F8F4
:10B0640023F000BF79B002007DB0020081B002007D
:10B0740085B00200012306E0002304E0002302E07F
:10B08400002300E00023184602B07047E00F00F0F0
:10B09400E80F00F082B01A4B1B68B3F1FF3F0AD1EE
:10B0A400184B1B68DBB20193174B1B681B0903F099
:10B0B4000F03009305E0124B1B680193134B1B68AD
:10B0C4000093019B062B17D1009B033B032B13D842
:10B0D40001A252F823F000BFEDB00200F1B002006B
:10B0E400F5B00200F9B00200012306E0012304E0F8
:10B0F400012302E0012300E00023184602B0704758
:10B1040030010010E00F00F0E80F00F034010010EF
:10B1140082B0144B1B68DBB20193134B1B681B09F1
:10B1240003F00F030093019B062B17D1009B033BF5
:10B13400032B13D801A252F823F000BF51B102002F
:10B1440055B1020059B102005DB10200012306E0CD
:10B15400002304E0002302E0002300E0002318465B
:10B1640002B07047E00F00F0E80F00F082B01A4B15
:10B174001B68B3F1FF3F0AD1184B1B68DBB2019384
:10B18400174B1B681B0903F00F03009305E0124BD8
:10B194001B680193134B1B680093019B062B17D16B
:10B1A400009B033B032B13D801A252F823F000BFEA
:10B1B400C5B10200C9B10200CDB10200D1B1020093
:10B1C400012306E0012304E0012302E0012300E05F
:10B1D4000023184602B0704730010010E00F00F061
:10B1E400E80F00F03401001082B0144B1B68DBB28E
:10B1F4000193134B1B681B0903F00F030093019B7E
:10B20400062B17D1009B033B032B13D801A252F842
:10B2140023F000BF29B202002DB2020031B20200B5
:10B2240035B20200012306E0002304E0002302E01B
:10B23400002300E00023184602B07047E00F00F03E
:10B24400E80F00F082B0144B1B68DBB20193134B80
:10B254001B681B0903F00F030093019B062B17D1F6
:10B26400009B033B032B13D801A252F823F000BF29
:10B2740085B2020089B202008DB2020091B20200CE
:10B28400012306E0002304E0002302E0002300E0A1
:10B294000023184602B07047E00F00F0E80F00F0FA
:10B2A40082B01A4B1B68B3F1FF3F0AD1184B1B68DD
:10B2B400DBB20193174B1B681B0903F00F030093C8
:10B2C40005E0124B1B680193134B1B680093019B11
:10B2D400062B17D1009B033B032B13D801A252F872
:10B2E40023F000BFF9B20200FDB2020001B3020074
:10B2F40005B30200002306E0002304E0012302E07A
:10B30400012300E00023184602B07047300100100A
:10B31400E00F00F0E80F00F03401001082B01A4B87
:10B324001B68B3F1FF3F0AD1184B1B68DBB20193D2
:10B33400174B1B681B0903F00F03009305E0124B26
:10B344001B680193134B1B680093019B062B17D1B9
:10B35400009B033B032B13D801A252F823F000BF38
:10B3640075B3020079B302007DB3020081B3020019
:10B37400012306E0012304E0012302E0012300E0AD
:10B384000023184602B0704730010010E00F00F0AF
:10B39400E80F00F03401001082B01A4B1B68B3F1BF
:10B3A400FF3F0AD1184B1B68DBB20193174B1B6894
:10B3B4001B0903F00F03009305E0124B1B68019374
:10B3C400134B1B680093019B062B17D1009B033B77
:10B3D400032B13D801A252F823F000BFF1B30200EB
:10B3E400F5B30200F9B30200FDB30200012306E045
:10B3F400012304E0012302E0012300E000231846B6
:10B4040002B0704730010010E00F00F0E80F00F0C8
:10B414003401001082B0124B1B680193114B1B685E
:10B424000093019B062B17D1009B033B032B13D8DE
:10B4340001A252F823F000BF4DB4020051B402003F
:10B4440055B4020059B40200002306E0002304E0CE
:10B45400002302E0012300E00023184602B07047F5
:10B464003001001034010010024B034A1A6000BF7F
:10B47400704700BFA82200200090D00308B5FFF752
:10B484009DFD0346002B06D09F4B1B681B0A9F4A59
:10B4940003F01F031360FFF7CFFD0346002B02D018
:10B4A4009B4B9C4A1A60FFF7F5FD0346002B06D020
:10B4B400994B1B685B0B994A03F007031360FFF772
:10B4C40027FE0346002B05D0954BDB68944A23F0F6
:10B4D4008073D360FFF74AFE0346002B0ED04FF073
:10B4E40080430022C3F80C214FF080430022C3F8AC
:10B4F40010214FF080430022C3F83825FFF774FE73
:10B504000346002B02D0874B03221A60FFF79AFEF2
:10B514000346002B0BD0844B05221A60834B012277
:10B524001A60834B00221A60824B3F221A60FFF795
:10B53400B7FE0346002B76D04FF080537E4AD3F8F3
:10B544000434C2F820354FF080537B4AD3F80834D2
:10B55400C2F824354FF08053774AD3F80C34C2F83C
:10B5640028354FF08053744AD3F81034C2F82C3580
:10B574004FF08053704AD3F81434C2F830354FF08A
:10B5840080536D4AD3F81834C2F834354FF08053E1
:10B59400694AD3F81C34C2F840354FF08053664AE8
:10B5A400D3F82034C2F844354FF08053624AD3F8BC
:10B5B4002434C2F848354FF080535F4AD3F8283416
:10B5C400C2F84C354FF080535B4AD3F82C34C2F8A0
:10B5D40050354FF08053584AD3F83034C2F85435BC
:10B5E4004FF08053544AD3F83434C2F860354FF0E6
:10B5F4008053514AD3F83834C2F864354FF080533D
:10B604004D4AD3F83C34C2F868354FF080534A4A67
:10B61400D3F84034C2F86C354FF08053464AD3F81F
:10B624004434C2F87035FFF779FE0346002B05D089
:10B63400424B1B68424A03F04F031360FFF7ACFE12
:10B644000346002B0DD04FF08043D3F8003403F0B1
:10B654000103002B05D04FF080436FF00102C3F8C3
:10B664000024FFF7D7FE0346002B05D0354B1B689B
:10B67400344A43F480631360334BD3F88830324A3E
:10B6840043F47003C2F88830BFF34F8FBFF36F8F5A
:10B694004FF01023D3F80032002B05DB4FF01023BA
:10B6A400D3F80432002B2BDA284B0122C3F80425EB
:10B6B40000BF264BD3F80034002BFAD04FF01023F0
:10B6C4001522C3F8002200BF204BD3F80034002B0E
:10B6D400FAD04FF010231522C3F8042200BF1B4BED
:10B6E400D3F80034002BFAD0184B0022C3F80425F9
:10B6F40000BF164BD3F80034002BFAD0FFF74CFCF4
:10B70400FFF7B2FE00BF08BD24030010403501401E
:10B7140074C007400DF0ADBA440200103C0500406F
:10B72400F0ED00E0A00500401056004088560040AF
:10B73400185600401456004000C000405802001043
:10B74400E40E00403C17004000ED00E000E0014042
:10B7540082B003468DF807309DF90730002B0CDBCF
:10B764009DF8073003F01F0205499DF907305B0976
:10B77400012000FA02F241F8232000BF02B0704712
:10B7840000E100E082B0034600918DF807309DF996
:10B794000730002B0ADB009BDAB20C499DF9073015
:10B7A4005201D2B20B4483F800230BE0009BDAB2BF
:10B7B40007499DF8073003F00F03043B5201D2B24E
:10B7C4000B441A7600BF02B0704700BF00E100E0EE
:10B7D40000ED00E082B00190019B1B0B5BB21846A8
:10B7E40002B0704700B583B003460A468DF80730AF
:10B7F40013468DF806309DF80630012B03D99DF8C9
:10B804000630032B0BD99DF80630042B03D99DF881
:10B814000630072B03D908496B2003F01DFB9DF864
:10B8240006209DF9073011461846FFF7ABFF00BF0D
:10B8340003B05DF804FB00BFCCFF030000B583B088
:10B8440003468DF807309DF907301846FFF780FF4F
:10B8540000BF03B05DF804FB82B003468DF80730E7
:10B864000F4A9DF90730002B00DA1F335B115BB2DE
:10B8740052F823209DF90730594203F01F0301F0C9
:10B884001F0158BF4B425BB222FA03F303F00103DA
:10B89400002B14BF01230023DBB2184602B070470B
:10B8A40000E100E082B001904FF08042019BC2F8B9
:10B8B400043300BF02B0704782B001904FF0804261
:10B8C400019BC2F8083300BF02B0704782B0034640
:10B8D4008DF807309DF8073003F1804301221A6088
:10B8E40000BF02B0704784B00346ADF80630BDF81F
:10B8F400063003F1804300221A60BDF8063003F1DC
:10B9040080431B680393039B00BF04B0704782B05D
:10B914000346ADF80630BDF8063003F180431B68DA
:10B92400002B14BF01230023DBB2184602B070477A
:10B9340082B001904FF08042019BC2F8183500BFDD
:10B9440002B070474FF08043D3F818341B0C03F057
:10B954000103002B14BF01230023DBB218467047F8
:10B9640082B003468DF807304FF08043D3F80C348F
:10B9740003F001129DF8073043F480339A420CBF60
:10B9840001230023DBB2184602B0704700B583B030
:10B9940006238DF807304FF08040FFF71BFF034666
:10B9A4001846FFF759FF034683F00103DBB2002B6F
:10B9B40013D04FF08040FFF70DFF03461A469DF861
:10B9C400073019461046FFF70DFF4FF08040FFF790
:10B9D40001FF03461846FFF731FF00BF03B05DF8CF
:10B9E40004FB000084B0124BDB680393104A039BF2
:10B9F40043F08073D3600F4B1B6802930D4A029B84
:10BA040043F0010313600B4B5B68019300BF094BC8
:10BA14005A68019BD31AB3F50A5FF8D3054A029B0F
:10BA24001360034A039BD36000BF04B0704700BF98
:10BA3400F0ED00E0001000E000B585B00190019B3E
:10BA4400002B03D10D49A42003F006FA002303932D
:10BA54000B4B1B79002B02D08523039308E0084A83
:10BA6400019B1360064B01221A71054B00225A7187
:10BA7400039B184605B05DF804FB00BF30000400CA
:10BA84009C29002008B5094B1B79002B03D10849D8
:10BA9400BD2003F0E1F9FFF779FF0120FFF748FF2C
:10BAA400044B01221A7000BF08BD00BF9C2900206E
:10BAB40030000400A429002008B5084B1B79002B92
:10BAC40003D10749E12003F0C7F900F027F800F09B
