:020000022000DC
:1060000000000120756302005D6302005F6302000F
:106010006163020063630200656302000000000028
:1060200000000000000000000000000067630200A4
:1060300069630200000000006B6302006D630200F0
:1060400021C102006F63020025A60200C5BF020045
:106050006F6302006F63020021A502006F630200FC
:106060006F6302006F6302006F6302006F630200E0
:106070006F6302006F6302006F6302006F630200D0
:106080006F6302006F6302006F6302006F630200C0
:106090006F6302006F630200E18503006F6302001B
:1060A0006F6302006F6302006F6302006F630200A0
:1060B0006F6302006F630200000000000000000038
:1060C0006F6302006F6302006F63020001C302008E
:1060D00049AF02006F6302006F630200000000001E
:1060E00000000000000000000000000000000000B0
:1060F00000000000000000000000000000000000A0
:10610000000000000000000000000000000000008F
:10611000000000000000000000000000000000007F
:10612000000000000000000000000000000000006F
:10613000000000000000000000000000000000005F
:10614000000000000000000000000000000000004F
:10615000000000000000000000000000000000003F
:10616000000000000000000000000000000000002F
:10617000000000000000000000000000000000001F
:10618000000000000000000000000000000000000F
:1061900000000000000000000000000000000000FF
:1061A00000000000000000000000000000000000EF
:1061B00000000000000000000000000000000000DF
:1061C00000000000000000000000000000000000CF
:1061D00000000000000000000000000000000000BF
:1061E00000000000000000000000000000000000AF
:1061F000000000000000000000000000000000009F
:10620000354936480A1A02D0072291438D4634494F
:1062100034480A1A06D00722914381F309880222E2
:1062200082F3148830483149314A00F044F831484B
:106230003149324A00F03FF831483249324A00F0E1
:106240003AF832483249334A00F035F83248334997
:10625000334A00F030F833483349344A00F02BF821
:1062600033483449344A00F026F83448344900228F
:1062700000F02CF833483449002200F027F8334866
:106280003349091A082902DB002202604160314AC1
:1062900090471F481F49884205D00268043003B464
:1062A000904703BCF7E700208646EC46002000211B
:1062B000294A9047FEE7884207D0521A05D0037852
:1062C00001300B700131013AF9D17047884202D098
:1062D00002700130FAE770470000012000E0002062
:1062E00000000120000001205C9C03001C2B00200A
:1062F000342B0020D0630200D0630200768A0300B2
:106300005C9C03001C2B00201C2B0020188B03001E
:10631000188B0300188B0300188B0300188B0300E5
:10632000188B0300188B0300188B03005C9C030080
:10633000749C0300342B0020342B0020342B0020CD
:10634000FC370020FC370020FC370020FC37002001
:10635000FC5700209D63020019C30200FEE7FEE720
:10636000FEE7FEE7FEE7FEE7FEE7FEE7FEE7FEE705
:1063700000F002B8FFF7FCBF0F484FF00701884359
:1063800085460E4880470E48016841F4700101605F
:10639000BFF34F8FBFF36F8FFFF732BF09480A4932
:1063A0000A4A884207D0521A05D0037801300B7090
:1063B0000131013AF9D170470000012071980200C3
:1063C00088ED00E0048B0300082B00201C2B00202C
:1063D00086B003900291019201238DF817309DF849
:1063E0001730204A039B13601E4A029B53601D4ACC
:1063F000019B9360039B44F20102934212D0039BE2
:1064000044F20202934220D1019B164AD360154BFD
:10641000DB681B68134A9361124BDB685B68114AA7
:10642000D36112E0019B0F4A13610E4B1B699B68FD
:106430000C4A53610B4B1B691B680A4A9361094B59
:106440001B695B68074AD36100BF72B600BF00BF1B
:106450009DF81730DBB2002BFAD162B600BF00BF47
:1064600006B07047342B002000B583B00290009135
:10647000019244F2010071466A460AF027F803B01F
:1064800000BD00BF82B0EFF310830093009B019327
:1064900072B600BF019B184602B0704762B600BFDB
:1064A00000BF704700B585B00190FFF7EBFF039088
:1064B000164B9B68002B1BD1144B01229A60144B86
:1064C000D3F88020134B1340104A1360104B114A2D
:1064D000C3F880200E4BD3F884300C4A53600C4B29
:1064E0004FF0FF32C3F88420019B00221A7002E0B3
:1064F000019B01221A70039B002B01D1FFF7CEFFF5
:106500000023184605B05DF804FB00BF542B0020A3
:1065100000E100E0FC06FFBD00B585B003468DF844
:106520000730104B9B68002B16D09DF80730002BCE
:1065300012D1FFF7A7FF03900B4A0A4B1B681360A9
:10654000094A084B5B685360064B00229A60039B24
:10655000002B01D1FFF7A2FF0023184605B05DF81C
:1065600004FB00BF542B002000E100E000B583B025
:10657000019000F02BF80346012B03D0054943207E
:1065800009F09CFF0198FFF78DFF00BF03B05DF895
:1065900004FB00BF188B030000B583B003468DF8E1
:1065A000073000F013F80346012B03D006495120B1
:1065B00009F084FF9DF807301846FFF7ADFF00BFD4
:1065C00003B05DF804FB00BF188B030084B0EFF349
:1065D00005830193019BC3F308030393039B002BE3
:1065E0000DD1EFF314830093009B0293029B03F001
:1065F0000103002B0CBF01230023DBB200E00123C9
:10660000184604B0704782B00190019B03F0030369
:10661000002B0CBF01230023DBB2184602B07047E9
:1066200000B585B00190002303930EE00B4A039B55
:1066300052F82330002B05D0084A039B52F8233030
:1066400001989847039B01330393039B032BEDD9D8
:1066500000BF00BF05B05DF804FB00BF702B002039
:1066600082B001900091019B1B78013B052B61D802
:1066700001A252F823F000BF916602009966020061
:10668000BF660200F1660200116702002D6702007A
:10669000009B00221A704EE0009B01221A70019BA1
:1066A0001A89009B9A81019B9A88009BDA81019B41
:1066B000DA68009B9A60009B00221A743BE0009B02
:1066C00002221A70019B1A89009B9A81019B9A8869
:1066D000009BDA81019BDA68009B9A60019B9B7D9D
:1066E000062B0CBF01230023DAB2009B1A7422E0B0
:1066F000009B03221A70019BDA88009B9A81019B00
:106700001A89009BDA81019BDA68009B9A6012E08B
:10671000009B04221A70019BDA88009B9A81009BDF
:106720000022DA81009B00229A6004E0009B05228F
:106730001A7000E000BF00BF02B0704784B0019043
:106740000091019B0393039A009B9A4206D2039BFC
:106750001B68B3F1FF3F01D0012300E0002303F0E9
:106760000103DBB2184604B0704782B00190019B70
:106770005B8803339B00019A1344184602B07047AC
:1067800000B583B0019000910198FFF7EEFF02463B
:10679000009B934201D2022311E0019B9B884FF69C
:1067A000FF72934208D0019B1B88002B04D0019BF1
:1067B0009B68B3F1FF3F01D1012300E0002318469D
:1067C00003B05DF804FB000000B583B00190019BAD
:1067D000002B13D00D4BDB681A46019B93420DD35F
:1067E0000A4B1B691A46019B934207D80198FFF791
:1067F0000AFF0346002B01D0012300E0002303F031
:106800000103DBB2184603B05DF804FB082B00203F
:1068100082B00190019B002B04D0019B1B680B4AA6
:10682000934201D003230DE0019B04331B68084A07
:10683000934204D0074A934203D1012302E000238C
:1068400000E00323184602B0704700BFDEC0ADDE93
:10685000FE011EF1FF011EF184B00190019B1B6837
:10686000B3F1FF3F06D0019B1B680E4A934201D053
:10687000002314E0012303930CE0039B9B00019A87
:1068800013441B68B3F1FF3F01D0002307E0039BD3
:1068900001330393039BB3F5806FEED301231846B6
:1068A00004B07047DEC0ADDE82B003460A46ADF8E4
:1068B00006301346ADF80430BDF8062013491346E0
:1068C0009B0013449B000B4408331A88BDF8043026
:1068D0001344ADF80430BDF806200C4913469B0064
:1068E00013449B000B440A331A88BDF80430134448
:1068F000ADF80430BDF80430B3F5806F94BF0123C8
:106900000023DBB2184602B0704700BF202C0020E5
:1069100084B00190009148F2096303930023ADF81D
:106920000A3027E0BDF80A20164913469B0013449D
:106930009B000B4404331B68009A9A4215D9BDF89A
:106940000A20104913469B0013449B000B44043358
:106950001B6803F58053009A9A4206D200230393E2
:10696000019BBDF80A201A8008E0BDF80A30013307
:10697000ADF80A30BDF80A30012BD3D9039B184675
:1069800004B07047202C002000B589B0039002911C
:106990000192039B03F580530693039B08330393F3
:1069A000029B02221A80039B079332E00699079804
:1069B000FFF7E6FE03468DF817309DF81730002BE1
:1069C0000AD1079B9A68184B1B689A4213D9079BF8
:1069D0009B68154A13600EE0019B002B02D0019BBF
:1069E00001221A709DF81730022B04D1029B4FF43C
:1069F00080621A8014E0029B1A88079B5B8813440C
:106A00009BB203339AB2029B1A800798FFF7ADFE40
:106A1000079006990798FFF791FE0346002BC5D112
:106A200009B05DF804FB00BF802B002082B001900C
:106A30000091009B9B7D022B09D9019B1A89009B29
:106A4000DB8813449BB203339AB2019B1A81019BEA
:106A50005A89009BDB88D31A9BB2033B9AB2019BF5
:106A60005A8100BF02B0704700B583B0074B1B6866
:106A70001946002300930823054A064801F0F4FE56
:106A80000346184603B05DF804FB00BF482C002005
:106A9000E88B0300082B002000B585B00390039914
:106AA000002300930823044A044801F0DDFE034656
:106AB000184605B05DF804FBF08B0300082B00209E
:106AC00000B585B003460091ADF8063000238DF87F
:106AD0000F30BDF806300333ADF80A30BDF80A3088
:106AE00040F2FE32934202D948F208634BE00023A1
:106AF000ADF80C303BE0BDF80C20254913469B0057
:106B000013449B000B441B78002B2BD1BDF80A20AB
:106B1000BDF80C3011461846FFF7C6FE0346002BA1
:106B200020D001238DF80F30009BBDF80C201A8077
:106B3000BDF80C20164913469B0013449B000B44E0
:106B40000A331988BDF80C20BDF80A300B4498B2FE
:106B50000F4913469B0013449B000B440A33024623
:106B60001A8008E0BDF80C300133ADF80C30BDF8E8
:106B70000C30012BBFD99DF80F30002B01D0002322
:106B800001E048F20663184605B05DF804FB00BF5B
:106B9000202C002082B003460A46ADF8063013468A
:106BA000ADF80430BDF804200D4913469B00134492
:106BB0009B000B440A331A88BDF80630D31A9BB2E7
:106BC000BDF80420033B98B2054913469B001344CB
:106BD0009B000B440A3302461A8000BF02B0704784
:106BE000202C002008B50121024801F0E4FD0346F5
:106BF000184608BD802B002000B585B003460091E3
:106C0000ADF80630BDF80620244913469B00134416
:106C10009B000B4404331B6803F580530293009BD5
:106C20001B680393039B002B04D00398FFF79DFD83
:106C3000039026E0BDF80620184913469B00134434
:106C40009B000B4404331B680833039319E002993B
:106C50000398FFF795FD0346022B10D0022B10DCA2
:106C6000002B02D0012B05D00BE0009B039A1A6089
:106C700001230EE00398FFF778FD039001E0002365
:106C800007E002990398FFF759FD0346002BDED178
:106C90000023184605B05DF804FB00BF202C00203F
:106CA00000B585B001900091019B5B681846FFF725
:106CB0008BFD0346002B19D0019B1A89244B1B899D
:106CC0009A4213D1019B1A68019B5B689B689A42A8
:106CD0000CD1019B5B6819460098FFF719FE03462B
:106CE000002B0CBF01230023DBB22CE0009B002211
:106CF0001A8023E00023029310E0029B0393039B7E
:106D00009A68019B1B689A4208D1029A019B5A60BB
:106D10000F4B1A89019B1A81012314E0009B1B88E9
:106D200002AA11461846FFF767FF0346002BE4D17D
:106D3000009B1B8801339AB2009B1A80009B1B8822
:106D4000012BD7D90023184605B05DF804FB00BF1E
:106D5000502C002000B587B003900291019200935F
:106D6000324B1B78DBB283F00103DBB2002B02D085
:106D700048F2016355E0019B002B02D0009B002BE1
:106D800049D148F204634CE0009B9B881946284A8D
:106D90000B469B000B449B0013441B78002B33D104
:106DA00024E0009B1B680593039B002B06D0059BEA
:106DB0009A88039B1B889A4200D017E0029B002B05
:106DC00006D0059B1A88029B1B889A4200D00DE0D2
:106DD000059B9A68019B1A60009B1A68019B5A6088
:106DE000144B1A89019B1A8100231AE0009B9B888F
:106DF000009A11461846FFF7FFFE0346002BD0D13C
:106E0000009B00221A6000E000BF009B9B880133BA
:106E10009AB2009B9A80009B9B88012BB4D948F2C0
:106E20000963184607B05DF804FB00BF602B002023
:106E3000202C0020502C002000B585B00190084B7C
:106E40000199184601F01AFB03901C2200210398B7
:106E500011F0AEFD039B184605B05DF804FB00BFC2
:106E6000102C002000B583B00190044B0199184606
:106E700001F01DFB00BF03B05DF804FB102C0020E7
:106E800000B583B00190054B0199184601F023FB32
:106E90000346184603B05DF804FB00BF102C002029
:106EA00000B583B00190044B0199184601F02CFB0A
:106EB00000BF03B05DF804FB102C002008B50A4B9E
:106EC0001B68002B04D109494FF4247009F0F6FA2D
:106ED0000121054801F087FC0346002B14BF012364
:106EE0000023DBB2184608BD682B0020888B030006
:106EF00000B587B0002305930023ADF812300323BB
:106F0000ADF8103000238DF80F300023ADF80C30B1
:106F1000F7E0BDF80C301A03824BDB681344029390
:106F20000298FFF775FC03468DF807309DF807308F
:106F3000032B08D0032B00F3DE80002B65D0012B40
:106F400000F09880D7E00298FFF786FC0346002BFC
:106F50003BD0754B1B68002B29D0BDF8122073491C
:106F600013469B0013449B000B4402221A70BDF889
:106F700012206E4913469B0013449B000B440433BC
:106F8000029A1A60BDF81220684913469B00134408
:106F90009B000B44083302221A80654ABDF8123068
:106FA0005380BDF812300133ADF8123008E05E4A6C
:106FB000029B13605C4B02229A8001238DF80F30F4
:106FC000059B43F00103059396E0BDF81030013BAB
:106FD000ADF81030BDF81220544913469B001344FD
:106FE0009B000B440433029A1A60BDF812204F49EB
:106FF00013469B0013449B000B4403221A70BDF8F8
:1070000012300133ADF8123076E0BDF81220474956
:1070100013469B0013449B000B4400221A70BDF8DA
:107020001220424913469B0013449B000B44043337
:10703000029A1A60BDF8122013469B0013449B006D
:1070400008333A4A9918BDF8122013469B0013449E
:107050009B001033354A13441A460298FFF794FCFC
:10706000059B43F002030593BDF812300133ADF8E0
:10707000123041E09DF80F30002B29D0BDF81220CE
:107080002A4913469B0013449B000B4402221A70AA
:10709000BDF81220244B1968244813469B00134462
:1070A0009B00034404331960BDF812201F491346A6
:1070B0009B0013449B000B44083302221A801C4A95
:1070C000BDF812305380BDF812300133ADF81230E4
:1070D000154A029B1360002216490298FFF754FCE0
:1070E000114B9B88022B01D1042300E00823059A51
:1070F0001343059300E000BFBDF80C300133ADF839
:107100000C30BDF80C30022B7FF603AFBDF8103009
:10711000012B01D800230593059BDBB2184607B06D
:107120005DF804FB082B0020482C0020202C0020B8
:10713000502C00204C2C002000B587B00390029109
:10714000039B02229A750299039B1A1D0023009348
:107150000423074801F088FB0590059B002B01D113
:10716000002301E048F20D63184607B05DF804FB08
:10717000082B002000B587B003900291039B1B6988
:10718000002B01D0032200E00122039B9A75029B91
:1071900008331946039B03F10C02002300930423D8
:1071A000074801F061FB0590059B002B01D10023EE
:1071B00001E048F20D63184607B05DF804FB00BF1C
:1071C000082B002000B587B003900291039B1B7829
:1071D000032B01D1052200E00622039B9A75029B36
:1071E00004331946039B03F1080200230093042390
:1071F000074801F039FB0590059B002B01D10023C6
:1072000001E048F20D63184607B05DF804FB00BFCB
:10721000082B002000B587B003900B46ADF80A306C
:1072200003990023009304230D4A0E4801F01CFB30
:107230000590059B002B02D048F20D630BE0BDF8D2
:107240000A20094913469B0013449B000B4410334A
:1072500001221A700023184607B05DF804FB00BF36
:10726000F88B0300082B0020202C002000B589B0EB
:10727000019002AB00221A605A609A60019BDB68A1
:1072800002930DF1160202AB11461846FFF708FDF6
:107290000346002B12D0039B0693069B9A88019B02
:1072A000DA80069B1A88019B1A81039BBDF8162081
:1072B00011461846FFF7AEFF079002E048F2096357
:1072C0000793079B184609B05DF804FB00B587B02B
:1072D0000190019B981D02AA0D4B0021FFF73AFD7A
:1072E0000590059B002B08D1039B094A9288114603
:1072F0001846FFF78FFF059004E00822002104489C
:1073000011F056FB059B184607B05DF804FB00BF63
:10731000602C002000B587B003900291039B0122EE
:107320009A75029B0C331846039B1A69039BDB88F2
:107330009B00002100910146074801F095FA059055
:10734000059B002B01D1002301E048F20D63184694
:1073500007B05DF804FB00BF082B002082B0184B7B
:107360001B8901339AB2164B1A81154B00225A80A1
:10737000134B00221A730023ADF8063018E0BDF855
:107380000620104913469B0013449B000B441A78B7
:10739000BDF80630002A0CBF01220022D1B2084AF3
:1073A00013440A469A72BDF806300133ADF8063030
:1073B000BDF80630012BE2D900BF00BF02B0704714
:1073C000502C0020202C002084B0019000238DF848
:1073D0000F300023ADF80C3031E0BDF80C301C4A02
:1073E00013449B7A002B25D0BDF80C30184A134467
:1073F00000229A72BDF80C20164913469B001344D4
:107400009B000B440C331B68002B13D1BDF80C20E0
:10741000104913469B0013449B000B4410331B7808
:10742000002B07D0019BBDF80C201A8001238DF89A
:107430000F3008E0BDF80C300133ADF80C30BDF86A
:107440000C30012BC9D99DF80F30184604B0704795
:10745000502C0020202C002008B5084B05221A7063
:10746000074B02229A80064B1B6819460023012213
:10747000044801F04AFA0346184608BD502C002083
:10748000482C0020082B002000B583B0164B5B88E9
:10749000ADF80230BDF80220144913469B00134496
:1074A0009B000B440C331B68002B14D10E4B0422A1
:1074B0001A70BDF802200D4913469B0013449B002F
:1074C0000B4404331B68194600230122084801F0CD
:1074D0001CFA019002E0FFF7BFFF0190019B1846E4
:1074E00003B05DF804FB00BF502C0020202C0020CE
:1074F000082B002000B587B0104B5B680593104B3C
:107500001A680F4B9B889B0013440493059B5B8870
:107510000333ADF80E30094B03221A700499074B60
:107520005A68BDF80E309B0000200090054801F01D
:107530009BF90346184607B05DF804FB502C002069
:10754000482C0020082B002000B583B00A4B5B8834
:107550000A491846FFF750FB0346002B03D0FFF7FC
:10756000C9FF019002E0FFF78FFF0190019B1846D1
:1075700003B05DF804FB00BF502C0020542C002009
:1075800008B50A4B06221A70084B5B881946084A50
:107590000B469B000B449B00134404331B681846A6
:1075A000FFF77AFA0346184608BD00BF502C0020AA
:1075B000202C002008B5054B07221A70034B00222F
:1075C0005A60FFF751FA0346184608BD502C0020B8
:1075D00008B50D48FFF7F8FE034683F00103DBB260
:1075E000002B0BD0094B00221A70084B00225A8046
:1075F000064B00225A6041F61D5302E0FFF7A4FF3C
:107600000346184608BD00BF522C0020502C002015
:1076100082B0094B5B680193019B5B880333ADF833
:107620000230064B9A88BDF8023013449AB2034BDD
:107630009A8000BF02B07047502C0020482C0020D8
:1076400082B01E4B1B6801931D4B5B8819461D4A77
:107650000B469B000B449B00134404331B68174AE2
:107660001360174B5B881946164A0B469B000B4468
:107670009B0013440433019A1A60114B5B8819462E
:107680000E4B98880F4A0B469B000B449B001344FB
:10769000083302461A80094B02229A80084B5B8805
:1076A0001946084A0B469B000B449B0013441033B9
:1076B00000221A7000BF02B0704700BF482C0020A3
:1076C000502C0020202C002008B51A4B1B78072BCB
:1076D0002CD801A252F823F0F97602002D7702008F
:1076E0002D77020005770200117702001D77020056
:1076F0001D77020025770200FFF730FE0D4B0122B7
:107700001A7014E0FFF784FF0A4B02221A700EE091
:10771000FFF796FF074B06221A7008E0054B072279
:107720001A7004E0034B01221A7000E000BF00BF92
:1077300008BD00BF502C002000B587B0019000911B
:1077400048F20E630593019B002B05D0634B00228A
:107750005A604FF40643BCE0009B1B79032B00F2F8
:10776000AB8001A252F823F07977020087770200FC
:107770001578020035780200009B01221A71FFF78C
:1077800073F905909BE000238DF813300023ADF8CA
:1077900010302BE0BDF81020514913469B001344D4
:1077A0009B000B441B78022B1BD1BDF810204C49C9
:1077B00013469B0013449B000B4400221A700123C4
:1077C0008DF81330BDF81020454913469B00134433
:1077D0009B000B4404331B681846FFF75DF90590C6
:1077E00008E0BDF810300133ADF81030BDF81030AE
:1077F000012BCFD99DF8133083F00103DBB2002BAE
:107800005CD0364B01221A70344B00225A6041F68C
:107810001D535EE0009B00221A71324B02229A80B7
:10782000304B1B681946002301222F4801F06DF8E8
:10783000059044E0009B00221A712A4B1B681846F1
:10784000FFF72AF90590294B5B88ADF80E30254BE0
:107850001B680293BDF80E20214913469B00134478
:107860009B000B4404331B681E4A1360BDF80E20B6
:107870001B4913469B0013449B000B440433029A9C
:107880001A60BDF80E20174B9888154913469B00C7
:1078900013449B000B44083302461A80114B02220A
:1078A0009A80BDF80E200E4913469B0013449B009E
:1078B0000B4400221A7002E000BF00E000BF059BED
:1078C000002B05D0054B00225A6048F20D6300E002
:1078D0000023184607B05DF804FB00BF602B0020B2
:1078E000202C0020482C0020082B0020502C0020A9
:1078F00000B587B001900091009B9B8A1A46134601
:107900009B0013449B003B4A13440493019B002BB0
:1079100006D000990498FFF789F84FF4064364E015
:10792000049B5A68049B1B899B0013440393009B90
:107930009B7D062B4DD801A252F823F081790200DD
:10794000A57902008D790200997902005979020027
:10795000B1790200CB790200274B00225A60009BCC
:107960009B69254A136025492348FFF799F9034687
:1079700083F00103DBB2002B02D048F2096334E04C
:1079800003990098FFF7D8FB059026E0039900982B
:10799000FFF7F0FB059020E003990098FFF7BAFC91
:1079A00005901AE003990098FFF70CFC059014E08D
:1079B000009B06229A75104B5B68104A128811468C
:1079C0001846FFF727FC059007E041F61D53059385
:1079D00003E048F20E63059300BF059B002B03D024
:1079E00000990498FFF722F8059B184607B05DF848
:1079F00004FB00BF202C0020682C0020742C0020E9
:107A000000B585B001900091019B002B02D04FF48E
:107A1000064329E0009B1B79022B1BD0022B1DDCA7
:107A2000002B02D0012B08D018E0009B02221A7113
:107A30000098FFF71BFC039015E00098FFF746FC49
:107A40000390039B48F2096293420BD141F61D5308
:107A5000039307E041F61D53039304E048F20E63DD
:107A6000039300E000BF039B184605B05DF804FBDC
:107A700000B585B00190019B002B02D04FF4064366
:107A80003DE0214B1B7B002B03D01F4B00221A73C0
:107A900001E0FFF719FE1C4B1B78013B062B29D890
:107AA00001A252F823F000BFC57A0200CD7A02008D
:107AB000D57A0200DD7A0200F57A0200E57A02004A
:107AC000ED7A0200FFF784FD039017E0FFF73CFD1D
:107AD000039013E0FFF70EFD03900FE0FFF7D4FCD7
:107AE00003900BE0FFF74CFD039007E0FFF762FD0A
:107AF000039003E048F20E63039300BF039B184614
:107B000005B05DF804FB00BF502C002000B589B023
:107B10000190404B1B68002B05D13F48FFF7B0F99F
:107B200003463C4A13603B4B1B68002B04D13B4986
:107B300040F29E5008F0C2FC364B1B681B78013B9C
:107B4000052B2CD801A252F823F000BF657B020060
:107B5000757B0200757B0200857B0200857B02003D
:107B6000957B02002B4B1B6819460198FFF7E4FD3B
:107B7000019018E0274B1B6819460198FFF7B8FEE3
:107B8000019010E0234B1B6819460198FFF738FF5E
:107B9000019008E00198FFF76BFF019003E048F2C5
:107BA0000E63019300BF019B002B2BD003AB00227F
:107BB0001A605A609A60DA601A61019B41F61D52A0
:107BC000934201D0019B00E000230493114B1B68FA
:107BD00003AA11461846FEF743FD03AB1846FEF70D
:107BE0001FFD0C4B00221A60002301930A48FFF787
:107BF00057F9FFF763F9034683F00103DBB2002B6B
:107C000002D186E700BF00E000BF00BF09B05DF809
:107C100004FB00BF782C00207C2C0020888B030004
:107C200008B50121054800F0AEFD0346002B02D146
:107C30000020FFF76BFF00BF08BD00BF682B0020CE
:107C400000B583B00190019B5B681846FFF75EFFAB
:107C500000BF03B05DF804FB00B58BB00390029148
:107C600001928DF803300023ADF824300023ADF8E5
:107C70002630534B1B78DBB283F00103DBB2002BC1
:107C800002D048F2016397E0029B002B02D148F238
:107C9000046391E0029B1B884FF6FF72934203D06E
:107CA000029B5B88002B02D148F2036384E0029BB5
:107CB0005B681846FEF7A7FC034683F00103DBB2BE
:107CC000002B02D048F2026376E0019B002B11D119
:107CD000029B9B68ADF826300DF11A02BDF82630E4
:107CE00011461846FEF7ECFE0890089B002B09D0C1
:107CF000089B61E0019B1B88ADF81A30019B5B88F3
:107D0000ADF8263005AB1846FFF796F80790079BAD
:107D1000002B0AD1BDF81A20BDF8263011461846AE
:107D2000FEF738FF48F2076346E0079B9DF8032003
:107D30001A70079B00229A75BDF81A20079B9A8239
:107D4000029B5A68079B1A61FEF74CFF0246079B8D
:107D5000DA60029B1A88079B1A81029B5A88079B4C
:107D60009A80079BBDF82620DA809DF80330032B0C
:107D700006D1079B04229A75039B1A68079B9A6198
:107D8000079BBDF824205A8105AB1846FFF76AF817
:107D9000039B002B0DD0039B00225A60079BDA68DF
:107DA000039B1A60039B00229A72064B1A89039B5D
:107DB0001A81FFF735FF002318460BB05DF804FB6E
:107DC000602B0020502C002000B585B001900C4B9A
:107DD0001B68042B03D148F20B6303930BE0084BA1
:107DE0001B680849019A41F823200121044800F04A
:107DF000E2FC00230393039B184605B05DF804FBE7
:107E00006C2B0020702B002084B040F6F8731B68A8
:107E1000B3F1FF3F02D10F4B1B6802E040F6F8734D
:107E20001B6803934FF080531B6902934FF08053FC
:107E30005B690193039BB3F1FF3F04D1019B029A5D
:107E400002FB03F300E0039B0093009B184604B081
:107E5000704700BF1410001000B583B04FF44053BA
:107E60000193FFF7D1FF0346054A1361044B1A69DA
:107E7000019BD31A024AD36000BF03B05DF804FB34
:107E8000082B002008B5FFF7E7FF0022034904484C
:107E900000F0CDFC0346184608BD00BF088C030067
:107EA000082B002008B504481C238C22034900F04D
:107EB0009EFA00BF08BD00BF102C0020842B0020BC
:107EC00000B58BB002AB00221A605A609A60DA608B
:107ED0001A61424B1B78DBB2002B05D002AB18466F
:107EE000FEF79EFB002375E03D4800F094FC03463E
:107EF000002B01D000236DE0FFF7C4FF0990099B20
:107F0000002B01D0099B65E0FFF7CCFFFEF7F0FFE7
:107F100003468DF823309DF82330062B08D0062B1E
:107F200012DC002B01D0022B0ED148F20A6351E083
:107F30002A4B01221A70294B00225A6002AB1846C4
:107F4000FEF76EFB002345E000BF01AB1846FEF7CD
:107F500073FF0790079B002B02D148F2076339E0BB
:107F6000079B01221A709DF82330013B0A2B29D868
:107F700001A252F823F000BFA57F0200C57F0200D6
:107F8000A57F0200C57F0200BD7F0200C57F020001
:107F9000BD7F0200C57F0200AD7F0200B57F0200F9
:107FA000AD7F0200079B00221A710CE0079B0322A1
:107FB0001A7108E0079B02221A7104E0079B012254
:107FC0001A7100E000BF01AB1846FEF74BFFFFF748
:107FD00027FE002318460BB05DF804FB602B002041
:107FE000642B002000B585B001900091019B002B0F
:107FF00002D0009B002B02D148F204632AE00DF16D
:108000000A0319460198FEF74BFE0346002B1FD0CA
:10801000019B5B680393BDF80A301A4613469B0028
:1080200013449B0008330D4A1344043301211846BE
:1080300000F0C1FB009B039A1A60019B5B6803F18F
:108040000C02009B5A60019B01229A72002301E0FE
:1080500048F20963184605B05DF804FB202C0020A7
:1080600000B585B00190019B002B02D148F204635A
:108070003BE00DF10A0319460198FEF711FE034695
:10808000002B2ED0BDF80A3019461A4A0B469B0029
:108090000B449B0013440C331B68002B1DD0019B29
:1080A0009B7A002B19D0BDF80A301A4611491346A5
:1080B0009B0013449B000B440C331B68591E0D4856
:1080C00013469B0013449B0003440C331960019B2F
:1080D00000229A720023039306E048F2056303939B
:1080E00002E048F209630393039B184605B05DF86C
:1080F00004FB00BF202C002000B583B0019000914C
:108100000223002200990198FFF7A6FD03461846B6
:1081100003B05DF804FB00B583B001900091019BB2
:10812000002B02D148F2046306E0032300220099E9
:108130000198FFF791FD0346184603B05DF804FB74
:1081400000B585B00346ADF806301A4B1B78DBB29C
:1081500083F00103DBB2002B02D048F2016324E07C
:10816000BDF806304FF6FF72934202D148F2036326
:108170001BE002AB1846FEF75FFE0390039B002B4B
:1081800002D148F2076310E0039B05221A70039B9B
:1081900001221A71039BBDF80620DA8002AB184653
:1081A000FEF760FEFFF73CFD0023184605B05DF8C2
:1081B00004FB00BF602B002000B583B0154B1B787B
:1081C000DBB283F00103DBB2002B02D048F2016383
:1081D0001BE06B461846FEF72FFE0190019B002B1B
:1081E00002D148F2076310E0019B06221A706B4629
:1081F0001846FEF737FE084B1B78002B02D0064BC3
:1082000001221A73FFF70CFD0023184603B05DF836
:1082100004FB00BF602B0020502C002000B585B06F
:10822000029201930346ADF80E300B46ADF80C30C8
:1082300003A90DF10E00019B029AFEF78BFD034688
:10824000184605B05DF804FB00B585B00346029101
:108250000192ADF80E300DF10E01019B029A002043
:10826000FEF778FD0346184605B05DF804FB00B53F
:1082700085B0034602910192ADF80E300DF10E006B
:10828000019B029A0021FEF765FD0346184605B0E2
:108290005DF804FB82B001900091019B002B02D09D
:1082A000009B002B02D148F2046304E0019B1A6892
:1082B000009B1A600023184602B0704786B00190F8
:1082C0000091019B53E8011F8AB2D8890244988922
:1082D000824228BF121A1889824202BFBFF32F8F31
:1082E000002307E0C2EA010243E801200028E9D1A7
:1082F0004FF001038DF80F30059002910492029A1D
:10830000009B1A609DF80F30DBB2184606B070472C
:1083100084B00190019951E8013FC3EA034341E869
:108320000132002AF7D10392029300BF04B07047D4
:1083300086B001900091019B53E8021F1FFAA1F241
:10834000D888824202BFBFF32F8F00230DE0D88967
:1083500002449889824228BF121AC1EA024243E8C5
:1083600002200028E8D14FF001038DF80F3005906E
:1083700002910492029A009B1A609DF80F30DBB2C2
:10838000184606B0704784B00190019951E8023F49
:10839000C3EA234341E80232002AF7D10392029351
:1083A00000BF04B0704786B00190019B53E8021FE4
:1083B000DA88B1EB314F4FF0000017BF89B242EAC3
:1083C000024241EA024204E05968B1EB314F08BF72
:1083D000012043E802210029E8D18DF80F00059122
:1083E00004929DF80F30DBB2184606B0704784B097
:1083F0000390029111461A460B46ADF8063013461B
:10840000ADF80430029B002B01D10E231FE0BDF814
:108410000630BDF80420B3FBF2F101FB02F29B1A17
:108420009BB2002B01D0092311E0039B029A1A6032
:10843000039B00225A60039B00229A60039BBDF8B5
:1084400006209A81039BBDF80420DA810023184698
:1084500004B0704700B585B001900198FFF7A3FF05
:1084600003468DF80F309DF80F30002B01D000230C
:1084700000E01123184605B05DF804FB00B585B097
:1084800001900091009B19460198FFF717FF0346E2
:10849000002B07D0019B1B68009A1288134403939A
:1084A000039B00E00023184605B05DF804FB00B50F
:1084B00083B001900091009B1A88009B5B889A42D0
:1084C00004D10198FFF724FF012300E000231846A0
:1084D00003B05DF804FB00B585B001900091009BEE
:1084E00019460198FFF724FF0346002B07D0019B94
:1084F0001B68009A528813440393039B00E00023F7
:10850000184605B05DF804FB00B583B001900091FA
:10851000009B1A88009B5B889A4204D10198FFF760
:1085200032FF012300E00023184603B05DF804FB8E
:1085300000B585B001900091009B5B099B00019AFA
:108540001A44009B03F01F03012101FA03F31946AB
:10855000104600F0E8F8039000BF05B05DF804FB9A
:1085600000B583B001900091009B5B099B00019ACC
:108570001A44009B03F01F03012101FA03F319467B
:10858000104600F0B8F80246009B03F01F0322FAE1
:1085900003F303F00103002B14BF01230023DBB21C
:1085A000184603B05DF804FB00B585B0019000915A
:1085B000009B5B099B00019A1A44009B03F01F0378
:1085C000012101FA03F3DB431946104600F0C3F81A
:1085D000039000BF05B05DF804FB82B001900091EC
:1085E000009B5B099B00019A13441A68009B03F0EF
:1085F0001F0322FA03F303F00103002B14BF01232E
:108600000023DBB2184602B0704700B58DB0019070
:10861000009100230B934BE00B9B9B00019A1344AA
:108620001B68DB430793079B93FAA3F30693069B10
:108630000893089B002B01D1202303E0089BB3FA89
:1086400083F3DBB20A932BE00B9B5B010A9A134482
:108650000993099A009B9A4226D209990198FFF73B
:108660007FFF034683F00103DBB2002B01D0099B9F
:1086700026E00B9B9B00019A13441B68DB43049389
:10868000049B93FAA3F30393039B0593059B002B91
:1086900001D1202303E0059BB3FA83F3DBB20A93F5
:1086A0000A9B1F2BD0D900E000BF0B9B01330B931B
:1086B000009B013B5B0901330B9A9A42ACD3009BB0
:1086C00018460DB05DF804FB10B487B0019000911E
:1086D000019B009A53E8004F104643E8000191F0D7
:1086E000000FF7D1059404900391059B184607B03D
:1086F0005DF8044B704710B487B001900091019B66
:10870000009A53E8004F44EA020043E8000191F068
:10871000000FF6D1059404900391059B184607B00D
:108720005DF8044B704710B487B001900091019B35
:10873000009A53E8004F44EA020043E8000191F038
:10874000000FF6D1059404900391049B184607B0DE
:108750005DF8044B704710B487B001900091019B05
:10876000009A53E8004F04EA020043E8000191F048
:10877000000FF6D1059404900391049B184607B0AE
:108780005DF8044B704710B487B001900091019BD5
:10879000009A53E8004F04EB020043E8000191F017
:1087A000000FF6D1059404900391059B184607B07D
:1087B0005DF8044B704710B487B001900091019BA5
:1087C000009A53E8004F04EB020043E8000191F0E7
:1087D000000FF6D1059404900391049B184607B04E
:1087E0005DF8044B704710B487B001900091019B75
:1087F000009A53E8004FA4EB020043E8000191F017
:10880000000FF6D1059404900391049B184607B01D
:108810005DF8044B704700B583B0019001210198C9
:10882000FFF769FF0346184603B05DF804FB00B587
:1088300085B0039002910192039B002B01D10E237E
:108840000EE0029B002B01D10E2309E0039B029A4C
:108850001A60039B1B681B6801990398984703469D
:10886000184605B05DF804FB10B586B0059004917C
:1088700003920293059B002B01D10E2342E0039B40
:10888000002B01D10E233DE0059B1B68002B01D17D
:10889000082337E0029B002B01D1092332E0059B1E
:1088A0005B685A68029BB3FBF2F101FB02F29B1A70
:1088B000002B01D0092325E0049800F07BF8034643
:1088C000002B01D110231DE0039B184600F072F825
:1088D0000346002B01D1102314E0029A0499059855
:1088E00000F04EF80346002B01D110230AE0059B4F
:1088F0001B68DC68089B0093029B039A0499059807
:10890000A0470346184606B010BD10B584B00390CA
:10891000029101920093039B002B01D10E232CE0C6
:10892000039B1B68002B01D1082326E0019B002B31
:1089300001D1092321E00299039800F048F8034689
:10894000002B01D1102318E0039B5B681B68019A80
:1089500002FB03F31A460299039800F011F803464C
:10896000002B01D1102308E0039B1B681C69009BAE
:10897000019A02990398A0470346184604B010BD17
:1089800084B0039002910192039BDB68029A9A42A1
:1089900009D3029A019B13445A1E039B1B699A42F6
:1089A00001D8012300E0002303F00103DBB21846E5
:1089B00004B0704782B00190019B03F00303002BC9
:1089C0000CBF01230023DBB2184602B0704782B00F
:1089D00001900091019B5B681B685A1E009B13402D
:1089E000002B0CBF01230023DBB2184602B07047F6
:1089F00029DF704700BF184628DF704700BF1846C0
:108A000000B589B001900091019B1B689B68002B09
:108A100035D002AB00221A605A609A60DA601A619F
:108A20005A61009B0393019B9B680793019B1B79F1
:108A3000002B02D0012B0DD01AE001238DF8083055
:108A4000019B1B690493019BDB680593019B5B6998
:108A500006930DE002238DF80830019BDB684FF48C
:108A6000805202FB03F30493019B5B69069300BFF2
:108A7000019B1B689B6802AA1046984700E000BF54
:108A800009B05DF804FB00B587B00190019B5A69FD
:108A9000019B9B69D31AB3F5805F28BF4FF48053C5
:108AA00005930422059BB3FBF2F3012B38BF01238E
:108AB0000593019B1A69019B9B6913440493019BD5
:108AC000DB681A46019B9B6913440393059A03993B
:108AD0000498FFF78DFF0346184607B05DF804FBC6
:108AE00000B583B00190019BDA68019B1B691344B8
:108AF0001846FFF781FF0346184603B05DF804FBF4
:108B000008B5034B03491846FFF7FEFC00BF08BD3C
:108B10000C2D0020342D002008B5084B08491846BC
:108B2000FFF7D9FC0346074A1360064B1B68002B6E
:108B300014BF01230023DBB2184608BD0C2D002012
:108B4000342D0020302D002000B583B02A4B1B7A35
:108B5000002B0BD1FFF7E0FF034683F00103DBB2EC
:108B6000002B03D0244B00225A6042E0224B022209
:108B70001A72224B1B681B79002B02D0012B07D0E5
:108B80000DE01E4B1B681846FFF77DFF019009E0C2
:108B90001A4B1B681846FFF7A3FF019002E003235E
:108BA000019300BF019B002B03D0019B112B0CD024
:108BB0000FE0114B1B7C83F00103DBB2002B17D0BD
:108BC0000021022000F060F912E00B4B01221A7222
:108BD0000FE00A4B1B6803211846FFF711FF064BF5
:108BE00000221A72044B00225A60FFF789FF00E04E
:108BF00000BF03B05DF804FB1C2D0020302D0020C9
:108C000008B50848FFF707FE0346002B08D1064BBE
:108C10005B7C83F00103DBB2002B01D0FFF794FFF4
:108C200000BF08BD202D00201C2D002084B0019025
:108C30001B4B0022DA60019B1B79002B02D0012B19
:108C400019D028E0019B5A69019B9B69D31AB3F59F
:108C5000805F28BF4FF480530393019B9A69039B65
:108C60001A44019B9A61019B9A69019B5B699A4234
:108C70000ED1012310E0019B1B695A1C019B1A6154
:108C8000019B1A69019B5B699A4203D1012303E0AE
:108C900000BF00E000BF0023184604B0704700BFCB
:108CA0001C2D002082B00190084BDB680133074A7D
:108CB000D360064BDB68082B04D9044B0022DA6032
:108CC000012300E00023184602B070471C2D00204D
:108CD00000B583B001900091019B0C4A5A600C488A
:108CE000FFF799FD0346002B0BD10FF04BFC034619
:108CF0001A46074B1A7407481C238C220649FFF7B3
:108D000076FB0023184603B05DF804FBFC8B0300E0
:108D10001C2D00200C2D0020802C002000B583B0DD
:108D2000019000911422002105480FF041FE054BEF
:108D30001846FFF78FFB0023184603B05DF804FBCD
:108D40001C2D00200C2D002000B587B0039002914F
:108D500001920093174A04AB19461046FFF78EFBA9
:108D60000590059B002B01D104231FE01C2200214C
:108D700005980FF01DFE059B00221A71059B039AB2
:108D80001A60059B089A9A60059B029A1A61059BD6
:108D9000019ADA60059B009A5A61064A04AB1946AB
:108DA0001046FFF784FBFFF72BFF0023184607B0A0
:108DB0005DF804FB0C2D002000B585B003900291F6
:108DC00001920093029B009A194601980FF0C7FD8B
:108DD0000023184605B05DF804FB000000B587B01D
:108DE0000390029101920093184A04AB1946104671
:108DF000FFF744FB0590059B002B01D1042320E0E5
:108E00001C22002105980FF0D3FD059B01221A7149
:108E1000059B039A1A60059B009A9A604FF4805252
:108E2000029BB3FBF2F2059BDA60059B019A5A6143
:108E3000064A04AB19461046FFF739FBFFF7E0FE80
:108E40000023184607B05DF804FB00BF0C2D00207E
:108E500082B001900091009B184602B0704782B02A
:108E6000019000910023184602B0704782B0019033
:108E7000044B1B7A002B14BF01230023DBB21846DE
:108E800002B070471C2D002000B585B00190009104
:108E9000019B022B02D0019B032B48D1274B1B7A4D
:108EA000022B05D0022B35DC002B42D0012B31E008
:108EB00000238DF80F30019B022B03D0019B032B65
:108EC00009D011E01E4B1B681846FFF7AFFE0346A2
:108ED0008DF80F3008E01A4B1B681846FFF7E2FECA
:108EE00003468DF80F3000BF9DF80F30002B10D0D7
:108EF000124B00221A72124B1A68019B022B01D1ED
:108F0000002300E00D2319461046FFF779FDFFF717
:108F1000F7FD00BF094B5B7C83F00103DBB2002B44
:108F200002D0FFF711FE05E00FF010FB02E000BFDA
:108F300000E000BF05B05DF804FB00BF1C2D002061
:108F4000302D002082B0034600918DF80730064B8B
:108F500001225A74044B1B7A002B0CBF01230023FF
:108F6000DBB2184602B070471C2D002000B583B05C
:108F7000034600918DF807309DF80730012B03D090
:108F80009DF80730032B0DD1084B00225A749DF831
:108F90000730012B0CBF01230023DAB2034B1A74F4
:108FA000FFF7D2FD00BF03B05DF804FB1C2D0020CD
:108FB00082B003468DF807309DF90730002B0DDB9A
:108FC0009DF8073003F01F0206499DF907305B0941
:108FD000012000FA02F2603341F8232000BF02B002
:108FE000704700BF00E100E0BFF34F8F00BF064BAA
:108FF000DB6803F4E0620449044B1343CB60BFF326
:109000004F8F00BF00BFFDE700ED00E00400FA0550
:1090100000B583B00190019B002B03D10449C4200B
:1090200007F04CFA019B5B68184603B05DF804FB3F
:10903000288C030000B583B00190019B002B03D165
:109040000649722007F03AFA019B00221A60BFF32A
:109050005F8F00BF00BF03B05DF804FBAC8C030062
:1090600000B585B00190019B002B03D10A498520F2
:1090700007F024FA01210198FFF726FB0390BFF3C4
:109080005F8F00BF039B002B0CBF01230023DBB2CB
:10909000184605B05DF804FBAC8C030000B583B046
:1090A0000190019B002B03D10A49922007F006FA98
:1090B000019B1B68012B03D00649932007F0FEF9A2
:1090C000BFF35F8F00BF019B00221A6000BF03B097
:1090D0005DF804FBAC8C030033DF704700BF18461B
:1090E00041DF704700BF18464FF080430122C3F8AC
:1090F0000025BFF34F8F00BF20BFFDE700B585B04F
:1091000000238DF807300DF107031846FDF72EFAFE
:10911000F1EE103A0393039B23F09F030293029B0B
:10912000E1EE103A00BFBFF35F8F00BF2620FFF7CC
:109130003FFF9DF807301846FDF72EFA039B03F01A
:109140000703002B03D004497D2007F0B7F900BFC7
:1091500005B05DF804FB00BF108D030008B5064B99
:1091600000221A700548FFF765FF0549054800F021
:10917000AFF80023184608BD402D00203C2D0020EC
:109180007C8D0300442D002000B583B0FFF7B6FFAF
:109190000FF0F8F90346002B0ED0FFF7A1FF019066
:1091A000019B002B0BD0019B022B08D006494FF4EA
:1091B000B07007F083F902E020BF40BF20BF00BFBE
:1091C00003B05DF804FB00BF108D030000B583B051
:1091D0000FE01E48FFF71CFF0090009B1B681C4A15
:1091E0001278104698470346002B2AD0174800F003
:1091F00099F81648FFF70CFF0346002BE9D1144BF2
:109200001B78032B03D0124B1B78022B01D1FFF7E5
:10921000EBFE0FF0B7F90346002B0FD0FFF75CFF12
:109220000190019B002B07D0019B022B04D0094920
:109230004FF4D17007F042F920BFFDE7FFF754FF6C
:1092400000E000BF03B05DF804FB00BF442D002028
:10925000382D0020108D030000B583B003468DF833
:1092600007301748FFF7FCFE034683F00103DBB22B
:10927000002B21D19DF80730042B0ED0114B1B7809
:10928000002B03D00E48FFF709FF16E00E4A9DF8A9
:10929000073013700B4B01221A700A4B1B78002BFE
:1092A00004D10A4940F2D51007F008F9FFF78EFF04
:1092B0000348FFF7F3FE00E000BF03B05DF804FBD6
:1092C0003C2D0020402D0020382D0020108D030063
:1092D00000B583B001900091019B002B03D1104990
:1092E000502007F0EBF8009B002B03D10C495120D4
:1092F00007F0E4F8019B009A1A60019B1B681A684A
:10930000019B5A60019B5A68019B1B685B689A42EB
:1093100002D1019B00225A6000BF03B05DF804FB3C
:10932000888D030000B583B00190019B002B03D111
:109330001449632007F0C2F8019B1B68002B03D17E
:109340001049642007F0BAF8019B5B68002B14D029
:10935000019B5B681A46019B1B689B6813441A4675
:10936000019B5A60019B5A68019B1B685B689A428B
:1093700004D1019B00225A6000E000BF03B05DF8F9
:1093800004FB00BF888D0300BFF34F8F00BF064B67
:10939000DB6803F4E0620449044B1343CB60BFF382
:1093A0004F8F00BF00BFFDE700ED00E00400FA05AD
:1093B00082B01A4B1B68B3F1FF3F0AD1184B1B68F0
:1093C000DBB20193174B1B681B0903F00F030093DB
:1093D00005E0124B1B680193134B1B680093019B24
:1093E000062B17D1009B033B032B13D801A252F885
:1093F00023F000BF05940200099402000D940200BE
:1094000011940200012306E0012304E0012302E09D
:10941000012300E00023184602B07047300100101D
:10942000E00F00F0E80F00F03401001082B0144BA0
:109430001B68DBB20193134B1B681B0903F00F037E
:109440000093019B062B17D1009B033B032B13D8E2
:1094500001A252F823F000BF699402006D9402004B
:109460007194020075940200012306E0002304E0D9
:10947000002302E0002300E00023184602B07047FA
:10948000E00F00F0E80F00F082B01A4B1B68B3F158
:10949000FF3F0AD1184B1B68DBB20193174B1B68C7
:1094A0001B0903F00F03009305E0124B1B680193A7
:1094B000134B1B680093019B062B17D1009B033BAA
:1094C000032B13D801A252F823F000BFDD94020051
:1094D000E1940200E5940200E9940200012306E011
:1094E000012304E0012302E0012300E000231846E9
:1094F00002B0704730010010E00F00F0E80F00F0FC
:109500003401001082B0144B1B68DBB20193134B83
:109510001B681B0903F00F030093019B062B17D157
:10952000009B033B032B13D801A252F823F000BF8A
:109530004195020045950200499502004D950200B3
:10954000012306E0002304E0002302E0002300E002
:109550000023184602B07047E00F00F0E80F00F05B
:1095600082B01A4B1B68B3F1FF3F0AD1184B1B683E
:10957000DBB20193174B1B681B0903F00F03009329
:1095800005E0124B1B680193134B1B680093019B72
:10959000062B17D1009B033B032B13D801A252F8D3
:1095A00023F000BFB5950200B9950200BD950200F9
:1095B000C1950200012306E0012304E0012302E03B
:1095C000012300E00023184602B07047300100106C
:1095D000E00F00F0E80F00F03401001082B0144BEF
:1095E0001B68DBB20193134B1B681B0903F00F03CD
:1095F0000093019B062B17D1009B033B032B13D831
:1096000001A252F823F000BF199602001D96020035
:109610002196020025960200012306E0002304E0C3
:10962000002302E0002300E00023184602B0704748
:10963000E00F00F0E80F00F082B0144B1B68DBB2C3
:109640000193134B1B681B0903F00F030093019B4D
:10965000062B17D1009B033B032B13D801A252F812
:1096600023F000BF75960200799602007D960200F5
:1096700081960200012306E0002304E0002302E0BB
:10968000002300E00023184602B07047E00F00F00E
:10969000E80F00F082B01A4B1B68B3F1FF3F0AD10C
:1096A000184B1B68DBB20193174B1B681B0903F0B7
:1096B0000F03009305E0124B1B680193134B1B68CB
:1096C0000093019B062B17D1009B033B032B13D860
:1096D00001A252F823F000BFE9960200ED960200C5
:1096E000F1960200F5960200002306E0002304E054
:1096F000012302E0012300E00023184602B0704776
:1097000030010010E00F00F0E80F00F0340100100D
:1097100082B01A4B1B68B3F1FF3F0AD1184B1B688C
:10972000DBB20193174B1B681B0903F00F03009377
:1097300005E0124B1B680193134B1B680093019BC0
:10974000062B17D1009B033B032B13D801A252F821
:1097500023F000BF65970200699702006D97020031
:1097600071970200012306E0012304E0012302E0D7
:10977000012300E00023184602B0704730010010BA
:10978000E00F00F0E80F00F03401001082B01A4B37
:109790001B68B3F1FF3F0AD1184B1B68DBB2019382
:1097A000174B1B681B0903F00F03009305E0124BD6
:1097B0001B680193134B1B680093019B062B17D169
:1097C000009B033B032B13D801A252F823F000BFE8
:1097D000E1970200E5970200E9970200ED97020089
:1097E000012306E0012304E0012302E0012300E05D
:1097F0000023184602B0704730010010E00F00F05F
:10980000E80F00F03401001082B0124B1B68019386
:10981000114B1B680093019B062B17D1009B033B48
:10982000032B13D801A252F823F000BF3D98020089
:10983000419802004598020049980200002306E082
:10984000002304E0002302E0012300E00023184687
:1098500002B070473001001034010010024B034A7F
:109860001A6000BF704700BF1C2B00200090D0037F
:1098700008B5FFF79DFD0346002B06D0B74B1B68CC
:109880001B0AB74A03F01F031360FFF7CFFD03461F
:10989000002B02D0B34BB44A1A60FFF7F5FD034624
:1098A000002B06D0B14B1B685B0BB14A03F00703DA
:1098B0001360FFF727FE0346002B05D0AD4BDB6896
:1098C000AC4A23F08073D360FFF74AFE0346002BB7
:1098D0000ED04FF080430022C3F80C214FF080439C
:1098E0000022C3F810214FF080430022C3F838252E
:1098F000FFF774FE0346002B02D09F4B03221A6031
:10990000FFF79AFE0346002B0BD09C4B05221A60F2
:109910009B4B01221A609B4B00221A609A4B3F22FC
:109920001A60FFF7B7FE0346002B76D04FF0805346
:10993000964AD3F80434C2F820354FF08053934A46
:10994000D3F80834C2F824354FF080538F4AD3F847
:109950000C34C2F828354FF080538C4AD3F81034B9
:10996000C2F82C354FF08053884AD3F81434C2F82B
:1099700030354FF08053854AD3F81834C2F8343567
:109980004FF08053814AD3F81C34C2F840354FF071
:1099900080537E4AD3F82034C2F844354FF08053C8
:1099A0007A4AD3F82434C2F848354FF08053774AC6
:1099B000D3F82834C2F84C354FF08053734AD3F8AB
:1099C0002C34C2F850354FF08053704AD3F83034FD
:1099D000C2F854354FF080536C4AD3F83434C2F88F
:1099E00060354FF08053694AD3F83834C2F8643593
:1099F0004FF08053654AD3F83C34C2F868354FF0D5
:109A00008053624AD3F84034C2F86C354FF080532B
:109A10005E4AD3F84434C2F87035FFF779FE034646
:109A2000002B05D05A4B1B685A4A03F04F031360B2
:109A3000FFF7ACFE0346002B0DD04FF08043D3F868
:109A4000003403F00103002B05D04FF080436FF08A
:109A50000102C3F80024FFF7D7FE0346002B05D010
:109A60004D4B1B684C4A43F4806313604B4BD3F857
:109A700088304A4A43F47003C2F88830BFF34F8FEE
:109A800000BFBFF36F8F00BF4FF01023D3F80C322D
:109A900003F00103012B25D1414B0122C3F804251A
:109AA00000BF3F4BD3F80034002BFAD04FF0102307
:109AB000D3F80C324FF0102223F00103C2F80C321D
:109AC00000BF374BD3F80034002BFAD0344B0022C0
:109AD000C3F8042500BF324BD3F80034002BFAD072
:109AE000FFF752FC4FF01023D3F80032002B05DBB8
:109AF0004FF01023D3F80432002B2BDA284B01222D
:109B0000C3F8042500BF264BD3F80034002BFAD04D
:109B10004FF010231522C3F8002200BF204BD3F8CA
:109B20000034002BFAD04FF010231522C3F8042282
:109B300000BF1B4BD3F80034002BFAD0184B002287
:109B4000C3F8042500BF164BD3F80034002BFAD01D
:109B5000FFF71AFCFFF782FE00BF08BD24030010C8
:109B60004035014074C007400DF0ADBA440200100A
:109B70003C050040F0ED00E0A0050040105600401C
:109B800088560040185600401456004000C000405F
:109B900058020010E40E00403C17004000ED00E0C9
:109BA00000E0014082B001904FF08042019BC2F87A
:109BB000043300BF02B0704782B001904FF0804282
:109BC000019BC2F8083300BF02B0704782B0034661
:109BD0008DF807309DF8073003F1804301221A60A9
:109BE00000BF02B0704784B00346ADF80630BDF840
:109BF000063003F1804300221A60BDF8063003F1FD
:109C000080431B680393039B00BF04B0704782B07E
:109C10000346ADF80630BDF8063003F180431B68FB
:109C2000002B14BF01230023DBB2184602B070479B
:109C30004FF08043D3F818341B0C03F00103002BC2
:109C400014BF01230023DBB21846704782B00346DD
:109C50008DF807304FF08043D3F80C3403F0011235
:109C60009DF8073043F480339A420CBF0123002350
:109C7000DBB2184602B0704784B0124BDB68039326
:109C8000104A039B43F08073D3600F4B1B68029311
:109C90000D4A029B43F0010313600B4B5B68019379
:109CA00000BF094B5A68019BD31AB3F50A5FF8D37A
:109CB000054A029B1360034A039BD36000BF04B0B4
:109CC000704700BFF0ED00E0001000E000B585B087
:109CD0000190019B002B03D10D49A42006F0EEFB5F
:109CE000002303930B4B1B79002B02D08523039396
:109CF00008E0084A019B1360064B01221A71054BCC
:109D000000225A71039B184605B05DF804FB00BFA2
:109D1000688E03004C2D002008B5084B1B79002BE2
:109D200003D10749E12006F0C9FB00F027F800F055
:109D30005FF8024B00221A7100BF08BD4C2D0020B5
:109D4000688E030008B50B4B1B79002B03D10A4921
:109D5000EA2006F0B3FB4FF48270FFF744FF0220C5
:109D6000FFF720FFFFF788FF0820FFF72FFF00BF56
:109D700008BD00BF4C2D0020688E030008B50D4BB8
:109D80001B79002B03D10C49F72006F097FB02202A
:109D9000FFF712FF4FF48270FFF725FF0C20FFF74B
:109DA00015FF00BFFFF744FF0346002BFAD100BFA9
:109DB00000BF08BD4C2D0020688E030008B50A4B7B
:109DC0001B79002B04D109494FF4817006F076FB12
:109DD0004FF48070FFF707FF0120FFF7E3FE00203C
:109DE000FFF7F4FE00BF08BD4C2D0020688E030075
:109DF00008B50F4B1B79002B04D10E494FF4857029
:109E000006F05CFB0120FFF7D7FE4FF48070FFF7F0
:109E1000EAFE0420FFF7DAFE00BF0120FFF716FF7D
:109E20000346002BF9D1024B00225A7100BF08BD36
:109E30004C2D0020688E030008B54FF48070FFF7AA
:109E4000E6FE0346002B14D04FF48070FFF7CBFEE4
:109E50000120FFF7B1FE114B5B7983F00103DBB208
:109E6000002B06D00D4B01225A710C4B1B680020B1
:109E700098474FF48270FFF7CAFE0346002B0AD0C2
:109E80004FF48270FFF7AFFE0220FFF795FE034B01
:109E90001B680120984700BF08BD00BF4C2D002063
:109EA00082B003468DF807309DF90730002B0CDB9C
:109EB0009DF8073003F01F0205499DF907305B0943
:109EC000012000FA02F241F8232000BF02B07047DF
:109ED00000E100E082B0034600918DF807309DF963
:109EE0000730002B0ADB009BDAB20C499DF90730E2
:109EF0005201D2B20B4483F800230BE0009BDAB28C
:109F000007499DF8073003F00F03043B5201D2B21A
:109F10000B441A7600BF02B0704700BF00E100E0BA
:109F200000ED00E082B00190019B1B0B5BB2184674
:109F300002B0704700B583B003460A468DF807307B
:109F400013468DF806309DF80630012B03D99DF895
:109F50000630032B0BD99DF80630042B03D99DF84E
:109F60000630072B03D908496B2006F0A7FA9DF8A5
:109F700006209DF9073011461846FFF7ABFF00BFDA
:109F800003B05DF804FB00BFD08E030000B583B0C2
:109F900003468DF807309DF907301846FFF780FF1C
:109FA00000BF03B05DF804FB00B583B00346ADF815
:109FB0000630BDF80630184600F026F803461B6848
:109FC000012B0CBF01230023DBB2184603B05DF860
:109FD00004FB00B585B00346ADF80630BDF8063089
:109FE000184600F011F803461A4600231360BDF826
:109FF0000630184600F008F803461B680393039BDD
:10A0000000BF05B05DF804FB82B00346ADF8063032
:10A01000BDF8063003F1804303F5C043184602B093
:10A020007047000082B00190034A019BC2F80433DC
:10A0300000BF02B0704700BF0060004082B00190D6
:10A04000034BD3F80423019B1340184602B070471A
:10A050000060004082B00190054A019B03F5A273A5
:10A0600052F823301B0A03F01F03184602B0704752
:10A070000060004082B00190064A019B03F5A27384
:10A0800052F823301B0C03F00303DBB2184602B076
:10A09000704700BF0060004000B583B00190019B95
:10A0A0001B68184600F096F80346002B04D10549BA
:10A0B0004FF4F67006F002FA4FF0A043184603B0D2
:10A0C0005DF804FB2C8F030000B585B001900B46B2
:10A0D0008DF8033001AB1846FFF7DEFF0390019ABD
:10A0E000039B02F5E07253F82230019A23F44031C9
:10A0F000039B02F5E07243F82210019A039B02F5DC
:10A10000E07253F822309DF8032012041146019AA0
:10A110001943039B02F5E07243F8221000BF05B01B
:10A120005DF804FB00B585B0019001AB1846FFF760
:10A13000B3FF0390019A039B02F5E07253F82230BB
:10A140001B0C03F00303DBB2184605B05DF804FBFB
:10A1500086B00390029101924FF0A0430493039BB9
:10A16000059319E0059B9B0006AA134453F8083C8D
:10A17000D3F82025019B1A60059B9B0006AA134477
:10A1800053F8083C019A1268C3F82025019B043358
:10A190000193059B01330593039A029B1344059A8F
:10A1A0009A42DFD300BF00BF06B0704700B585B04C
:10A1B000019001AB1846FFF76FFF0390019B01224E
:10A1C00002FA03F31A46039BC3F8202500BF05B02B
:10A1D0005DF804FB84B00190019B5B0902930023AE
:10A1E0000393029B002B03D14FF0FF33039300BF77
:10A1F000019B03F01F030193039A019B22FA03F3CF
:10A2000003F00103002B14BF01230023DBB2184627
:10A2100004B0704784B001900091009B0393019BB0
:10A22000DB080293019B03F0070301930122019BCA
:10A2300002FA03F30399029A0A441278134018466B
:10A2400004B0704782B00190044A019B1344243348
:10A25000FF221A7000BF02B0704700BF542D0020CB
:10A2600082B00190044A019B1344243393F90030D7
:10A27000184602B0704700BF542D002082B00190F4
:10A28000034A019B52F82330184602B0704700BFC2
:10A29000542D002084B00190074A019B134444339D
:10A2A00093F900308DF80F309DF80F3023F0C00384
:10A2B000184604B0704700BF542D002084B00190B0
:10A2C000074A019B1344443393F900308DF80F3053
:10A2D0009DF80F309B09DBB2184604B0704700BFF1
:10A2E000542D002082B003468DF807309DF80730CA
:10A2F000094A4FF0FF3142F823109DF80730072B31
:10A3000007D99DF80730083B034A1344FF2283F81E
:10A31000442000BF02B07047542D002000B583B028
:10A320002D4B93F84930002B03D008230093009B5A
:10A330004EE000238DF8073011E09DF807301846F5
:10A34000FFF748FF0346002B04D09DF8073018465E
:10A35000FFF778FF9DF8073001338DF807309DF83F
:10A3600007301F2BE9D900238DF8073009E09DF84D
:10A3700007301846FFF7B6FF9DF8073001338DF818
:10A3800007309DF80730082BF1D90422002113482B
:10A390000EF00EFB1248FFF7C5FD034607211846D5
:10A3A000FFF7C8FD0E48FFF7BDFD03461846FFF74F
:10A3B000EDFD4FF4BE70FFF70CFE4FF00040FFF7CD
:10A3C00031FE054B012283F8492000230093009BB6
:10A3D000184603B05DF804FB542D0020992D002091
:10A3E00000600040044B93F84930002B14BF012358
:10A3F0000023DBB218467047542D002000B585B00D
:10A400000190019A01210020FFF7A2FE002303938F
:10A410000BE0039B9B00019A13441B68002B01D0A7
:10A42000012306E0039B01330393039B002BF0D031
:10A430000023184605B05DF804FB000000B587B0A6
:10A440000190002305935BE0344A059B1344443399
:10A4500093F90030B3F1FF3F4ED00598FFF71AFF94
:10A46000049001990498FFF7D5FE0346002B44D0D1
:10A470000598FFF723FF03468DF80F300498FFF788
:10A4800051FE03468DF80E309DF80E30022B01D19F
:10A49000032300E002238DF80D309DF80D3019469E
:10A4A0000498FFF711FE0498FFF780FE0498FFF769
:10A4B000D7FE03461846FFF7E1FE0290029B002BF1
:10A4C0001BD09DF80F30032B0FD09DF80E30022BC0
:10A4D00003D19DF80F30012B07D09DF80E30032BD0
:10A4E0000BD19DF80F30022B07D19DF80F20029B56
:10A4F00011460498984700E000BF059B013305937F
:10A50000059B002BA0D00198FFF778FF0346002B96
:10A5100097D100BF00BF07B05DF804FB542D0020A9
:10A5200000B589B000230793002300934FF4807394
:10A53000ADF81630012304930023069321E0BDF803
:10A5400016301846FFF730FD0346002B0ED0049856
:10A55000FFF774FD0346002B08D0BDF816301846EF
:10A56000FFF737FD079A049B13430793049B5B0097
:10A570000493BDF816300433ADF81630069B013352
:10A580000693069B072BDAD94FF4BE70FFF70CFD3C
:10A590000346002B0DD04FF4BE70FFF71AFD079B4A
:10A5A00043F0004307936B461A4601210020FFF752
:10A5B000CFFD079BDBB2002B29D00123049300239E
:10A5C000069321E0049A079B1340002B16D00698AF
:10A5D000FFF740FD03900698FFF74CFD03468DF80A
:10A5E0000B300698FFF74AFE0190019B002B05D027
:10A5F0009DF80B20019B114603989847049B5B0034
:10A600000493069B01330693069B072BDAD9079B1D
:10A61000002B03DA6B461846FFF710FF00BF09B0A6
:10A620005DF804FB08B5064B1B68002B03D10549F8
:10A63000512005F043FF024B1B68984700BF08BD3F
:10A64000A02D0020F08F030082B00190019B044AEE
:10A65000934201D1034B00E00023184602B070473B
:10A6600000200040A02D002000B587B0019000918F
:10A67000019B002B03D11C49772005F01FFF019897
:10A68000FFF7E2FF0490049B002B25D000238DF8F8
:10A69000173000238DF80B300DF10B031846FBF734
:10A6A00065FF049B1B79002B03D001238DF8173025
:10A6B00005E0049B009A1A60049B01221A719DF820
:10A6C0000B301846FBF768FF9DF81730002B03D0BE
:10A6D00011230393039B02E000230393039B18467B
:10A6E00007B05DF804FB00BFF08F030000B585B034
:10A6F0000190019B002B03D10A499B2005F0DEFE4F
:10A700000198FFF7A1FF0390039B002B05D0039B4B
:10A7100000221A60039B00221A7100BF05B05DF889
:10A7200004FB00BFF08F030082B003468DF80730B2
:10A730009DF90730002B0CDB9DF8073003F01F025A
:10A7400005499DF907305B09012000FA02F241F842
:10A75000232000BF02B0704700E100E082B0034652
:10A760008DF807309DF90730002B13DB9DF807307B
:10A7700003F01F0209499DF907305B09012000FA27
:10A7800002F2203341F82320BFF34F8F00BFBFF305
:10A790006F8F00BF00BF02B0704700BF00E100E054
:10A7A00082B0034600918DF807309DF90730002BE9
:10A7B0000ADB009BDAB20C499DF907305201D2B294
:10A7C0000B4483F800230BE0009BDAB207499DF8A5
:10A7D000073003F00F03043B5201D2B20B441A7648
:10A7E00000BF02B0704700BF00E100E000ED00E0F4
:10A7F00000B583B003460A468DF8073013468DF83E
:10A8000006309DF80630012B03D99DF80630032B46
:10A810000BD99DF80630042B03D99DF80630072B81
:10A8200003D908496B2005F049FE9DF806209DF9E3
:10A83000073011461846FFF7B3FF00BF03B05DF8BD
:10A8400004FB00BF5890030000B583B003468DF8A9
:10A8500007309DF907301846FFF766FF00BF03B0C9
:10A860005DF804FB00B583B003468DF807309DF911
:10A8700007301846FFF772FF00BF03B05DF804FB16
:10A8800084B0039002910192039B029A02F5A87290
:10A89000019943F8221000BF04B0704782B00190C4
:10A8A0000091019B009AC3F8042300BF02B07047D7
:10A8B00082B001900091019B009AC3F8082300BF69
:10A8C00002B0704782B001900091019BD3F804233D
:10A8D000009B1340184602B0704782B001900B46AF
:10A8E000ADF80230BDF80230019A13441B681846D7
:10A8F00002B0704784B001900B46ADF80230BDF84D
:10A900000230019A134400221A60BDF80230019A05
:10A9100013441B680393039B00BF04B0704782B0CD
:10A920000190019BD3F80435184602B0704700002F
:10A9300000B583B001900091009BB3F5805F04D314
:10A9400006494FF4BE7005F0B9FD019B009AC3F8AB
:10A95000082500BF03B05DF804FB00BFB4900300FE
:10A9600082B001900B468DF803309DF80320019BC7
:10A9700013441A460123136000BF02B0704782B02F
:10A9800001900091019B009AC3F8442300BF02B0DC
:10A99000704782B001900091019B009AC3F8482350
:10A9A00000BF02B07047000000B587B0039002916D
:10A9B0000192029B002B03D13149512005F07EFD0D
:10A9C000019B002B03D12E49522005F077FD039BFC
:10A9D0005B7919462B4A019B42F82130039B5B7936
:10A9E0001946294A0B465B000B4413441B78002B85
:10A9F00003D008230593059B3DE0039B93F90420B6
:10AA0000029B9B7819461046FFF7F2FE039B93F9D1
:10AA100004301846FFF718FF039B1A68029B1B8837
:10AA200019461046FFF784FF039B5B791946029B8A
:10AA30001879154A0B465B000B4413440133024658
:10AA40001A70039B5B791946029BD8780E4A0B4615
:10AA50005B000B441344023302461A70039B5B797C
:10AA60001946094A0B465B000B44134401221A7035
:10AA700000230593059B184607B05DF804FB00BF53
:10AA800010910300A82D0020AC2D002000B585B04A
:10AA900001901B4B0393019B5B791946194A0B46A6
:10AAA0005B000B4413441B78002B03D11649742020
:10AAB00005F004FD019B93F904301846FFF7D2FE20
:10AAC000019B1B6804211846FFF74AFF019B1B6886
:10AAD00003991846FFF75DFF019B1B680399184611
:10AAE000FFF7E6FE019B5B791946064A0B465B00C1
:10AAF0000B44134400221A7000BF05B05DF804FB3C
:10AB000003000F00AC2D00201091030000B583B0AE
:10AB10000190019B5B7919460F4A0B465B000B4481
:10AB200013441B78012B03D00C49822005F0C6FC8E
:10AB3000019B1B6800211846FFF712FF019B5B7900
:10AB40001946054A0B465B000B44134402221A7057
:10AB500000BF03B05DF804FBAC2D00201091030092
:10AB600000B583B00190019B5B7919460F4A0B46F3
:10AB70005B000B4413441B78002B03D10C498B2042
:10AB800005F09CFC019B1B6804211846FFF7E8FEBA
:10AB9000019B5B791946054A0B465B000B44134445
:10ABA00001221A7000BF03B05DF804FBAC2D002039
:10ABB0001091030000B587B001900091019B5B7973
:10ABC00019462B4A0B465B000B4413441B78002BA1
:10ABD00003D12849942005F071FC019B9B791A460A
:10ABE000009B934203D32349952005F067FC4FF463
:10ABF0008032009B02FA03F30593009B9BB2503313
:10AC00009BB29B00ADF81230019B1B68059918465A
:10AC1000FFF7BFFE019B1B6805991846FFF752FE20
:10AC20000346002B1CD0019B1B6805991846FFF7B3
:10AC30003FFE019B1B68BDF8122011461846FFF726
:10AC40004CFE0346002B0BD0019B1B68BDF8122065
:10AC500011461846FFF74EFE0D230393039B02E0B7
:10AC600000230393039B184607B05DF804FB00BF65
:10AC7000AC2D00201091030000B58BB00390029121
:10AC800001928DF80330039B5B791946484A0B46C5
:10AC90005B000B4413441B78002B03D14549B420BF
:10ACA00005F00CFC039B9B791A46029B934203D34D
:10ACB0004049B52005F002FC4FF48032029B02FAB5
:10ACC00003F30893029B9BB250339BB29B00ADF8F9
:10ACD0001E30039B1B6808991846FFF75AFE039B1A
:10ACE0001B6808991846FFF7E3FD019B23F07F439B
:10ACF0000193039B5B7919462D4A0B465B000B447D
:10AD0000134401331B78002B2CD0039B1B68019A42
:10AD100002991846FFF7B4FD039B1B681846FFF71E
:10AD2000FEFD0690069A019BD31A0993069A019B91
:10AD30009A4205D2099B03F1FF1303F57F43099360
:10AD4000039B5B7919461A4A0B465B000B4413447C
:10AD500002331B781A46099B93420ADA0D230593A6
:10AD6000059B21E0039B1B68019A02991846FFF797
:10AD700087FD9DF80330002B0DD0039B1B68BDF8A9
:10AD80001E2011461846FFF7B5FD039B1B68089966
:10AD90001846FFF783FD039B1B6808991846FFF7C9
:10ADA000EEFD00230593059B18460BB05DF804FBF0
:10ADB000AC2D00201091030000B585B001900B462A
:10ADC0008DF803304FF48073ADF80E3001230293F9
:10ADD000019B1B68BDF80E2011461846FFF78AFD3F
:10ADE000019B1B6802991846FFF7C9FD9DF80330C7
:10ADF000002B05D0019B1B6802991846FFF74EFDFA
:10AE000000BF05B05DF804FB00B585B001900123DB
:10AE10000393019B1B6803991846FFF7BAFD019B3A
:10AE20001B6803991846FFF743FD00BF05B05DF8A6
:10AE300004FB000000B589B00390029101924FF429
:10AE4000803306934FF4A073ADF8163000230793B8
:10AE500030E006990398FFF735FD0346002B1ED01E
:10AE6000BDF8163019460398FFF737FD0346002B4F
:10AE700015D006990398FFF78CFD06990398FFF704
:10AE800017FDBDF8163019460398FFF733FD2D4A1C
:10AE9000029B52F82330079AD2B210469847069B7D
:10AEA0005B000693BDF816300433ADF81630079BEF
:10AEB00001330793079A019B9A42CAD34FF48073D8
:10AEC000ADF8163001210398FFF7FCFC0346002B78
:10AED00014D0BDF8163019460398FFF7FEFC034660
:10AEE000002B0BD0BDF8163019460398FFF702FD72
:10AEF000144A029B52F82330042098474FF482737F
:10AF0000ADF8163002210398FFF7DCFC0346002B56
:10AF100014D0BDF8163019460398FFF7DEFC03463F
:10AF2000002B0BD0BDF8163019460398FFF7E2FC52
:10AF3000044A029B52F823300520984700BF09B00D
:10AF40005DF804FBA82D002008B50422002102486A
:10AF5000FFF770FF00BF08BD0040024082B003460B
:10AF60008DF807309DF90730002B0CDB9DF807307A
:10AF700003F01F0205499DF907305B09012000FA23
:10AF800002F241F8232000BF02B0704700E100E068
:10AF900082B003468DF807309DF90730002B13DB94
:10AFA0009DF8073003F01F0209499DF907305B093E
:10AFB000012000FA02F2203341F82320BFF34F8F23
:10AFC00000BFBFF36F8F00BF00BF02B0704700BF6C
:10AFD00000E100E082B003468DF807309DF90730AC
:10AFE000002B0DDB9DF8073003F01F0206499DF989
:10AFF00007305B09012000FA02F2603341F8232098
:10B0000000BF02B0704700BF00E100E082B003461D
:10B0100000918DF807309DF90730002B0ADB009B6B
:10B02000DAB20C499DF907305201D2B20B4483F8D1
:10B0300000230BE0009BDAB207499DF8073003F0CC
:10B040000F03043B5201D2B20B441A7600BF02B088
:10B05000704700BF00E100E000ED00E082B0019029
:10B06000019B03F06043B3F1005F0CBF0123002399
:10B07000DBB2184602B0704782B00190019B1B0BF7
:10B080005BB2184602B0704700B583B003460A466B
:10B090008DF8073013468DF806309DF80630012BE9
:10B0A00003D99DF80630032B0BD99DF80630042BED
:10B0B00003D99DF80630072B03D908496B2005F00A
:10B0C000FDF99DF806209DF9073011461846FFF757
:10B0D0009DFF00BF03B05DF804FB00BF7491030047
:10B0E00000B583B003468DF807309DF90730184648
:10B0F000FFF734FF00BF03B05DF804FB00B583B079
:10B1000003468DF807309DF907301846FFF740FFDA
:10B1100000BF03B05DF804FB00B583B003468DF8B3
:10B1200007309DF907301846FFF754FF00BF03B002
:10B130005DF804FB82B001900B468DF803309DF85A
:10B140000330019A134401221A6000BF02B0704715
:10B1500084B001900B46ADF80230BDF80230019A80
:10B16000134400221A60BDF80230019A13441B6890
:10B170000393039B00BF04B0704782B001900B465D
:10B18000ADF80230BDF80230019A13441B68002B61
:10B1900014BF01230023DBB2184602B0704782B00F
:10B1A00001900091019BD3F80022009BDB431A40E1
:10B1B000019BC3F8002200BF02B0704782B001902B
:10B1C0000091019B009AC3F8042300BF02B07047AE
:10B1D00082B001900091019B009AC3F8082300BF40
:10B1E00002B0704782B00190019B0622C3F800258F
:10B1F00000BF02B0704782B00190019B0022C3F8EB
:10B20000002500BF02B0704784B003900291019204
:10B21000039B029AC3F80825039B019AC3F80C25E7
:10B2200000BF04B0704782B001900091019B009A6A
:10B23000C3F8242500BF02B0704784B00190019B81
:10B24000D3F8C4340393019B039AC3F8C424039B2B
:10B25000184604B0704782B001900B468DF8033059
:10B260009DF80320019BC3F8882500BF02B07047FA
:10B2700084B0039002910192029A039BC3F8442583
:10B28000039B019AC3F8482500BF04B0704784B0FF
:10B29000039002910192029A039BC3F83425039B09
:10B2A000019AC3F8382500BF04B0704782B00190FE
:10B2B0000091019B009AC3F8002200BF02B07047C2
:10B2C00082B00190019BD3F84C35184602B070470C
:10B2D00082B00190019BD3F80032184602B070474B
:10B2E00082B00190019BD3F83C35184602B07047FC
:10B2F00082B00190019B0122C3F8502500BF02B02B
:10B30000704782B00190019B0022C3F8502500BF16
:10B3100002B0704782B00190019B0122C3F8402522
:10B3200000BF02B0704782B00190019B0022C3F8B9
:10B33000402500BF02B0704700B583B00190019B6B
:10B340001B68184600F052F80346002B04D105494B
:10B350004FF4F67005F0B2F84FF0A043184603B072
:10B360005DF804FBD091030000B585B0019008465C
:10B3700011461A4603468DF803300B468DF802300D
:10B3800013468DF8013001AB1846FFF7D5FF039047
:10B390009DF803209DF802305B001A439DF80130B0
:10B3A0009B001A439DF818301B0242EA03019DF8E6
:10B3B0001C301B04019A1943039B02F5E07243F809
:10B3C000221000BF05B05DF804FB00B585B0039006
:10B3D00000230193002300930023012200210398FE
:10B3E000FFF7C2FF00BF05B05DF804FB84B0019019
:10B3F000019B5B09029300230393029B002B03D163
:10B400004FF0FF33039300BF019B03F01F03019331
:10B41000039A019B22FA03F303F00103002B14BFEC
:10B4200001230023DBB2184604B0704784B00190BA
:10B4300003230393019B03F00103002B02D04FF47D
:10B4400002430393019B03F00203002B02D048F256
:10B4500001230393019B03F00403002B02D048F265
:10B4600002230393039B184604B0704700B585B0D0
:10B470000190009101238DF80F30009B1B7B032B63
:10B4800056D801A252F823F001B5020019B5020006
:10B49000D9B4020099B40200009B9B6803F4802396
:10B4A000002B07D00198FFF70BFF0246009B1B699A
:10B4B0009A420DD1009B9B6803F48023002B39D165
:10B4C0000198FFF7FDFE0246009B5B699A4231D06E
:10B4D00000238DF80F302DE00198FFF7F1FE0246B2
:10B4E000009B1B699A4207D10198FFF7F9FE0246BB
:10B4F000009B5B699A421FD000238DF80F301BE040
:10B500000198FFF7DDFE0246009B1B699A4215D0A9
:10B5100000238DF80F3011E00198FFF7E1FE02469D
:10B52000009B1B699A420BD000238DF80F3007E077
:10B5300000BF06E000BF04E000BF02E000BF00E083
:10B5400000BF9DF80F3083F00103DBB2002B05D064
:10B550000198FFF750FE0198FFF744FE9DF80F3069
:10B56000184605B05DF804FB00B58BB0059004915A
:10B5700003920293049B002B03D14A49E72004F075
:10B580009DFF049B1A68049B5B689A4203D145495E
:10B59000E82004F093FF059B1B791A46342302FB35
:10B5A00003F3414A13440993099B93F82D30002B70
:10B5B00003D008230793079B70E0059B1A68059B3F
:10B5C0001B791946394B53F8213019461046FFF7BD
:10B5D0004BF80346002B03D011230793079B5DE034
:10B5E000099B039A1A60099B029A5A60099B0022E0
:10B5F0009A60099B002283F83020099B002283F87F
:10B600002F20049B5A7B099B83F83220049B1868E7
:10B610000023019306230093032300220021FFF758
:10B62000A3FE049B58680023019306230093032381
:10B6300000220021FFF798FE059B1B680893049BDE
:10B640001968049B5B681A460898FFF7DDFD049BA8
:10B650009B6819460898FFF7E6FD099B1B68002BBD
:10B6600015D0059B1B681846FFF706FD03461A46D2
:10B67000049B1B7B19461046FFF706FD059B1B68C4
:10B680001846FFF7F9FC03461846FFF729FD099B0A
:10B69000012283F82D2000230793079B18460BB047
:10B6A0005DF804FB2C920300B02D00209092030063
:10B6B00000B585B00190019B1B791A46342302FB2B
:10B6C00003F3204A13440393039B93F82D30002B7C
:10B6D00004D11D494FF49B7004F0F0FE039B1B68DE
:10B6E000002B08D0019B1B681846FFF7C5FC0346DA
:10B6F0001846FFF703FD019800F050F8019B1B6806
:10B700001846FEF7F3FF039B93F8323083F00103F2
:10B71000DBB2002B0DD0019B1B68D3F8083518460F
:10B72000FFF753FE019B1B68D3F80C351846FFF753
:10B730004CFE039B002283F82D2000BF05B05DF86E
:10B7400004FB00BFB02D00202C92030000B585B093
:10B750000190019B1B791A46342302FB03F30D4A27
:10B7600013440393039B93F82D30012B04D00A4913
:10B7700040F24F1004F0A2FE019B1B681846FFF731
:10B7800031FD039B022283F82D2000BF05B05DF838
:10B7900004FB00BFB02D00202C92030000B585B043
:10B7A0000190019B1B791A46342302FB03F3134AD1
:10B7B00013440393039B93F82D30002B04D11049BD
:10B7C0004FF4AD7004F07AFE019B1B680293039B5B
:10B7D00000229A600B490298FFF7FAFC4FF4BC5123
:10B7E0000298FFF7DCFC0298FFF705FD039B01229E
:10B7F00083F82D2000BF05B05DF804FBB02D0020BC
:10B800002C92030002029C0100B583B001900091CC
:10B81000009B03F00103002B03D00198FFF768FDA4
:10B8200002E00198FFF76DFD009B03F00203002B7F
:10B8300003D00198FFF76EFD02E00198FFF773FD5A
:10B8400000BF03B05DF804FB30B589B003900291EE
:10B85000019200930023079308238DF81B30039B6C
:10B86000002283F82E20019BDB681846FFF7F6FBC9
:10B87000034683F00103DBB2002B03D010230793B0
:10B88000079BFDE19D490298FFF7A2FC039B93F8FB
:10B890002F30DBB2002B09D0039B9B68194602981E
:10B8A000FFF78CFC11230793079BE9E1009B03F052
:10B8B0000403002B06D1009B03F01003002B01D1E1
:10B8C000012300E0002303F00103DAB2039B83F8B5
:10B8D0002F20039B019A03F10C0415460FCD0FC4D2
:10B8E0002B682360009B1B0903F00103002B14BF8E
:10B8F00001230023DAB2039B83F83020039B009AD4
:10B900001A62019B5B7819460298FFF7A4FC4FF47A
:10B9100082710298FFF71CFC4FF492710298FFF7B6
:10B9200017FC4FF4B0710298FFF712FC4FF4A471AA
:10B930000298FFF70DFC00990298FFF765FF019B45
:10B940001B78032B00F2DE8001A252F823F000BF27
:10B9500083BA0200CBBA02002BBA020061B902001E
:10B96000009B03F01003002B04D065494FF4D970FD
:10B9700004F0A4FD009B03F00803002B04D06049F1
:10B9800040F2B31004F09AFD009B03F00403002B77
:10B9900004D05B494FF4DA7004F090FD019B1B6901
:10B9A0001846FFF75BFB034683F00103DBB2002B75
:10B9B00003D010230793079B62E14FF48071029834
:10B9C000FFF774FC019BD968019B5B681A460298DB
:10B9D000FFF74EFC4FF4A8710298FFF7B9FB202146
:10B9E0000298FFF7A7FB08210298FFF7A3FB00BF0F
:10B9F0004FF4A8710298FFF7C0FB034683F00103E0
:10BA0000DBB2002BF4D14FF4A8710298FFF7A0FB32
:10BA1000019B1969019B9B681A460298FFF728FC55
:10BA2000039B4FF480229A606FE0019BD968019BD1
:10BA30005B681A460298FFF71BFC019B1B691846BE
:10BA4000FFF70CFB034683F00103DBB2002B03D0AE
:10BA500010230793079B13E1019B1969019B9B68C6
:10BA60001A460298FFF713FC4FF484510298FFF72F
:10BA70001DFC039B02229A6020210298FFF75AFBCB
:10BA800043E0019BD968019B5B681A460298FFF767
:10BA9000EFFB009B03F02003002B09D04FF48071D3
:10BAA0000298FFF703FC039B4FF480229A6007E0A3
:10BAB0004FF400710298FFF7F9FB039B02229A6092
:10BAC00020210298FFF736FB1FE0019BD968019BFC
:10BAD0005B681A460298FFF7DAFB4FF48051029830
